:100000000C942A000C9486010C94AF010C94D80136
:100010000C9447000C9447000C9447000C94470044
:100020000C9447000C9447000C9447000C94470034
:100030000C9447000C9447000C9447000C94470024
:100040000C9447000C9447000C9447000C94470014
:100050000C94470011241FBECFE5D8E0DEBFCDBF12
:1000600010E0A0E6B0E0ECE4F4E002C005900D92F0
:10007000A036B107D9F720E0A0E6B0E001C01D929C
:10008000A636B207E1F70E944D000C9424020C94AE
:10009000000066E080E00C94F30041E065E080E061
:1000A0000E94750041E066E080E00E94750040E03B
:1000B00062E083E00E9475000E94010269E470E042
:1000C00080E00E94730161E080E00E941D0180E0F9
:1000D0000E9459010E94190165E080E00E94F3002E
:1000E00088EE93E00E940902F7CF843008F078C0D0
:1000F000683008F075C0413079F1423009F449C0E8
:1001000041116EC021E001C0220F6A95EAF72095E7
:100110008230A1F08330C9F0813049F08AB3822364
:100120008ABB8BB382238BBB80E090E0089587B3BA
:10013000822387BB88B3822388BBF6CF84B3822314
:1001400084BB85B3822385BBEFCF81B3822381BB80
:1001500082B3822382BBE8CF21E030E0A90101C055
:10016000440F6A95EAF7823061F0833071F0813094
:1001700021F08AB3842B8ABBD7CF87B3842B87BB6C
:10018000D3CF84B3842B84BBCFCF81B3842B81BBEB
:10019000CBCF21E030E0A90101C0440F6A95EAF716
:1001A000942F9095823081F08330A1F0813031F02E
:1001B0008AB389238ABB8BB3842BB5CF87B38923BA
:1001C00087BB88B3842BB8CF84B3892384BB85B322
:1001D000842BB9CF81B3892381BB82B3842BBACF5F
:1001E00081E090E00895843008F56830F8F421E06B
:1001F00030E0A90101C0440F6A95EAF7823071F03E
:10020000833081F0813031F08BB384278BBB80E069
:1002100090E0089588B3842788BBF9CF85B38427FD
:1002200085BBF5CF82B3842782BBF1CF81E090E01C
:100230000895789480E090E00895813079F08230DC
:10024000C1F0811121C06430F8F485B78C7F85BF7F
:1002500085B7862B85BF80E090E008956430A0F4D8
:1002600085B7837F85BF85B7660F660F682B65BF2F
:10027000F2CF623021F484B78F7B84BFECCF633040
:1002800019F484B78064F9CF81E090E0089581305B
:1002900049F0823049F0811109C080E48ABF80E0D2
:1002A00090E0089580E8FACF80E2F8CF81E090E016
:1002B0000895CF93C82F0E944701009749F4C13099
:1002C00049F0C23051F0C1110BC02BB720642BBFD5
:1002D000CF9108952BB72068FACF2BB72062F7CFC4
:1002E00081E090E0F5CF6115710569F0833058F435
:1002F000E82FF0E0EE0FFF1FE05AFF4F608371839D
:1003000080E090E0089581E090E008951F920F92C0
:100310000FB60F9211242F933F934F935F936F93D8
:100320007F938F939F93AF93BF93EF93FF93E0914E
:100330006000F0916100309709F00995FF91EF910D
:10034000BF91AF919F918F917F916F915F914F91ED
:100350003F912F910F900FBE0F901F9018951F92F5
:100360000F920FB60F9211242F933F934F935F93E9
:100370006F937F938F939F93AF93BF93EF93FF936D
:10038000E0916200F0916300309709F00995FF91C8
:10039000EF91BF91AF919F918F917F916F915F91FD
:1003A0004F913F912F910F900FBE0F901F90189576
:1003B0001F920F920FB60F9211242F933F934F93DA
:1003C0005F936F937F938F939F93AF93BF93EF93BD
:1003D000FF93E0916400F0916500309709F0099572
:1003E000FF91EF91BF91AF919F918F917F916F910D
:1003F0005F914F913F912F910F900FBE0F901F90E3
:10040000189588E083BF8CE78CBF12BE80E090E037
:100410000895AC0198B7926098BF93B7936093BF6B
:1004200020E030E02417350731F483B7887F83BF9D
:1004300080E090E0089508B601FEFDCF98B7926085
:0C04400098BF2F5F3F4FEECFF894FFCF26
:00000001FF
