:100000000C9448000C941D0E0C944A0E0C94770E20
:100010000C9465000C9465000C94B90F0C94650069
:100020000C9465000C9412100C94760F0C946500DF
:100030000C9465000C9465000C9465000C946500AC
:100040000C9465000C9465000C9465000C9465009C
:100050000C9465003C0064005A006400680177015C
:100060000C0014005A008C00460078005C0064000C
:100070006801770112001E00500078006400A000A3
:10008000580062006D0177011E003C003C005A00E0
:1000900011241FBECFE5D8E0DEBFCDBF12E0A0E641
:1000A000B0E0ECE8F7E202C005900D92A236B1078D
:1000B000D9F723E0A2E6B2E001C01D92A035B20755
:1000C000E1F70E9467000C94C4130C940000CDB7B4
:1000D000DEB7AA970FB6F894DEBF0FBECDBF84B7C8
:1000E000806884BF84B7806884BF84B3837884BB0E
:1000F00085B38C6785BB81B3877D81BB82B3886202
:1001000082BB8E9896988AB3807F8ABB8BB3807FA0
:100110008BBB87B38F6087BB88B3807F88BBA79A70
:10012000AF9860EA76E881E090E00E94930D0E942B
:1001300036090E9493090E94C3090E94CE0E0E94B4
:100140008D070E94B10A0E94DC090E947D050E9471
:100150005F040E94910B0E94EE050E94E4060E943B
:10016000C8090E94980A0E94150E7E018FEFE81AB6
:10017000F80A8E010A5E1F4F0E94DF0E8030E1F305
:100180000E94E60EAF9A0E94220F81117DC00E944C
:10019000F8070E9419060E9422078091A6029091FA
:1001A000A70280FF1EC00E941B0A80E00E94840AF2
:1001B000803021F00E94D8060E94860C84E00E94C4
:1001C000840A803061F00E945B05811169C00E9441
:1001D0005F040E94930910927802109263020E94B9
:1001E00068048091A6029091A70265E070E00E94E9
:1001F0006C10892B49F48091A802803009F463C007
:1002000081508093A802C39A8091A6029091A70280
:100210006AE070E00E946C10039769F48091A50277
:10022000803009F452C080E00E94080680E00E94FD
:1002300015070E94D7098091A6029091A7026AE053
:1002400070E00E946C10079761F48DE892E00E94C4
:10025000C10A0E945B05811171C010927802109250
:100260006302AF988091A6029091A70201968093B5
:10027000A6029093A702883E934008F47DCF109287
:10028000A6021092A70278CF0E942C0F6C010E9448
:10029000F807CD2809F47DCF83E08093A80279CFB9
:1002A0008091A50281110CC081E08093A50280E0BD
:1002B0000E94080680E00E9415070E94D7098BCF94
:1002C0001092A50288CFC3989FCF8DE892E00E943C
:1002D000C10A0E94D108D82EC92E0E94D6088030AB
:1002E00011F0C12CD12CD982CA82809191028B83CA
:1002F000809196028C8380919202909193028D83DB
:100300009E83809194028F831886809195028987BD
:100310001A868827839983958C8788278599839562
:100320008B87C7010E94A50B0E94B00B0E948F0A09
:10033000803009F480CF0E94D8067DCFD090A502EE
:10034000AE2C9F2CD114D1F161E670E0C8010E945F
:10035000C41062E770E0C7010E94C410D801E8E74A
:10036000F2E00E94BD10892B81F060E080E00E94E5
:100370009E09C8010E94AE0944E150E0B80188E737
:1003800092E00E94CD1010928C02D701E3E6F2E0D9
:100390000E94BD10892B09F464CF60E081E00E94C7
:1003A0009E09C7010E94AE0944E150E0B70183E60F
:1003B00092E00E94CD101092770253CF0E94D10894
:1003C000C82EB92E839B2DC00E94D60891E08111C2
:1003D00001C090E080B38072903009F44DC081116B
:1003E00022C063E870E0C8010E94C41080916202DC
:1003F0008F5F843108F4D82ED09262020E947C0C68
:10040000892B09F494C0809162028A3008F48FC06D
:100410000E94810C80FF50C06FEE70E08A2D992DF4
:100420009BCF91E0D7CF80919102843690F084E900
:1004300090E09F938F931F9285E18F931F930F936B
:100440000E94DC100F900F900F900F900F900F9064
:10045000CDCF1F928F9386EA90E09F938F931F9248
:1004600085E18F931F930F930E94DC100FB6F894D1
:10047000DEBF0FBECDBFBACF811105C0BF92CF92F4
:1004800089EB90E0EACF80919102843628F0BF9208
:10049000CF928AEC90E0E1CF1F928F93BF92CF92E0
:1004A0008CED90E09F938F931F9285E18F931F9324
:1004B0000F930E94DC10DACF6FEF70E097FDAECFA4
:1004C0006FE071E096FDAACF6FE171E082FDA6CFEB
:1004D00060E371E083FDA2CF61E471E084FD9ECF13
:1004E00062E571E085FD9ACF63E671E086FD96CF07
:1004F00064E771E092FD92CF65E871E093FD8ECFE5
:1005000066E971E094FD8ACF67EA71E095FD86CFD8
:1005100068EB71E087FD82CF69EC71E090FD7ECFE2
:100520006AED71E091FD7ACF6BEE71E077CF80914B
:100530009202909193026AE070E00E946C10209108
:1005400096021F922F93209195021F922F93209134
:1005500094021F922F939F938F937F936F938CEFAF
:1005600091E09F938F931F9285E18F93FF92EF927B
:100570000E94DC100FB6F894DEBF0FBECDBFEECEEA
:10058000860F911DFC01DA018C91803011F06031F1
:1005900009F408954F5F5F4F6F5F8193F4CFEF923F
:1005A000FF920F931F93CF93DF93EB01542F9C0186
:1005B00000970CF040C08DE2888331952195310978
:1005C00041E0042F10E0852F8150990B7C01F80148
:1005D000C9016AE070E00E946C10DE01AE0FBF1F1F
:1005E000805D8C935E2F31962A30304020F09B0145
:1005F000EE15FF0568F3EC0FFD1F1082852F8F5F4E
:1006000090E0801B910B96958795800F911F20E0BD
:10061000E42FE20FE8171906A0F4EC0FFD2FF11DEF
:100620003081A52FA21BAC0FBD2FB11D6C91608333
:100630003C932F5FEDCF11F040E0C3CF80E3888380
:100640001982DF91CF911F910F91FF90EF90089544
:10065000CF92DF92EF92FF920F931F93CF93DF938E
:10066000CDB7DEB76E970FB6F894DEBF0FBECDBF25
:1006700040E150E060E270E08E010F5F1F4FC80163
:100680000E94B610198A8091AE02F02EE12E41E14F
:1006900052E0823011F04AE152E060E0C8010E946D
:1006A000C00260E080E00E949E098F2D9E2D0E9476
:1006B000AE0940E150E060E270E08F2D9E2D0E9477
:1006C000B610198A44E252E060E08F2D9E2D0E9400
:1006D000C0028091AD02D82E2091AB023091AC02C5
:1006E0008E010E5E1F4F823009F065C0C90137FFD1
:1006F00004C088279927821B930B6AE070E00E9450
:100700008010C82EC9016AE070E00E948010CB0101
:1007100046E09E01275E3F4FB9010E94CF02CE0105
:100720004996FC01D80120E030E0808181113EC073
:10073000922F200F311F8EE2F9018083892F8F5F66
:10074000F801E80FF11D8C2D805D80839E5FF8011C
:10075000E90FF11D1082A80162E08F2D9E2D0E94ED
:10076000C0028D2D0E94B205AC016BE08F2D9E2D35
:100770000E94C00260E081E00E949E098F2D9E2DA4
:100780000E94AE096E960FB6F894DEBF0FBECDBFC5
:10079000DF91CF911F910F91FF90EF90DF90CF905D
:1007A000089531968D932F5F3F4FBFCF2430310591
:1007B000C1F794E0BECF47E0B801C9010E94CF0263
:1007C000CACFEF92FF920F931F93CF93DF93CDB7D2
:1007D000DEB768970FB6F894DEBF0FBECDBF40E11D
:1007E00050E060E270E0CE0101960E94B610198AD6
:1007F00046E252E060E0CE0101960E94C002809184
:10080000AD020E94B205AC0166E0CE0101960E94E5
:10081000C00260E080E00E949E09CE0101960E9425
:10082000AE098091AD020E948B057B018C0140E1F5
:1008300050E060E270E0CE0101960E94B610198A85
:100840004DE252E060E0CE0101960E94C00247E016
:10085000CE014296BC01C7010E94CF02CE01429652
:10086000AC0162E041970E94C00240E352E068E0C0
:10087000CE0101960E94C00247E0CE014296BC0123
:10088000C8010E94CF02CE014296AC016AE04197B6
:100890000E94C00260E081E00E949E09CE010196A4
:1008A0000E94AE0968960FB6F894DEBF0FBECDBFAA
:1008B000DF91CF911F910F91FF90EF9008951092CB
:1008C000AE021092AD021092AB021092AC020895EB
:1008D000CF938091AE02823009F46FC0A8F48111E9
:1008E0001AC081E00E94840A803099F081E08093F0
:1008F000AE021092AD021092A9021092AA020E94BA
:100900009309CF910C94E103833009F49DC01092B8
:10091000AE02CF91089582E00E94840AC82F8030F1
:1009200041F08091AD02803051F181508093AD0251
:10093000C1E083E00E94840A803041F08091AD02E2
:100940008F5F8530F0F48093AD02C1E081E00E94BA
:10095000840A8030C9F08091AD020E948B056093BB
:10096000AB027093AC0282E08093AE021092A902B7
:100970001092AA020E949309CF910C94280384E05C
:10098000D5CF1092AD02E1CFC03029F01092A9026C
:100990001092AA02B6CF8091A9029091AA02019664
:1009A0008093A9029093AA02883B9B4008F4B1CFA0
:1009B0001092AE02CF910C9493090E94840AC82F22
:1009C000803079F08091AD020E94BE052091AB028B
:1009D0003091AC02280F391F2093AB023093AC0248
:1009E000C1E083E00E94840A803079F08091AD02FA
:1009F0000E94BE052091AB023091AC02281B390B3E
:100A00002093AB023093AC02C1E081E00E94840AE3
:100A1000803091F06091AB027091AC028091AD0298
:100A20000E949C058091AD020E948B058093AB02D1
:100A30009093AC0283E098CFC03009F4ACCF109211
:100A4000A9021092AA0298CF82E00E94840AC82FBD
:100A5000803079F08091AD020E94BE052091AB02FA
:100A60003091AC02280F391F2093AB023093AC02B7
:100A7000C1E083E00E94840A803079F08091AD0269
:100A80000E94BE052091AB023091AC02281B390BAD
:100A90002093AB023093AC02C1E081E00E94840A53
:100AA000803051F26091AB027091AC028091AD0246
:100AB0000E94A7057DCF81E09091AE02911180E068
:100AC00008958093AF0224E1829FC00111248C5AC3
:100AD0009F4FA4ECB2E028ED32E0FC014591559126
:100AE0004D935D93FC013296459155914D935D93E5
:100AF00004962A173B0789F70895E0EBF2E010828D
:100B0000118212821382349682E0E43CF807B9F72E
:100B100080E00C946105853020F080E090E0BC011D
:100B2000089594E0899FF0011124EC53FD4F6081FA
:100B30007181828193810895853040F494E0899F8A
:100B4000F0011124EC53FD4F6083718308958530CB
:100B500040F494E0899FF0011124EC53FD4F62832F
:100B600073830895853038F425E0829FC0011124F5
:100B7000815C9D4F089583E392E00895853048F4A9
:100B8000E82FF0E0EE0FFF1FEB5CFD4F80819181BD
:100B9000089581E090E008951092E0021092DF0243
:100BA0001092DE021092DD021092DC021092DB0243
:100BB0008091E102833019F481E00C94490F809117
:100BC000E1028230D1F38091E102813011F483E0BF
:100BD000F4CF83E08093E00280E0EFCF1092E10257
:100BE00083E08093E0021092DF021092DE02109206
:100BF000DD021092DC021092DB021092DA021092F7
:100C0000D9021092D8020E946A0F80E00C94490F1A
:100C1000843070F49091E102981751F08093E102D2
:100C20001092D8021092DA021092D9020C94CC05DC
:100C300008958091D8028030D1F08091D9029091AE
:100C4000DA02892B49F08091D9029091DA0201975A
:100C50009093DA028093D9028091D9029091DA02BE
:100C6000892B09F0A4C01092D8020C94CC05809175
:100C7000E102811106C00E94490F83E08093E002E7
:100C800008958091E1028330B9F18091E1028230D0
:100C9000D9F58CED95E023E04FE050E064E170E0A1
:100CA000E091DB02F091DC02319649F0E091DB0249
:100CB000F091DC023196F093DC02E093DB0230919C
:100CC000E002311129C08091DD029091DE0201968F
:100CD0009093DE028093DD028091DD029091DE022E
:100CE0008617970708F463C081E08093E0021092B2
:100CF000DE021092DD024BC084EF91E02AE04AE070
:100D000050E06FE070E0CCCF80E090E022E044E182
:100D100050E069E170E0C4CF3091E0023130D9F5A4
:100D20008091DD029091DE0201969093DE02809325
:100D3000DD028091DD029091DE0284179507B8F103
:100D40008091DF028F5F8093DF028091DF02821744
:100D5000B8F41092E0021092DE021092DD0280914F
:100D6000E102833019F481E00C94490F8091E10293
:100D70008230D1F38091E1028130C9F483E0F4CF75
:100D80008091E102813029F483E08093E00280E0E9
:100D9000EBCF82E0AACF2091E0022230C1F7209170
:100DA000DB023091DC022817390708F05ECF089586
:100DB00081E08093D80280EE9EE29093DA028093E5
:100DC000D90280E00C94490F41E060E081E00E948C
:100DD000C50C41E061E081E00E94C50C41E062E0A9
:100DE00081E00E94C50C41E063E081E00E94C50CF7
:100DF00040E060E081E00E94350D40E061E081E08C
:100E00000E94350D40E062E081E00E94350D40E037
:100E100063E081E00E94350D1092E5021092E40239
:100E20001092E3021092E2020895843050F49091FF
:100E3000E502981731F08093E5021092E4021092D7
:100E4000E30208958091E3029091E4020196909369
:100E5000E4028093E3028091E202803071F080919D
:100E6000E20281508093E2028091E202811105C08A
:100E700040E063E081E00E94350D8091E502823020
:100E800049F1833071F08130E1F140E060E081E0D0
:100E90000E94350D40E061E081E00E94350D40E0A8
:100EA0003AC040E061E081E00E94350D40E062E040
:100EB00081E00E94350D8091E3029091E40269E1A6
:100EC00070E00E946C1041E060FD40E060E081E075
:100ED0000C94350D40E060E081E00E94350D40E06B
:100EE00062E081E00E94350D8091E3029091E4027E
:100EF00063E570E00E946C1041E060FD40E061E05D
:100F0000E6CF40E060E00E94350D40E061E081E026
:100F10000E94350D41E062E0DACF1092EF021092AC
:100F2000EE021092ED021092EC021092EB0210927F
:100F3000EA021092E9021092E8021092E70210927F
:100F4000E602109201031092000310920303109224
:100F50000203109205031092040380E090E0FC016C
:100F6000EE0FFF1FE051FD4F118210820196883075
:100F70009105A9F70C94E90E0097C9F19093E70247
:100F80008093E602E091EF02F0E0EE0FFF1FE050E9
:100F9000FD4F918380832091EF022F5F2093EF021A
:100FA0002091EF02233010F01092EF022091EE0218
:100FB000233028F42091EE022F5F2093EE02E0917F
:100FC000ED02F0E0EE0FFF1FE051FD4F91838083B3
:100FD0008091ED028F5F8093ED028091ED02883069
:100FE00010F01092ED021092E8020C94420F089556
:100FF000CF92DF92EF92FF920E94220F803041F059
:101000000E942C0F009711F00E94BC070E94290F2C
:101010000E943B0F803081F081E08093E8021092C3
:10102000EC021092EB021092EA021092E902FF9099
:10103000EF90DF90CF90089580910003909101038D
:101040004091020350910303209104033091050362
:101050006091EE02633050F1009741F14030540747
:1010600029F12030320711F14817590728F0742F61
:10107000652FAC01872F962F8217930708F49C01E8
:101080002417350708F49A0140E050E068E37CE952
:101090008CE190E00E949410C901DA010197A04010
:1010A000B0408C329140A040B040F8F02091E60270
:1010B0003091E70220303207C1F02091E6023091F2
:1010C000E70240E050E068E37CE98CE190E00E94B8
:1010D0009410C901DA010197A040B0408C329140D0
:1010E000A040B04010F020E030E03093EC022093BC
:1010F000EB0240E050E06A017601FA014F5F5F4F7A
:10110000DA01AA0FBB1FA051BD4F2D913D9112973F
:1011100020303207C9F1EE0FFF1FE051FD4F208153
:1011200031812030320781F12D913D9112978081DC
:1011300091812817390768F18D919D912081318126
:10114000821B930BC80ED91EE11CF11C47305105C0
:10115000A1F6B601C70127E030E040E050E00E9470
:10116000941057705860220F331F441F551FD8F733
:10117000B901CA01883E23E0920780F428EE33E0EB
:1011800040E050E00E9494103093EA022093E9027C
:101190004ECF808191812D913D91D2CF2FEF3FEFA6
:1011A000F3CF8091EB029091EC0208950E943B0FE7
:1011B000811107C09091E80281E0911103C080E0A5
:1011C000089581E00895CF93DF93C82F0E94BD0D4D
:1011D000892B31F0C1E0D0E0CE01DF91CF910895AD
:1011E00080E20E94E10D892B19F00E94D40DF2CF0C
:1011F0008C2F0E94FD0DEC010E94D40DEDCFCF93FA
:10120000C82F84600E94E308892B49F48AE18A95FB
:10121000F1F700C08C2F8B7FCF910C94E30881E015
:1012200090E0CF910895CF93DF93D82F8091600005
:10123000682BC62F8D2F807F862B0E94FF08892B5D
:1012400041F48D2F8295807F8C2BDF91CF910C9470
:10125000FF0881E090E0DF91CF91089561E00E9466
:1012600013092AE62A95F1F700C008958FE798E35D
:1012700021E0815090402040E1F700C000008091C3
:10128000600080630E94FF08892B09F049C08FE04D
:1012900097E20197F1F700C0000080916000806341
:1012A0000E94FF08892BE1F58BE291E00197F1F7AD
:1012B00000C000008091600080630E94FF08892BBD
:1012C00079F58BE291E00197F1F700C00000809181
:1012D000600080620E94FF08892B11F58BE291E08B
:1012E0000197F1F700C0000060E088E20E94130956
:1012F000892BB1F460E08CE00E941309892B81F402
:1013000060E081E00E941309892B51F48FE99FE08E
:101310000197F1F700C0000060E086E00C9413092B
:1013200081E090E0089560E081E00E941309EFE918
:10133000FFE03197F1F700C000000895823058F4C3
:10134000603148F48295880F880F807C860F60E0BA
:1013500080680C94130981E090E00895CF93DF93A7
:10136000EC01892B51F481E090E0DF91CF91089559
:1013700021960E942E09892BB1F788818111F8CF1F
:1013800080E090E0F2CF88E0809360000C94E30866
:1013900041E064E083E00E94C50C40E064E083E04B
:1013A0000C94350D41E064E083E00C94350D40E091
:1013B00064E083E00C94350DCF92DF92EF92FF92C0
:1013C0000F931F93CF93DF9384B7806884BF84B754
:1013D000806884BF84B3837884BB85B38C6785BB06
:1013E000C8E5D2E082E193E07C018DE093E06C01FE
:1013F00008E013E042E0698182E00E94C50CF70139
:1014000011927F01F60181E081936F01F801119241
:101410008F01229682E0C236D80761F71092060348
:1014200010920703DF91CF911F910F91FF90EF90E2
:10143000DF90CF9008958F929F92AF92BF92CF92FC
:10144000DF92FF920F931F93CF93DF930F92CDB74D
:10145000DEB788E5A82E82E0B82E9DE0892E93E0C5
:10146000992E02E113E028E0C22E23E0D22EF12CC7
:10147000CE010196AC01F501618182E00E94710DFF
:10148000F40191914F012981F8019217D9F18081DE
:101490008F5F8083833090F0F4012293F8011082F3
:1014A000913061F421110AC0F6019083F11006C059
:1014B00080EE9EE28093060390930703F39482E00C
:1014C000A80EB11C0F5F1F4F8FEFC81AD80A8F2DBF
:1014D000853071F68091060390910703009729F0FB
:1014E000019780930603909307030F90DF91CF91AC
:1014F0001F910F91FF90DF90CF90BF90AF909F9082
:101500008F9008951082DACF853038F4E82FF0E01C
:10151000E85FFC4F80811082089580E0089581E0AB
:101520002091060330910703232B09F480E00895EE
:1015300081E00E94A40E41E064E081E00E94C50CBD
:1015400040E064E081E00C94350D0E94C90E41E05A
:1015500064E081E00E94350D40E064E081E00C949D
:10156000350D8AB3807F8ABB8BB3807F8BBB81B301
:10157000877D81BB82B3886282BB66E081E00C9488
:101580008A0CBF92CF92DF92EF92FF920F931F933C
:10159000CF93DF9300D0CDB7DEB78C0119821A82CA
:1015A00081E0E82EF12C0030100709F489C090B3D7
:1015B000F0B2F5FAFF24F5F8F801838593FD8DC0AC
:1015C0008160838780E090E0F8018083918381E0EF
:1015D00091E0F5FC8927F82E8385F0FA81F983875D
:1015E0006E018FEFC81AD80AB60180E00E94980CED
:1015F0007C01BC2C892B29F4F801838581FF72C002
:10160000148241E0E42EF12CF801E08AF18A6B2D7E
:101610007D2D81E00E94980C7C01892B09F072C01D
:1016200029813A81A6E9B0E00E945D102FEF33E0F6
:1016300040E050E00E949410245D3E4FF801258365
:101640003683F801E28AF38A6B2D7D2D82E00E94B9
:10165000980C7C01892B09F059C029813A81A8ECAA
:10166000B0E00E945D102FEF33E040E050E00E94B8
:1016700094102E5CF8012783822F90E0880F991F29
:1016800063E070E00E946C106087F801E48AF58ADC
:101690006B2D7D2D83E00E94980C7C01892BD1F568
:1016A00029813A81ACE3B0E00E945D102FEF33E076
:1016B00040E050E00E949410F8012187168A178AB2
:1016C000C7010F900F90DF91CF911F910F91FF9065
:1016D000EF90DF90CF90BF9008958E7F83870E9418
:1016E000D10872CF29813A81AEE1B0E00E945D104D
:1016F0002FEF33E040E050E00E9494102A5BF801A5
:10170000248382CF31E0E32EF12C9BCF91E0E92EB0
:10171000F12CBBCF81E0F801868B178AE12CF12CEC
:10172000CFCF10921A0310921B0310921C03109239
:101730001D031092180310921903109217030E94B0
:10174000E4060E94C8090C94980AFC01892B39F020
:101750009CE0AEE1B3E001900D929A95E1F7089517
:10176000CF92DF92EF92FF9220912803E12CF12C8F
:101770006701C3942111C12CDC2CC12C36E0CC0CA8
:10178000DD1CEE1CFF1C3A95D1F7809129038030B7
:1017900071F080911E0390911F03009709F467C0B8
:1017A0008739910508F466C06894C2F802C068944D
:1017B000D7F8203049F080912003982F915094352C
:1017C00008F06AC06894C4F880912103843208F458
:1017D0006AC06894C5F880912203909123038238EF
:1017E00021E0920708F466C06894D2F8809124033F
:1017F000909125038D38910508F464C06894D4F85D
:10180000C0921A03D0921B03E0921C03F0921D03B6
:101810008C2D8F7790E0A0E0B0E010979040804052
:1018200009F458C083E080931803109219031092B2
:1018300017030E94D209809118030E941507809116
:101840001703811106C08091180390911903009726
:1018500009F480E00E9408068C2DD7FC8064D6FC39
:101860008068FF90EF90DF90CF900C94A50A689469
:10187000C0F89FCF8832910518F46894C3F899CFC7
:101880008937910518F06894C7F893CFC29708F08C
:1018900090CF6894D0F88DCF8555853008F094CFDF
:1018A0006894D1F891CF8150873008F094CF689434
:1018B000C6F891CF01978D35914008F097CF689485
:1018C000D3F894CF01978935904008F099CF689468
:1018D000D5F896CF81E0A6014078BD01452B462B77
:1018E000472B09F480E0880F991F80931803909389
:1018F00019030E94D7099FCF809118039091190373
:10190000089580911A0390911B03089581E08093BC
:1019100017030895813019F081E090E00895663052
:10192000D9F780E487B986E886B980E090E0089529
:10193000883018F46030760719F481E090E008955B
:1019400097B1907E982B97B98AE18A95F1F700C0FC
:10195000349A369A80E593ECA0E0B0E0349908C060
:1019600010979040804049F30197A040B040F6CFD7
:10197000892B8A2B8B2B09F3349A84B125B1FB0177
:101980008083218380E090E00895843008F06AC06D
:10199000683008F067C0433008F064C021E001C03F
:1019A000220F6A95EAF7622F413018F56095823070
:1019B00091F08330B9F0813039F08AB386238ABB45
:1019C0008BB386238BBB1FC087B3862387BB88B3AB
:1019D000862388BB18C084B3862384BB85B3862343
:1019E00085BB11C081B3862381BB82B3862382BBB2
:1019F0000AC0C1F4823071F0833081F0813031F05F
:101A00008AB3822B8ABB80E090E0089587B3822B53
:101A100087BBF9CF84B3822B84BBF5CF81B3822BF4
:101A200081BBF1CF922F9095823081F08330A1F06D
:101A3000813031F08AB389238ABB8BB3822BC2CF2A
:101A400087B3892387BB88B3822BC3CF84B3892311
:101A500084BB85B3822BC4CF81B3892381BB82B37E
:101A6000822BC5CF81E090E008958430B8F56830CE
:101A7000A8F5423098F521E001C0220F6A95EAF7F7
:101A8000622F4130C1F4823071F0833081F08130B7
:101A900031F08BB3822B8BBB80E090E0089588B34C
:101AA000822B88BBF9CF85B3822B85BBF5CF82B360
:101AB000822B82BBF1CF6095823051F0833059F098
:101AC000813019F08BB38623E6CF88B38623E9CF24
:101AD00085B38623EACF82B38623EBCF81E090E003
:101AE0000895FA018430E0F46830D0F43097C1F002
:101AF000823091F0833091F0813061F089B390E0D1
:101B000002C0969587956A95E2F78170808380E0A0
:101B100090E0089586B3F3CF83B3F1CF80B3EFCFD6
:101B200081E090E008959B01AC012030320742072C
:101B3000520719F481E090E0089560E072E18AE7CD
:101B400090E00E949410C901DA0180319105A1054D
:101B5000B10580F3B695A795979587950897A0400E
:101B6000B0401097910531F780B981B18C7F81B970
:101B700084E086BF80E090E0089584EA86BF80ED2F
:101B800097E0A0E0B0E006B607FC07C00197A040D0
:101B9000B040C9F781E090E0089591B1987F81E06D
:101BA0009830C9F780E0F7CF84E986BF80E090E005
:101BB00006B604FE05C00196803D27E09207C1F7F6
:101BC000089587FF03C081E090E00895880F83B9EE
:101BD00084E886BF80ED97E0A0E0B0E006B607FCA1
:101BE00005C00197A040B040C9F7EDCF91B1987FF3
:101BF00081E0983149F780E0E7CF83B984E886BF78
:101C000080ED97E0A0E0B0E006B607FC07C00197C2
:101C1000A040B040C9F781E090E0089591B1987F6D
:101C200081E09832C9F780E0F7CF789480E090E0C7
:101C30000895F89480E090E008951F920F920FB6F7
:101C40000F9211242F933F934F935F936F937F9342
:101C50008F939F93AF93BF93EF93FF9380912A034A
:101C600090912B03892B29F0E0912A03F0912B030B
:101C70000995FF91EF91BF91AF919F918F917F91C6
:101C80006F915F914F913F912F910F900FBE0F90E9
:101C90001F9018951F920F920FB60F9211242F9339
:101CA0003F934F935F936F937F938F939F93AF93E4
:101CB000BF93EF93FF9380912C0390912D03892B79
:101CC00029F0E0912C03F0912D030995FF91EF91FC
:101CD000BF91AF919F918F917F916F915F914F9144
:101CE0003F912F910F900FBE0F901F9018951F924C
:101CF0000F920FB60F9211242F933F934F935F9340
:101D00006F937F938F939F93AF93BF93EF93FF93C3
:101D100080912E0390912F03892B29F0E0912E03BF
:101D2000F0912F030995FF91EF91BF91AF919F9192
:101D30008F917F916F915F914F913F912F910F9074
:101D40000FBE0F901F901895CF93C82F81E090E0A1
:101D5000C430E8F441E064E081E00E94C50C41E059
:101D600065E081E00E94C50C40E066E081E00E94F1
:101D7000C50C41E067E081E00E94C50C40E064E0F2
:101D800081E00E94350DC065CDB980E090E0CF9133
:101D900008958FB9779BFECF8FB1089513BE12BE01
:101DA0008DE48CBF83B7886083BF83B7846083BFB3
:101DB00083B7816083BF89B7826089BF089590919E
:101DC000490381E0911101C080E008951092490318
:101DD00008951FBC1EBC1DBC1CBC88B7806288BF98
:101DE00088B7846088BF8EB580688EBD8EB58064EC
:101DF0008EBD8EB584608EBD89B7806289BF89B77C
:101E0000846089BF80E090E0FC01EE0FFF1FE75C7B
:101E1000FC4F11821082019688309105A9F710922B
:101E20003803109237031092360310923503109244
:101E30003403109233031092320310923103109244
:101E4000300308959091350381E0911101C080E045
:101E50000895109235030895CF93DF930E94190ED1
:101E60008091300390913103EC010E94150ECE0158
:101E7000DF91CF9108959091340381E0911101C0D9
:101E800080E00895109234031092330310923203CD
:101E9000089595B59B7F95BD95B59D7F95BD95B5ED
:101EA0009E7F95BD813049F481E883BD85B5826010
:101EB00085BD85B5816085BD0895823029F481E6B0
:101EC00083BD85B58460F7CF833011F481E8F8CF06
:101ED00013BC08958F9A15BC14BC85B5886085BD68
:101EE00085B5806185BD80E00C94490F1F920F92EB
:101EF0000FB60F9211242F933F934F935F936F93DD
:101F00007F938F939F93AF93BF93EF93FF938091B2
:101F10004C0390914D03A0914E03B0914F03019655
:101F2000A11DB11D80934C0390934D03A0934E03CC
:101F3000B0934F0381E08093490380914A039091CD
:101F40004B03892B29F0E0914A03F0914B0309954B
:101F5000FF91EF91BF91AF919F918F917F916F9181
:101F60005F914F913F912F910F900FBE0F901F9057
:101F700018951F921FB61F9211242F933F934F93D2
:101F80005F938F939F93EF93FF9386B597B52091BF
:101F90003203203021F0209134032030B9F09093A7
:101FA00038038093370381E0809332031092330328
:101FB00010923403FF91EF919F918F915F914F9118
:101FC0003F912F911F901FBE1F90189520913703AE
:101FD00030913803AC01421B530B9A0150933103EB
:101FE000409330039093380380933703E091360396
:101FF000F0E08091300390913103EE0FFF1FE75C1A
:10200000FC4F91838083809136038F5F80933603EA
:1020100080913603883010F01092360381E080936F
:102020003503C4CF1F921FB61F9211242F933F93E5
:102030004F935F938F939F93AF93BF93809133039D
:102040008F3F29F0809133038F5F8093330380911A
:102050003203803051F1809133032CB53DB540916E
:10206000370350913803B0E0A82F90E080E0841B44
:10207000950BA040B040820F931FA11DB11D883465
:10208000984EA140B04028F081E080933403109234
:102090003203BF91AF919F918F915F914F913F918B
:1020A0002F911F901FBE1F9018958091330382308F
:1020B00080F381E080933403ECCFA29FB001B39F03
:1020C000C001A39F700D811D1124911DB29F700D41
:1020D000811D1124911D0895AA1BBB1B51E107C04E
:1020E000AA1FBB1FA617B70710F0A61BB70B881FA8
:1020F000991F5A95A9F780959095BC01CD01089537
:1021000097FB072E16F4009407D077FD09D00E94A4
:102110006C1007FC05D03EF4909581959F4F089573
:10212000709561957F4F0895A1E21A2EAA1BBB1BE3
:10213000FD010DC0AA1FBB1FEE1FFF1FA217B30793
:10214000E407F50720F0A21BB30BE40BF50B661FA9
:10215000771F881F991F1A9469F76095709580956D
:1021600090959B01AC01BD01CF010895DC0101C038
:102170006D9341505040E0F708958D910190801982
:102180000110D9F3990B0895FB01DC010C94C810E0
:1021900001900D920020E1F70895FB01DC01415010
:1021A000504048F001900D920020C9F701C01D92E7
:1021B00041505040E0F70895AEE0B0E0E2EEF0E1CB
:1021C0000C949D1386E08C838B899C8989839A83E8
:1021D0008D899E89813020E8920710F080E090E898
:1021E00001978D839E83CE014996AC016F89788DCE
:1021F00048970E940E114D815E8157FD0BC0EF8103
:10220000F8854E175F070CF4FA012B893C89E20F21
:10221000F31F10822E96E2E00C94B913ABE0B0E00D
:10222000E4E1F1E10C9490135C016B017A01FC0193
:1022300016821782838181FFC9C1F5012381F601CE
:1022400023FD859123FF81916F01803009F429C11D
:10225000853239F423FD959123FF91916F019532D9
:1022600029F4B50190E00E94FF12E7CF30E0712C15
:10227000512C00E0003210F59B32C9F050F490323E
:10228000B9F09332C9F09E3269F506FD0AC10064C7
:1022900005C09D3279F0903399F40160F60123FD79
:1022A000959123FF91916F019111E4CF24C00260B9
:1022B0000460F4CF0860F2CF0061F0CF07FD1BC0CF
:1022C000892F80538A30F8F69AE006FF05C0799E80
:1022D000800D1124782EE2CF599E800D1124582EA6
:1022E0000062DCCF9C3611F40068D8CF9C3409F42E
:1022F00048C0983699F2892F8F7D8554833008F431
:1023000042C0933609F464C0933709F468C093352A
:1023100009F474C0943619F0993609F0A0C0F70199
:1023200007FF96C081919191A191B1917F010F76A4
:10233000B7FF08C0B095A095909581959F4FAF4F7E
:10234000BF4F00682AE030E04E014FEF841A940A34
:10235000A401BC01CD010E942F138819882E06FF0D
:10236000C1C0802F8E7F871408F0BBC004FF0CC152
:1023700002FD00C10E7E972C802F867809F4BDC027
:10238000FEC031E08BCF3030F9F088E0E80EF11C70
:102390008FE3898381E0682E712C4E018FEF881ABC
:1023A000980A0F7703FD03C065147104B8F1611436
:1023B0007604D9F5511409F440CFB50180E290E0DC
:1023C0000E94FF125A94F6CF84E0E80EF11CE0CF91
:1023D000F7018081898382E0E80EF11CDBCFF701F1
:1023E000819091907F01672D70E006FD02C06FEF34
:1023F0007FEFC4010E94F4123C01D3CFF70181901A
:1024000091907F01672D70E006FD02C06FEF7FEFB6
:10241000C4010E94E9123C010068C4CFB50180E20A
:1024200090E00E94FF125A94BFCFF40107FD8591FE
:1024300007FF81914F01B50190E00E94FF1281E0FA
:10244000511001C080E0581A81E0681A7108AFCFBE
:1024500081919191A92FAA0FAA0BBA2F67CF102FA4
:102460009537B9F41F7E2AE030E0F70117FF34C03A
:1024700061917191819191917F014E014FEF841A89
:10248000940AA4010E942F138819882E1F77012F08
:1024900066CF197F903799F058F4983599F09F36A8
:1024A000C1F0F501868197812B96EFE00C94AC1377
:1024B0009837B9F704FD04C020E130E0D6CF1061B1
:1024C0001460FACF04FF02C0102F166020E132E042
:1024D000CCCF28E030E0C9CF6191719180E090E0ED
:1024E000CBCF082F982C04FF47CFFE01E80DF11D3C
:1024F0008081803309F041C0097E03FD0CC000FFDC
:102500004FC0782C951418F4750C7918952C9514E7
:1025100008F048C0952C951408F044C0591804FFE1
:1025200043C0B50180E390E00E94FF1202FF09C0A2
:1025300088E590E001FD02C088E790E0B5010E94C7
:10254000FF128714E0F13E018FEF681A780A882D98
:1025500081504E0192E0890E911C880E911CF4016D
:1025600082914F01B50190E00E94FF1286149704FA
:10257000B1F720CF972C082FB8CF02FD02C093945B
:10258000BCCF93949394B9CF972C082FF5CEB50177
:1025900080E290E00E94FF1263946514C0F3B7CF0D
:1025A000692CFBCF512CBBCF802F867851F280E273
:1025B00001FD8BE207FD8DE2B50190E0C0CFB501D2
:1025C00080E390E00E94FF127A94BBCF8FEF9FEFE1
:1025D0006BCFFC010590615070400110D8F78095D9
:1025E00090958E0F9F1F0895FC01615070400190DF
:1025F0000110D8F7809590958E0F9F1F08950F9327
:102600001F93CF93DF93182F092FEB018B8181FD4F
:1026100009C00FEF1FEF812F902FDF91CF911F91F6
:102620000F91089582FF14C02E813F818C819D817E
:10263000281739073CF4E881F981CF010196888396
:10264000998310838E819F8101968E839F83E3CF30
:10265000E885F985812F0995892BA1F3DACFFA0155
:10266000AA27283051F1203181F1E8946F936E7FD1
:102670006E5F7F4F8F4F9F4FAF4FB1E03ED0B4E0C2
:102680003CD0670F781F891F9A1FA11D680F791F03
:102690008A1F911DA11D6A0F711D811D911DA11D14
:1026A00020D009F468943F912AE0269F1124301924
:1026B000305D3193DEF6CF010895462F4770405DBF
:1026C0004193B3E00FD0C9F7F6CF462F4F70405D6E
:1026D0004A3318F0495D31FD4052419302D0A9F7C9
:1026E000EACFB4E0A6959795879577956795BA95C3
:1026F000C9F700976105710508959B01AC010A2E89
:1027000006945795479537952795BA95C9F7620F5F
:10271000731F841F951FA01D08952F923F924F9203
:102720005F926F927F928F929F92AF92BF92CF9261
:10273000DF92EF92FF920F931F93CF93DF93CDB76A
:10274000DEB7CA1BDB0B0FB6F894DEBF0FBECDBFE2
:1027500009942A88398848885F846E847D848C84B3
:102760009B84AA84B984C884DF80EE80FD800C81BC
:102770001B81AA81B981CE0FD11D0FB6F894DEBF9F
:0C2780000FBECDBFED010895F894FFCF0F
:10278C00085354414E444259204D4F44452020207B
:10279C0020004D4F4E49544F52494E47204F46460C
:1027AC0020200048523A2D2D2D2053704F323A2DB7
:1027BC002D2D200048523A2D2D2D2053704F323A9A
:1027CC0031303025250048523A2D2D2D2053704F95
:1027DC00323A2532752525200048523A253375208A
:1027EC0053704F323A2D2D2D200048523A25337517
:1027FC002053704F323A31303025250048523A255B
:10280C0033752053704F323A25327525252000211F
:10281C00202041535953544F4C4520202021002156
:10282C0020204C454144204F4646202020210021A9
:10283C00202050524F4245204F4646202021002157
:10284C0020485220435249542048494748202100EF
:10285C00212048522043524954204C4F57202021CC
:10286C00002153504F322043524954204C4F572093
:10287C0021002152522043524954204849474820B4
:10288C00202100212052522043524954204C4F57B2
:10289C002020210021202054454D502048494748F4
:1028AC0020202021002120202054454D50204C4F29
:1028BC005720202021002120202042502048494729
:1028CC004820202020210021202020204250204C74
:1028DC004F572020202021002120485220484947D2
:1028EC0048205741524E20210021204852204C4F65
:1028FC0057205741524E202021002153504F322057
:10290C004C4F57205741524E2021002021414C4121
:10291C00524D2042414E4E455221200054253275D5
:10292C002E2575202533752F2532752052253275AD
:10293C0000536574204C6F773A00536574204869D6
:10294C0067683A003E00456469743A20004C3A00CE
:10295C00483A003F00010001000500010005004855
:10296C005200000053704F320054656D700052528B
:10297C0000000042500000000202020302040205A3
:02298C00020641
:00000001FF
