:100000000C942A000C94B6030C94E3030C94100493
:100010000C9447000C9447000C94CE020C944700BB
:100020000C9447000C9417030C948B020C9447001B
:100030000C9447000C9447000C9447000C94470024
:100040000C9447000C9447000C9447000C94470014
:100050000C94470011241FBECFE5D8E0DEBFCDBF12
:1000600010E0A0E6B0E0E0E5F3E102C005900D92FB
:10007000AC36B107D9F720E0ACE6B0E001C01D9284
:10008000AF3CB207E1F70E94CE080C94A6090C948D
:100090000000843008F06CC0683008F069C043305C
:1000A00008F066C021E030E0F90101C0EE0F6A956A
:1000B000EAF76E2F413028F560958230A1F0833049
:1000C000C9F0813039F08AB386238ABB8BB386238B
:1000D0008BBB06C087B3862387BB88B3862388BBC8
:1000E00080E090E0089584B3862384BB85B38623A3
:1000F00085BBF6CF81B3862381BB82B3862382BBC7
:10010000EFCFB1F4823061F0833071F0813021F0B3
:100110008AB38E2B8ABBE4CF87B38E2B87BBE0CF0D
:1001200084B38E2B84BBDCCF81B38E2B81BBD8CF25
:100130009E2F9095823081F08330A1F0813031F094
:100140008AB389238ABB8BB38E2BC2CF87B3892313
:1001500087BB88B38E2BC3CF84B3892384BB85B37D
:100160008E2BC6CF81B3892381BB82B38E2BC7CFA1
:1001700081E090E008958430C8F56830B8F54230E9
:10018000A8F521E030E0F90101C0EE0F6A95EAF729
:100190006E2F4130C1F4823061F0833081F08130C4
:1001A00021F08BB38E2B8BBB07C088B38E2B88BB03
:1001B00003C085B38E2B85BB80E090E0089582B3A9
:1001C0008E2B82BBF9CF6095823051F0833059F08D
:1001D000813019F08BB38623E6CF88B38623E7CF2F
:1001E00085B38623E8CF82B38623EBCF81E090E00E
:1001F0000895FA018430E0F46830D0F43097C1F00B
:10020000823091F0833091F0813061F089B390E0D9
:1002100002C0969587956A95E2F78170808380E0A9
:1002200090E0089586B3F3CF83B3F1CF80B3EFCFDF
:1002300081E090E00895843008F56830F8F421E01A
:1002400030E0A90101C0440F6A95EAF7823071F0ED
:10025000833081F0813031F08BB384278BBB80E019
:1002600090E0089588B3842788BBF9CF85B38427AD
:1002700085BBF5CF82B3842782BBF1CF81E090E0CC
:100280000895843080F4823051F0833051F0813011
:1002900021F06ABB80E090E0089567BBFBCF64BBB0
:1002A000F9CF61BBF7CF81E090E00895843080F40E
:1002B000823051F0833051F0813021F06BBB80E00F
:1002C00090E0089568BBFBCF65BBF9CF62BBF7CF69
:1002D00081E090E00895FB01843098F4309789F034
:1002E000823059F0833059F0813029F089B380830E
:1002F00080E090E0089586B3FACF83B3F8CF80B35F
:10030000F6CF81E090E00895CF93C82F81E090E090
:10031000C430E8F441E064E081E00E94490041E03B
:1003200065E081E00E94490040E066E081E00E94D3
:10033000490041E067E081E00E94490040E064E05C
:1003400081E00E94BB00C065CDB980E090E0CF9114
:1003500008958FB9779BFECF8FB10895CF93DF9328
:10036000EB01209741F00E94A901888380E090E092
:10037000DF91CF91089581E090E0FACFCF93DF93A2
:1003800000D0CDB7DEB789836A8341E00E9449007F
:1003900040E06A8189810E94BB0080E090E00F907C
:1003A0000F90DF91CF91089541E00E94BB0080E063
:1003B00090E0089513BE12BE8DE48CBF83B78860B1
:1003C00083BF83B7846083BF83B7816083BF89B7EE
:1003D000826089BF0895009729F0909386008093EA
:1003E00085000895109286001092850008959091DE
:1003F000840081E0911101C080E008951092840092
:1004000008951FBC1EBC8EB580688EBD8EB58064FD
:100410008EBD8EB584608EBD89B7806289BF89B775
:10042000846089BF80E090E0FC01EE0FFF1FEC5874
:10043000FF4F11821082019688309105A9F7109222
:10044000730010927200109271001092700010925E
:100450006F0010926E0010926D0010926C00089563
:1004600090916F0081E0913009F080E00895109242
:100470006F00109270000895883048F4E82FF0E083
:10048000EE0FFF1FEC58FF4F80819181089580E0AF
:1004900090E0089580917000089580917100089512
:1004A00090916E0081E0911101C080E0089510925A
:1004B0006E0010926D0010926C00089595B59B7FB0
:1004C00095BD95B59D7F95BD95B59E7F95BD8130B8
:1004D00049F481E883BD85B5826085BD85B58160BD
:1004E00085BD0895823029F481E683BD85B5846099
:1004F000F7CF833011F481E8F8CF13BC08958F9AB9
:1005000015BC14BC85B5886085BD85B5806185BD89
:1005100080E00C945E021F920F920FB60F9211248E
:100520002F933F934F935F936F937F938F939F93FB
:10053000AF93BF93EF93FF938091870090918800D2
:10054000A0918900B0918A000196A11DB11D8093F0
:10055000870090938800A0938900B0938A0081E07F
:10056000809384008091850090918600892B29F0EA
:10057000E0918500F09186000995FF91EF91BF9180
:10058000AF919F918F917F916F915F914F913F912B
:100590002F910F900FBE0F901F9018951F921FB6AE
:1005A0001F9211242F933F934F935F938F939F93A9
:1005B000EF93FF9386B597B5209172003091730049
:1005C000E0917100F0E0AC01421B530B9A01EE0F79
:1005D000FF1FEC58FF4F318320839093730080936B
:1005E0007200809171008F5F87708093710080919D
:1005F00070008830D0F4809170008F5F809370001D
:1006000081E080936F0010926D0010926C00109248
:100610006E00FF91EF919F918F915F914F913F916C
:100620002F911F901FBE1F90189588E0E7CF1F9253
:100630001FB61F9211248F939F9380916C0090910D
:100640006D00019690936D0080936C0080916C001A
:1006500090916D008230910518F081E080936E00DA
:100660009F918F911F901FBE1F901895789480E0E6
:1006700090E00895F89480E090E00895833068F465
:10068000813039F0823039F080E48ABF80E090E038
:10069000089580E8FACF80E2F8CF81E090E00895F5
:1006A000833008F56430F8F4813059F0823081F0FD
:1006B00095B79C7F962B95BF0E943E0380E090E00B
:1006C000089595B7937F660F660F692B65BFF4CFCA
:1006D000623021F494B79F7B94BFEECF633019F45E
:1006E00094B79064F9CF81E090E00895CF93C82F3C
:1006F00081E090E0C33060F48C2F0E943E038BB702
:10070000C13041F0C23041F080648BBF80E090E0A6
:10071000CF9108958068F9CF8062F7CF833080F45D
:10072000813041F0823049F08BB78F7B8BBF80E006
:1007300090E008958BB78F77F9CF8BB78F7DF6CF89
:1007400081E090E00895833070F46115710559F0EF
:10075000E82FF0E0EE0FFF1FE557FF4F7183608336
:1007600080E090E0089581E090E008951F920F925C
:100770000FB60F9211242F933F934F935F936F9374
:100780007F938F939F93AF93BF93EF93FF9380914A
:100790008B0090918C00892B29F0E0918B00F091D7
:1007A0008C000995FF91EF91BF91AF919F918F912F
:1007B0007F916F915F914F913F912F910F900FBE5D
:1007C0000F901F9018951F920F920FB60F92112441
:1007D0002F933F934F935F936F937F938F939F9349
:1007E000AF93BF93EF93FF9380918D0090918E0014
:1007F000892B29F0E0918D00F0918E000995FF91F1
:10080000EF91BF91AF919F918F917F916F915F9188
:100810004F913F912F910F900FBE0F901F90189501
:100820001F920F920FB60F9211242F933F934F9365
:100830005F936F937F938F939F93AF93BF93EF9348
:10084000FF9380918F0090919000892B29F0E09187
:100850008F00F09190000995FF91EF91BF91AF91BA
:100860009F918F917F916F915F914F913F912F91C8
:100870000F900FBE0F901F90189581E00E94840189
:1008800041E064E081E00E94490040E064E081E0F2
:100890000C94BB000E94A90141E064E081E00E9449
:1008A000BB0040E064E081E00C94BB0041E064E008
:1008B00083E00E94490040E064E083E00C94BB00C8
:1008C00041E064E083E00C94BB0040E064E083E03E
:1008D0000C94BB001092990010929800109297000F
:1008E00010929600109295001092940080919A00B8
:1008F000833019F481E00C945E0280919A0082307A
:10090000D1F380919A00813011F483E0F4CF83E039
:100910008093990080E0EFCF10929A0083E080935B
:1009200099001092980010929700109296001092E1
:1009300095001092940010929300109292001092E1
:1009400091000E947F0280E00C945E02843070F47B
:1009500090919A00981751F080939A00109291000C
:1009600010929300109292000C946A040895809162
:1009700091008115D1F08091920090919300892B84
:1009800049F0809192009091930001979093930089
:10099000809392008091920090919300892B09F0AE
:1009A000A4C0109291000C946A0480919A00811165
:1009B00006C00E945E0283E08093990008958091B2
:1009C0009A008330B9F180919A008230D9F58CED8C
:1009D00095E023E04FE050E064E170E0E0919400A6
:1009E000F0919500319649F0E0919400F0919500D6
:1009F0003196F0939500E093940030919900311175
:100A000029C080919600909197000196909397004D
:100A10008093960080919600909197008617970793
:100A200008F463C081E080939900109297001092BF
:100A300096004BC084EF91E02AE04AE050E06FE07E
:100A400070E0CCCF80E090E022E044E150E069E14A
:100A500070E0C4CF309199003130D9F58091960083
:100A600090919700019690939700809396008091C3
:100A700096009091970084179507B8F1809198009F
:100A80008F5F80939800809198008217B8F410923D
:100A90009900109297001092960080919A008330EE
:100AA00019F481E00C945E0280919A008230D1F3B7
:100AB00080919A008130C9F483E0F4CF80919A004C
:100AC000813029F483E08093990080E0EBCF82E0CD
:100AD000AACF209199002230C1F720919400309143
:100AE00095002817390708F05ECF089581E08093BC
:100AF000910080EE9EE2909393008093920080E0BC
:100B00000C945E0210929100109293001092920049
:100B10000C946A0441E060E081E00E94490041E0F9
:100B200061E081E00E94490041E062E081E00E94D2
:100B3000490041E063E081E00E94490040E060E05C
:100B400081E00E94BB0040E061E081E00E94BB00C8
:100B500040E062E081E00E94BB0040E063E081E0B1
:100B60000E94BB0010929E0010929D0010929C006B
:100B700010929B000895843050F490919E00981735
:100B800031F080939E0010929D0010929C00089579
:100B900085E080939B0041E063E081E00C94BB0022
:100BA00080919C0090919D00019690939D00809370
:100BB0009C0080919B00811571F080919B00815079
:100BC00080939B0080919B00811105C040E063E011
:100BD00081E00E94BB0080919E00823049F1833009
:100BE00071F08130E1F140E060E081E00E94BB0003
:100BF00040E061E081E00E94BB0040E03AC040E09C
:100C000061E081E00E94BB0040E062E081E00E9480
:100C1000BB0080919C0090919D0069E170E00E9472
:100C2000700941E060FD40E060E081E00C94BB00B1
:100C300040E060E081E00E94BB0040E062E081E0D3
:100C40000E94BB0080919C0090919D0063E570E044
:100C50000E94700941E060FD40E061E0E6CF40E0C5
:100C600060E00E94BB0040E061E081E00E94BB00C8
:100C700041E062E0DACF1092A5001092A400109239
:100C8000A3001092A2001092A1001092A000109256
:100C90009F001092B7001092B6001092B900109207
:100CA000B8001092BB001092BA0080E090E0FC0106
:100CB000EE0FFF1FEA55FF4F118210820196883018
:100CC0009105A9F70C940102009751F1E091A5005C
:100CD000F0E0EE0FFF1FEA54FF4F918380832091D5
:100CE000A5002F5F2093A5002091A500233010F0D0
:100CF0001092A500E091A400F0E0EE0FFF1FEA556E
:100D0000FF4F918380838091A4008F5F8093A40024
:100D10008091A400883010F01092A40010929F00DF
:100D20000895DF92EF92FF920F931F93CF93DF937B
:100D300000D000D000D0CDB7DEB70E9450028111A4
:100D400004C0D0909F00D114C9F01092A30010925B
:100D5000A2001092A1001092A00081E080939F0059
:100D60000F900F900F900F900F900F90DF91CF91F9
:100D70001F910F91FF90EF90DF9008950E94300235
:100D8000811569F00E944A02182F0E944D02082F17
:100D9000282F211B122F011324C00E9437027E012D
:100DA0008FEFE81AF80AE0E0F0E09F01DF01AA0FF8
:100DB000BB1FAA54BF4F0D911D91D7010D931D93D9
:100DC0007D0101151105A9F08091A50090E0029622
:100DD00063E070E00E9470098E179F0761F498012C
:100DE0000AC0812F87700E943C020E9464061F5F28
:100DF000D2CFDD24D3943196E330F105B9F6211535
:100E0000310591F0D11409F467C040E050E068E387
:100E10007CE98CE190E00E948409C9014E978D3DE8
:100E2000910510F020E030E03093A3002093A20061
:100E300040E050E0BA01CA01FA014F5F5F4FDA01AA
:100E4000AA0FBB1FAA55BF4F2D913D911297211597
:100E50003105E9F1EE0FFF1FEA55FF4F2081318187
:100E600021153105A1F12D913D911297008111813C
:100E70002017310708F448C00D90BC91A02D2081A7
:100E80003181FD01E21BF30B9F01620F731F811D76
:100E9000911D4730510581F627E030E040E050E0F9
:100EA0000E948409B901CA0125E0660F771F881FD7
:100EB000991F2A95D1F72FEF3FEF883EB3E09B07AC
:100EC00030F428EE33E040E050E00E948409309393
:100ED000A1002093A00044CF49815A818B819C813D
:100EE0008417950728F0342F252FAC01832F922FDC
:100EF0002D813E814217530708F49A0128173907BC
:100F000008F083CF9C0181CF0190F081E02D2D91DD
:100F10003D91DF01A21BB30B9D01B7CF0E94500290
:100F2000811539F081E080939F001092A300109208
:100F3000A20008958091A2009091A300089580914D
:100F4000A0009091A10008950E945002811107C055
:100F500090919F0081E0911103C080E0089581E0AD
:100F6000089510929F000C9457021092BF001092A7
:100F7000C0001092C1001092C2001092BD001092E9
:100F8000BE001092BC000E948A050E9456040C9478
:100F90003D04FC01892B39F09CE0A3ECB0E001900A
:100FA0000D929A95E1F70895CF92DF92EF92FF921A
:100FB0008091C3009091C400009709F494C08739D0
:100FC000910508F095C0E12CF12C6701C3949C01B8
:100FD000215031092732310508F0C12C43E0CC0CF7
:100FE000DD1CEE1CFF1C4A95D1F72091C5003FEF98
:100FF000320F343510F46894C4F83091C60034329E
:1010000008F47CC06894C5F8AC01495751094E31C9
:10101000510508F07AC06894C7F82555253010F4BA
:101020006894D1F88091C7009091C800823821E07F
:10103000920708F471C06894D2F88091C900909129
:10104000CA008D38910508F46FC06894D4F8809177
:10105000CD00811102C06894D6F88091CE00811134
:1010600002C06894D7F88C2D8F7790E0A0E0B0E0B4
:1010700010979040804009F05FC0C60180789F7350
:10108000A0E0B0E0892B8A2B8B2B09F057C021E020
:101090009D2DAE2D80E0907CA170B0E0892B8A2B35
:1010A0008B2B09F420E0822F90E0C092BF00D092F9
:1010B000C000E092C100F092C2008093BD00109287
:1010C000BE002091BC002115E1F10397E1F180E021
:1010D0000E94BB050E9465048C2DFF90EF90DF906D
:1010E000CF900C944A04E12CF12C6701C3947DCF7E
:1010F00024E0C22ED12CE12CF12C77CF31503730A7
:1011000008F082CF6894C6F87FCF88970A9708F0D6
:1011100084CF6894D0F881CF01978D35914008F045
:101120008CCF6894D3F889CF01978935910508F061
:101130008ECF6894D5F88BCF83E0B7CF82E090E074
:10114000B4CF039791F41092BC000E946004809188
:10115000BD009091BE008230910571F08330910501
:1011600039F0019759F080E004C00E946504EFCF88
:1011700083E00E94BB05B0CF82E0FBCF81E0F9CFD6
:101180008091BD009091BE0008958091BF00909124
:10119000C000089581E08093BC000895CDB7DEB70C
:1011A0002C970FB6F894DEBF0FBECDBF41E067E0CD
:1011B00082E00E94490040E067E082E00E94BB00BC
:1011C0000E94DA010E943B060E943D040E945604E0
:1011D0000E948C040E948A050E94B50782E00E944A
:1011E000A60483E00E94BB050E9460048FEF0E946A
:1011F0004A040E94360300E010E00E94F7018115C6
:10120000E1F30E94FE010F5F1F4F0E94B7040E948E
:10121000D0050233110519F40E947605EECF0C3289
:1012200081E0180751F70E943A030E948C040E9443
:101230008A050E94650480E00E944A0480E00E94C2
:10124000A60480E00E94BB050E9465040E94B107CD
:101250000E94FE010E94360300E010E00E94F701A8
:101260008115E1F30E94FE0141E067E082E00E9407
:10127000BB00C8016AE070E00E947009039711F496
:101280000E94D407C80162E370E00E9470090497CD
:1012900011F40E949106C80164E670E00E94700992
:1012A000069769F48CE0E0E6F0E0DE01119601902B
:1012B0000D928A95E1F7CE0101960E94C9070E941E
:1012C000B7040E94D00540E067E082E00E94BB00C6
:1012D0000F5F1F4F083E83E0180709F0BFCFBCCF58
:1012E000AA1BBB1B51E107C0AA1FBB1FA617B7074C
:1012F00010F0A61BB70B881F991F5A95A9F7809568
:101300009095BC01CD010895A1E21A2EAA1BBB1B2A
:10131000FD010DC0AA1FBB1FEE1FFF1FA217B307C1
:10132000E407F50720F0A21BB30BE40BF50B661FD7
:10133000771F881F991F1A9469F76095709580959B
:1013400090959B01AC01BD01CF010895F894FFCFAA
:0C135000A0005212720178005000010150
:00000001FF
