:100000000C942A000C9434000C9434000C943400AA
:100010000C9434000C9434000C9434000C94340090
:100020000C9434000C9434000C9434000C94340080
:100030000C9434000C9434000C9434000C94340070
:100040000C9434000C9434000C9434000C94340060
:100050000C94340011241FBECFE5D8E0DEBFCDBF25
:100060000E9420020C944D020C9400008430C8F4CD
:100070006830B8F44330A8F421E001C0220F6A953B
:10008000EAF7413088F420958230C1F18330E9F1FC
:100090008130E1F08AB382238ABB8BB382238BBB8E
:1000A00012C081E090E00895F9F0922F909582308F
:1000B00099F1833091F08130B1F18AB389238ABB01
:1000C0008BB3822B8BBB80E090E0089587B38223B3
:1000D00087BB88B3822388BBF6CF81B3892381BBDA
:1000E00082B3822B82BBEFCF823061F1833031F15A
:1000F000813001F18AB3822B8ABBE5CF84B382239E
:1001000084BB85B3822385BBDECF81B3822381BBD1
:1001100082B3822382BBD7CF84B3892384BB85B3C8
:10012000822B85BBD0CF87B3892387BB88B3822B33
:1001300088BBC9CF87B3822B87BBC5CF81B3822B46
:1001400081BBC1CF84B3822B84BBBDCF8430B0F4DC
:100150006830A0F4423090F421E001C0220F6A958B
:10016000EAF7413071F02095823019F18330E9F0DF
:10017000813099F08BB382238BBB0CC081E090E07F
:1001800008958230D1F0833061F08130D1F08BB3AB
:10019000822B8BBB80E090E0089588B3822388BBDC
:1001A000F9CF82B3822B82BBF5CF82B3822382BB8D
:1001B000F1CF85B3822385BBEDCF85B3822B85BB81
:1001C000E9CF88B3822B88BBE5CF8430C0F4683098
:1001D000B0F44115510599F08230B1F0833091F0BF
:1001E0008130A1F089B390E002C0969587956A9519
:1001F000E2F78170FA01808380E090E0089581E069
:1002000090E0089580B3EFCF83B3EDCF86B3EBCF0B
:10021000843098F4683088F421E001C0220F6A9598
:10022000EAF78230C9F0833089F0813049F488B32D
:10023000822788BB80E090E0089581E090E00895F7
:100240008BB382278BBB80E090E0089582B3822736
:1002500082BB80E090E0089585B3822785BB80E073
:1002600090E00895843050F4823079F0833089F042
:10027000813039F467BB80E090E0089581E090E040
:1002800008956ABB80E090E0089564BB80E090E050
:10029000089561BB80E090E00895843050F482308E
:1002A00079F0833089F0813039F468BB80E090E0E8
:1002B000089581E090E008956BBB80E090E00895A0
:1002C00065BB80E090E0089562BB80E090E0089517
:1002D000843078F46115710561F0823099F08330D3
:1002E000B9F0813049F486B3FB01808380E090E06F
:1002F000089581E090E0089589B3FB01808380E058
:1003000090E0089583B3FB01808380E090E008953E
:1003100080B3FB01808380E090E00895CF93DF936A
:100320000F92CDB7DEB78983843030F081E090E062
:100330000F90DF91CF91089541E064E081E00E9449
:10034000360041E065E081E00E94360040E066E072
:1003500081E00E94360041E067E081E00E943600C3
:1003600041E064E081E00E94A600898180658DB94A
:1003700080E090E00F90DF91CF9108958FB9779B47
:10038000FECF8FB108956115710549F08FB9779B44
:10039000FECF8FB1FB01808380E090E0089581E083
:1003A00090E00895CF93DF9300D0CDB7DEB7898377
:1003B0006A8341E00E94360040E06A8189810E94A0
:1003C000A60080E090E00F900F90DF91CF9108950C
:1003D00041E00E94A60080E090E0089581E00E9444
:1003E0008E0141E064E081E00E94360041E064E07B
:1003F00081E00C94A6000E94BE0140E064E081E030
:100400000E94A60041E064E081E00E94A60040E076
:1004100064E081E00C94A60041E064E083E00E9487
:10042000360040E064E083E00C94A60041E064E024
:1004300083E00C94A60040E064E083E00C94A60006
:100440000E94EE010E940C028FEF0E94FB010E94AD
:10045000160280E291EAA7E0B0E000000197A04018
:10046000B040D9F780E00E94FB010E941B0280E2AD
:1004700091EAA7E0B0E000000197A040B040D9F7B2
:100480008AEA0E94FB0180E291EAA7E0B0E0000066
:0E0490000197A040B040D9F7D7CFF894FFCF26
:00000001FF
