:100000000C942A000C94AB030C94D8030C940504B4
:100010000C943C000C943C000C94C3020C943C00E7
:100020000C943C000C940C030C9480020C943C0047
:100030000C943C000C943C000C943C000C943C0050
:100040000C943C000C943C000C943C000C943C0040
:100050000C943C0011241FBECFE5D8E0DEBFCDBF1D
:1000600020E0A0E6B0E001C01D92A03BB207E1F79E
:100070000E94AA070C9458080C940000843008F0E1
:100080006CC0683008F069C0433008F066C021E0F9
:1000900030E0F90101C0EE0F6A95EAF76E2F4130AA
:1000A00028F560958230A1F08330C9F0813039F0B5
:1000B0008AB386238ABB8BB386238BBB06C087B3E8
:1000C000862387BB88B3862388BB80E090E00895B1
:1000D00084B3862384BB85B3862385BBF6CF81B3E7
:1000E000862381BB82B3862382BBEFCFB1F48230FB
:1000F00061F0833071F0813021F08AB38E2B8ABB9E
:10010000E4CF87B38E2B87BBE0CF84B38E2B84BB29
:10011000DCCF81B38E2B81BBD8CF9E2F90958230C0
:1001200081F08330A1F0813031F08AB389238ABB1A
:100130008BB38E2BC2CF87B3892387BB88B38E2B1B
:10014000C3CF84B3892384BB85B38E2BC6CF81B341
:10015000892381BB82B38E2BC7CF81E090E00895C5
:100160008430C8F56830B8F54230A8F521E030E0B9
:10017000F90101C0EE0F6A95EAF76E2F4130C1F424
:10018000823061F0833081F0813021F08BB38E2B8F
:100190008BBB07C088B38E2B88BB03C085B38E2B67
:1001A00085BB80E090E0089582B38E2B82BBF9CFAF
:1001B0006095823051F0833059F0813019F08BB363
:1001C0008623E6CF88B38623E7CF85B38623E8CF9F
:1001D00082B38623EBCF81E090E00895FA0184306A
:1001E000E0F46830D0F43097C1F0823091F0833081
:1001F00091F0813061F089B390E002C096958795C7
:100200006A95E2F78170808380E090E0089586B37C
:10021000F3CF83B3F1CF80B3EFCF81E090E00895C7
:10022000843008F56830F8F421E030E0A90101C01D
:10023000440F6A95EAF7823071F0833081F08130A3
:1002400031F08BB384278BBB80E090E0089588B3B6
:10025000842788BBF9CF85B3842785BBF5CF82B3CC
:10026000842782BBF1CF81E090E00895843080F450
:10027000823051F0833051F0813021F06ABB80E050
:1002800090E0089567BBFBCF64BBF9CF61BBF7CFAC
:1002900081E090E00895843080F4823051F0833022
:1002A00051F0813021F06BBB80E090E0089568BB95
:1002B000FBCF65BBF9CF62BBF7CF81E090E008953B
:1002C000FB01843098F4309789F0823059F0833004
:1002D00059F0813029F089B3808380E090E008955F
:1002E00086B3FACF83B3F8CF80B3F6CF81E090E046
:1002F0000895CF93C82F81E090E0C430E8F441E046
:1003000064E081E00E943E0041E065E081E00E94FF
:100310003E0040E066E081E00E943E0041E067E090
:1003200081E00E943E0040E064E081E00E94B00075
:10033000C065CDB980E090E0CF9108958FB9779BEB
:10034000FECF8FB10895CF93DF93EB01209741F05B
:100350000E949E01888380E090E0DF91CF91089514
:1003600081E090E0FACFCF93DF9300D0CDB7DEB736
:1003700089836A8341E00E943E0040E06A8189816E
:100380000E94B00080E090E00F900F90DF91CF913D
:10039000089541E00E94B00080E090E0089513BE0F
:1003A00012BE8DE48CBF83B7886083BF83B784603F
:1003B00083BF83B7816083BF89B7826089BF089597
:1003C000009729F090937A00809379000895109215
:1003D0007A001092790008959091780081E091114F
:1003E00001C080E008951092780008951FBC1EBCE3
:1003F0008EB580688EBD8EB580648EBD8EB58460EE
:100400008EBD89B7806289BF89B7846089BF80E06B
:1004100090E0FC01EE0FFF1FE859FF4F11821082A0
:10042000019688309105A9F7109267001092660036
:1004300010926500109264001092630010926200A6
:10044000109261001092600008959091630081E025
:10045000913009F080E008951092630010926400DA
:100460000895883048F4E82FF0E0EE0FFF1FE859B8
:10047000FF4F80819181089580E090E00895809100
:10048000640008958091650008959091620081E074
:10049000911101C080E008951092620010926100F5
:1004A00010926000089595B59B7F95BD95B59D7F91
:1004B00095BD95B59E7F95BD813049F481E883BD9A
:1004C00085B5826085BD85B5816085BD0895823022
:1004D00029F481E683BD85B58460F7CF833011F4BC
:1004E00081E8F8CF13BC08958F9A15BC14BC85B56C
:1004F000886085BD85B5806185BD80E00C94530220
:100500001F920F920FB60F9211242F933F934F9388
:100510005F936F937F938F939F93AF93BF93EF936B
:10052000FF9380917B0090917C00A0917D00B09121
:100530007E000196A11DB11D80937B0090937C00ED
:10054000A0937D00B0937E0081E08093780080913D
:10055000790090917A00892B29F0E0917900F0914F
:100560007A000995FF91EF91BF91AF919F918F9183
:100570007F916F915F914F913F912F910F900FBE9F
:100580000F901F9018951F921FB61F9211242F9342
:100590003F934F935F938F939F93EF93FF9386B512
:1005A00097B52091660030916700E0916500F0E01A
:1005B000AC01421B530B9A01EE0FFF1FE859FF4F8E
:1005C000318320839093670080936600809165005B
:1005D0008F5F877080936500809164008830D0F4CD
:1005E000809164008F5F8093640081E0809363005A
:1005F000109261001092600010926200FF91EF91E2
:100600009F918F915F914F913F912F911F901FBEAE
:100610001F90189588E0E7CF1F921FB61F921124F4
:100620008F939F93809160009091610001969093C9
:100630006100809360008091600090916100823041
:10064000910518F081E0809362009F918F911F9037
:100650001FBE1F901895789480E090E00895F8945C
:1006600080E090E00895833068F4813039F0823082
:1006700039F080E48ABF80E090E0089580E8FACF06
:1006800080E2F8CF81E090E00895833008F564308F
:10069000F8F4813059F0823081F095B79C7F962B29
:1006A00095BF0E94330380E090E0089595B7937F53
:1006B000660F660F692B65BFF4CF623021F494B7E3
:1006C0009F7B94BFEECF633019F494B79064F9CF59
:1006D00081E090E00895CF93C82F81E090E0C3308F
:1006E00060F48C2F0E9433038BB7C13041F0C230CD
:1006F00041F080648BBF80E090E0CF9108958068E6
:10070000F9CF8062F7CF833080F4813041F08230BE
:1007100049F08BB78F7B8BBF80E090E008958BB75B
:100720008F77F9CF8BB78F7DF6CF81E090E008957A
:10073000833070F46115710559F0E82FF0E0EE0F89
:10074000FF1FE158FF4F7183608380E090E00895C0
:1007500081E090E008951F920F920FB60F9211243E
:100760002F933F934F935F936F937F938F939F93B9
:10077000AF93BF93EF93FF9380917F0090918000A0
:10078000892B29F0E0917F00F09180000995FF917D
:10079000EF91BF91AF919F918F917F916F915F91F9
:1007A0004F913F912F910F900FBE0F901F90189572
:1007B0001F920F920FB60F9211242F933F934F93D6
:1007C0005F936F937F938F939F93AF93BF93EF93B9
:1007D000FF938091810090918200892B29F0E09114
:1007E0008100F09182000995FF91EF91BF91AF9147
:1007F0009F918F917F916F915F914F913F912F9139
:100800000F900FBE0F901F9018951F920F920FB66A
:100810000F9211242F933F934F935F936F937F9386
:100820008F939F93AF93BF93EF93FF938091830038
:1008300090918400892B29F0E0918300F09184004D
:100840000995FF91EF91BF91AF919F918F917F910A
:100850006F915F914F913F912F910F900FBE0F902D
:100860001F90189581E00E94790141E064E081E0E9
:100870000E943E0040E064E081E00C94B0000E94E1
:100880009E0141E064E081E00E94B00040E064E04D
:1008900081E00C94B00041E064E083E00E943E00FF
:1008A00040E064E083E00C94B00041E064E083E069
:1008B0000C94B00040E064E083E00C94B00010922F
:1008C0008D0010928C0010928B0010928A00109272
:1008D00089001092880080918E00833019F481E0A5
:1008E0000C94530280918E008230D1F380918E005F
:1008F000813011F483E0F4CF83E080938D0080E0B9
:10090000EFCF10928E0083E080938D0010928C00C8
:1009100010928B0010928A00109289001092880029
:100920001092870010928600109285000E94740237
:1009300080E00C945302843070F490918E009817EC
:1009400051F080938E0010928500109287001092D3
:1009500086000C945F040895809185008115D1F084
:100960008091860090918700892B49F080918600C4
:1009700090918700019790938700809386008091E3
:10098000860090918700892B09F0A4C01092850001
:100990000C945F0480918E00811106C00E94530266
:1009A00083E080938D00089580918E008330B9F1AB
:1009B00080918E008230D9F58CED95E023E04FE0F8
:1009C00050E064E170E0E0918800F0918900319698
:1009D00049F0E0918800F09189003196F093890008
:1009E000E093880030918D00311129C080918A00F8
:1009F00090918B00019690938B0080938A00809158
:100A00008A0090918B008617970708F463C081E0F5
:100A100080938D0010928B0010928A004BC084EF5F
:100A200091E02AE04AE050E06FE070E0CCCF80E057
:100A300090E022E044E150E069E170E0C4CF309101
:100A40008D003130D9F580918A0090918B0001960C
:100A500090938B0080938A0080918A0090918B0004
:100A600084179507B8F180918C008F5F80938C007C
:100A700080918C008217B8F410928D0010928B0038
:100A800010928A0080918E00833019F481E00C94DA
:100A9000530280918E008230D1F380918E0081309C
:100AA000C9F483E0F4CF80918E00813029F483E093
:100AB00080938D0080E0EBCF82E0AACF20918D0063
:100AC0002230C1F72091880030918900281739071A
:100AD00008F05ECF089581E08093850080EE9EE26D
:100AE000909387008093860080E00C9453021092CC
:100AF000850010928700109286000C945F0441E0FC
:100B000060E081E00E943E0041E061E081E00E94FF
:100B10003E0041E062E081E00E943E0041E063E08F
:100B200081E00E943E0040E060E081E00E94B00071
:100B300040E061E081E00E94B00040E062E081E0DE
:100B40000E94B00040E063E081E00E94B00010929B
:100B50009200109291001092900010928F000895D0
:100B6000843050F490919200981731F08093920065
:100B70001092910010929000089585E080938F006C
:100B800041E063E081E00C94B0008091900090918E
:100B900091000196909391008093900080918F0036
:100BA000811571F080918F00815080938F0080912A
:100BB0008F00811105C040E063E081E00E94B00039
:100BC00080919200823049F1833071F08130E1F1FF
:100BD00040E060E081E00E94B00040E061E081E040
:100BE0000E94B00040E03AC040E061E081E00E9435
:100BF000B00040E062E081E00E94B000809190008F
:100C00009091910069E170E00E94220841E060FD4E
:100C100040E060E081E00C94B00040E060E081E002
:100C20000E94B00040E062E081E00E94B00080914C
:100C300090009091910063E570E00E94220841E0ED
:100C400060FD40E061E0E6CF40E060E00E94B0007F
:100C500040E061E081E00E94B00041E062E0DACF74
:100C6000109299001092980010929700109296009E
:100C70001092950010929400109293001092AB0085
:100C80001092AA001092AD001092AC001092AF002A
:100C90001092AE0080E090E0FC01EE0FFF1FE656E0
:100CA000FF4F11821082019688309105A9F70C94AC
:100CB000F601009751F1E0919900F0E0EE0FFF1F6F
:100CC000E655FF4F91838083209199002F5F2093F9
:100CD000990020919900233010F010929900E09132
:100CE0009800F0E0EE0FFF1FE656FF4F91838083E0
:100CF000809198008F5F8093980080919800883051
:100D000010F010929800109293000895DF92EF92E5
:100D1000FF920F931F93CF93DF9300D000D000D0AA
:100D2000CDB7DEB70E944502811104C0D090930078
:100D3000D114C9F01092970010929600109295006D
:100D40001092940081E0809393000F900F900F9089
:100D50000F900F900F90DF91CF911F910F91FF9007
:100D6000EF90DF9008950E942502811569F00E949E
:100D70003F02182F0E944202082F282F211B122FFA
:100D8000011324C00E942C027E018FEFE81AF80A9A
:100D9000E0E0F0E09F01DF01AA0FBB1FA655BF4FA7
:100DA0000D911D91D7010D931D937D010115110525
:100DB000A9F08091990090E0029663E070E00E94B3
:100DC00022088E179F0761F498010AC0812F87704F
:100DD0000E9431020E9459061F5FD2CFDD24D394B6
:100DE0003196E330F105B9F62115310591F0D114B2
:100DF00009F467C040E050E068E37CE98CE190E0F2
:100E00000E943608C9014E978D3D910510F020E0F3
:100E100030E0309397002093960040E050E0BA0114
:100E2000CA01FA014F5F5F4FDA01AA0FBB1FA65636
:100E3000BF4F2D913D91129721153105E9F1EE0F2C
:100E4000FF1FE656FF4F2081318121153105A1F1A9
:100E50002D913D911297008111812017310708F4DF
:100E600048C00D90BC91A02D20813181FD01E21B75
:100E7000F30B9F01620F731F811D911D47305105B8
:100E800081F627E030E040E050E00E943608B901EA
:100E9000CA0125E0660F771F881F991F2A95D1F791
:100EA0002FEF3FEF883EB3E09B0730F428EE33E0AE
:100EB00040E050E00E943608309395002093940063
:100EC00044CF49815A818B819C818417950728F0F2
:100ED000342F252FAC01832F922F2D813E81421775
:100EE000530708F49A012817390708F083CF9C01AB
:100EF00081CF0190F081E02D2D913D91DF01A21B6A
:100F0000B30B9D01B7CF0E944502811539F081E0F6
:100F1000809393001092970010929600089580910C
:100F2000960090919700089580919400909195007B
:100F300008950E944502811107C09091930081E0BD
:100F4000911103C080E0089581E00895109293000C
:100F50000C944C0241E067E082E00E943E0040E0D9
:100F600067E082E00E94B0000E94CF010E9430063C
:100F70000E9432040E944B040E9481040E947F055B
:100F800082E00E949B0483E00E94B0050E94550409
:100F90008FEF0E943F040E942B03C0E0D0E00E942C
:100FA000EC018115E1F30E94F30121960E94AC044B
:100FB0000E94C505C233D10519F40E946B05EFCF1D
:100FC000CC3281E0D80759F70E942F030E94810498
:100FD0000E947F050E945A0480E00E943F0480E046
:100FE0000E949B0480E00E94B0050E945A040E9467
:100FF000A6070E94F3010E942B03C0E0D0E00E94EC
:10100000EC018115E1F30E94F30141E067E082E029
:101010000E94B000CE0162E370E00E9422080497B3
:1010200011F40E9486060E94AC040E94C50540E0AF
:1010300067E082E00E94B0002196C83E83E0D807B6
:10104000F1F6DBCFAA1BBB1B51E107C0AA1FBB1FD8
:10105000A617B70710F0A61BB70B881F991F5A9544
:10106000A9F780959095BC01CD010895A1E21A2EB3
:10107000AA1BBB1BFD010DC0AA1FBB1FEE1FFF1F3C
:10108000A217B307E407F50720F0A21BB30BE40B8C
:10109000F50B661F771F881F991F1A9469F76095D3
:1010A0007095809590959B01AC01BD01CF0108958D
:0410B000F894FFCFE2
:00000001FF
