:100000000C9448000C94A7130C94D4130C94011472
:100010000C94E7150C9465000C94A9150C946500DC
:100020000C9465000C94CF150C9466150C94650027
:100030000C9465000C9465000C9465000C946500AC
:100040000C9465000C9465000C9465000C9465009C
:100050000C946500320078005A0064005E017C0157
:1000600008001E005A00A000460096005C006400D4
:1000700063017C010F002800500082006400BE0074
:10008000580062006801770119003C0037005A00EF
:1000900011241FBECFE5D8E0DEBFCDBF12E0A0E641
:1000A000B0E0EAE8F3E302C005900D92A436B10790
:1000B000D9F725E0A4E6B2E001C01D92AE32B20746
:1000C000E1F70E9428010C94C3190C940000CF9210
:1000D000DF92EF92FF920F931F93CF93DF93CDB7F1
:1000E000DEB7A8970FB6F894DEBF0FBECDBF8E0166
:1000F0000F5F1F4F88E1F80111928A95E9F781E0BF
:1001000088A78FA38EA3AE01485D5F4F63E083E0B5
:100110000E94F712AE01495D5F4F65E083E00E94E7
:10012000F712AE014A5D5F4F62E083E00E94F71272
:10013000F8A4CFA0DEA0C8010E94C30D892B09F04E
:100140006BC0F11078C010E000E080E00E940E0863
:10015000009761F0FC0111830083FF2021F021E072
:100160000115110509F420E0FC012283EE24E3943B
:10017000C11001C0E12C81E00E940E08009731F00F
:100180002D8130E0FC0131832083E28282E00E94F5
:100190000E08009739F02E813F81FC0131832083C6
:1001A00021E0228383E00E940E08009739F02A851F
:1001B00030E0FC013183208321E0228384E00E942F
:1001C0000E08009739F0288530E0FC013183208348
:1001D00021E022830E941A081A8F098F8D818B8F4C
:1001E0008A858C8F8E819F819E8F8D8F888590E0F0
:1001F00098A38F8F898590E09AA389A3EBA281E0D1
:10020000F11001C080E08CA381E0D11080E08DA3CB
:10021000CE0149960E94700EA8960FB6F894DEBFE4
:100220000FBECDBFDF91CF911F910F91FF90EF9047
:10023000DF90CF90089580916902882309F483CFDD
:100240000E94DC0A81117FCF0E94D70A8C017DCFEA
:10025000CF93DF93CDB7DEB7C054D1090FB6F89472
:10026000DEBF0FBECDBF41E067E082E00E944A12D0
:1002700040E067E082E00E94BB1241E067E083E07B
:100280000E944A1242E062E083E00E944A1242E089
:1002900063E083E00E944A1242E065E083E00E944E
:1002A0004A1240E066E083E00E944A120E949814DD
:1002B0000E94750A0E94BF0D0E94A60D0E94CC0CE0
:1002C0000E94CC080E94C2090E94E00C0E94D9073B
:1002D0000E94AF100E9423100E94851160EA76E808
:1002E00081E090E00E9419130E945A0C0E94D806E7
:1002F00060E875E280E090E00E94F61541E060E081
:1003000081E00E94BB1241E061E081E00E94BB12EB
:1003100041E062E081E00E94BB1241E063E081E0E5
:100320000E94BB120E94D60C8FEF0E94B30D82E098
:100330000E94E60881E690E00E94301660E080E0CE
:100340000E94AB0C8CE790E00E94B80C60E081E06A
:100350000E94AB0C8DE890E00E94B80C2FEF80E774
:1003600092E0215080409040E1F700C000000E94E0
:10037000B609AFEFB1EEE4E0A150B040E040E1F7E4
:1003800000C0000040E060E081E00E94BB1240E05D
:1003900061E081E00E94BB1240E062E081E00E94E7
:1003A000BB1240E063E081E00E94BB120E94DB0CC4
:1003B00080E00E94B30D0E94CC080E94C2090E94F6
:1003C000C10B0E94A10C8EE990E00E9430160E94A1
:1003D0009F130E94C10B0E94A9148FEF88BF0E9437
:1003E00067000E947B0E0E94E30610E000E0CE0151
:1003F00001962C018AE0282E312C41E067E082E052
:100400000E94BB121982A20166E083E00E94F712EB
:1004100080916702811114C08981882389F041E0AD
:1004200063E081E00E94BB1295E09093660281E058
:10043000809369020E94C10B1092650210926402BF
:100440008981809367028091640290916502019690
:1004500090936502809364028139914010F010926C
:10046000690280916602882351F081508093660270
:10047000811105C040E063E081E00E94BB120E9450
:10048000171581110E94000A0E94E90A0E94290D95
:100490000E949A0DF82E00FD0E942F10C80165E001
:1004A00070E00E945A16029711F0FF20B1F080E030
:1004B0000E948F0D81110E94B60F84E00E948F0D63
:1004C00081110E944F110E94A807882331F082E019
:1004D0000E948F0D83E00E948F0DC801B1010E9420
:1004E0005A16039711F40E947B0EC80169E170E06F
:1004F0000E945A16059731F0FF2049F0809168025A
:10050000811105C00E94E306B5E0B09368028091B6
:100510006802882319F0815080936802C80162E361
:1005200070E00E945A16049711F40E946700C801F7
:1005300068EC70E00E945A16079709F083C080E0CB
:100540000E940E085C0181E00E940E086C0182E0AE
:100550000E940E084C0183E00E940E087C0184E09A
:100560000E940E083C010E94B10FA114B10409F4CD
:100570008DC0F5012281222309F488C04081E181E8
:10058000C114D10409F485C0D60112962C9112979A
:10059000222309F47EC0FC911196DC908114910411
:1005A00009F47AC0D40112962C911297222309F4EF
:1005B00073C02D913C91E114F10409F470C0D7018E
:1005C00012965C911297552309F469C05C911196BB
:1005D0006C916114710409F465C0D30112967C9189
:1005E0001297772309F45EC07C911196FC909F933B
:1005F0008F93FF927F936F935F93C901B1010E9424
:100600006E1697FF03C09195819591099F938F93E3
:10061000C901B1010E946E167F936F93DF92FF9321
:10062000EF934F93E6EBF0E0FF93EF935F924F92DF
:100630000E94EB16C2010E9430160FB6F894DEBF7E
:100640000FBECDBFC80168EE73E00E945A1608972E
:1006500011F40E9499110E94C9100E94F7080E948B
:10066000080A40E067E082E00E94BB12AFE1BEE40E
:100670001197F1F700C000000F5F1F4F083EB3E075
:100680001B0708F4BACE10E000E0B7CE40E0E0E08F
:1006900077CFF0E0D12C82CF30E020E08CCF50E05B
:1006A00060E097CF70E0F12CA2CFFC01E60FF11DC6
:1006B000DA019D91AD01992311F0603109F408959B
:1006C0006F5F9193F5CFEF92FF920F931F93CF93AC
:1006D000DF93FB0120E097FF06C02DE22083919578
:1006E0008195910921E0C22FD0E0322F5AE0E52E0A
:1006F000F12C009789F431E0320FCE0FDF1F80E339
:100700008883E30FF11D1082832FDF91CF911F911A
:100710000F91FF90EF900895A32FB0E08F010A0F83
:100720001B1F65E070E0463011F066E070E0A61730
:10073000B70750F43F5FB7010E945A16805DD80199
:100740008C93CB01009741F7832F90E0DF01A80F36
:10075000B91F1C928C1B9D0B969587958C0F9D1F26
:10076000622F630FA22FB0E02F5FA817B90760F6C2
:10077000AE0FBF1F4C91C62FC21BCE0FDF2FD11D56
:1007800058815C934883EECFFF920F931F93CF93D2
:10079000DF9300D000D000D01F92CDB7DEB78C0120
:1007A000F62ECA0147E0BE016F5F7F4F0E946303D0
:1007B000AE014F5F5F4F6F2DC8010E945503279612
:1007C0000FB6F894DEBF0FBECDBFDF91CF911F9162
:1007D0000F91FF900895CF92DF92EF92FF92CF9307
:1007E000DF93CDB7DEB761970FB6F894DEBF0FBECB
:1007F000CDBF40E150E060E270E0CE0101960E9482
:10080000B316198A46ED50E060E0CE0101960E94D1
:10081000550380916D020E949008AC0166E0CE0104
:1008200001960E94550360E080E00E94AB0CCE016F
:1008300001960E94B80C80916D020E94E7076B013F
:100840007C0140E150E060E270E0CE0101960E9440
:10085000B316198A4DED50E060E0CE0101960E947A
:100860005503A60162E0CE0101960E94C40340EE4A
:1008700050E068E0CE0101960E945503A7016AE0AE
:10088000CE0101960E94C40360E081E00E94AB0C9F
:10089000CE0101960E94B80C61960FB6F894DEBFA7
:1008A0000FBECDBFDF91CF91FF90EF90DF90CF9043
:1008B0000895EF92FF920F931F93CF93DF9300D091
:1008C00000D000D0CDB7DEB79C018B01E42E97FF9E
:1008D00004C088279927821B930BEAE0F0E0BF0150
:1008E0000E946E16F82EC901BF010E946E16CB0140
:1008F00046E0BE016F5F7F4F0E94630380E0282FB8
:1009000030E0E1E0F0E0EC0FFD1FE20FF31F90811B
:10091000E1E0E80FD801A20FB31F992341F046E0B0
:10092000E41222C043E050E024173507D0F09EE2E5
:100930009C938E5FE00FF12FF11D90E39F0D90834C
:10094000F801E80FF11D108226960FB6F894DEBF6D
:100950000FBECDBFDF91CF911F910F91FF90EF9010
:1009600008959C938E2FCBCF44E050E0DDCFDF92F3
:10097000EF92FF920F931F93CF93DF93CDB7DEB724
:1009800067970FB6F894DEBF0FBECDBF0E947711F8
:10099000019709F064C00E947C112CE330E040E034
:1009A00050E00E948216F22E022F132FE62E40E115
:1009B00050E060E270E0CE0101960E94B316198A01
:1009C00049E351E060E0CE0101960E94550360E0EA
:1009D00080E00E94AB0CCE0101960E94B80C40E171
:1009E00050E060E270E0CE0101960E94B316198AD1
:1009F0004AE451E060E0CE0101960E9455030A30BE
:100A0000110520F580E38A878F0D8B878AE38C8719
:100A10008E2D6AE00E944E16805D8D87905D9E87C8
:100A200060E081E00E94AB0CCE0101960E94B80C00
:100A300067960FB6F894DEBF0FBECDBFDF91CF91A2
:100A40001F910F91FF90EF90DF900895C8016AE029
:100A500070E00E945A16605D6A87805DD6CF40E1E3
:100A600050E060E270E0CE0101960E94B316198A50
:100A700044E551E060E0CE0101960E94550380E01C
:100A80000E940E08009709F499C0FC0122812223DC
:100A900009F494C04081518163E0CE0101960E9427
:100AA000C4034CE551E066E0CE0101960E94550377
:100AB00081E00E940E08009709F488C0FC012281A1
:100AC000222309F483C04081518169E0CE0101965F
:100AD0000E94C40340E651E06CE0CE0101960E9402
:100AE000550382E00E940E08009709F477C0FC01CC
:100AF0002281222309F472C0808191816AE070E032
:100B00000E946E16AB016EE0CE0101960E94C403F6
:100B100060E080E00E94AB0CCE0101960E94B80C10
:100B200040E150E060E270E0CE0101960E94B31611
:100B3000198A0E946208182F853008F095C08091AC
:100B40006A0282FF91C0812F0E943E08082F812FE8
:100B50000E944A08D82E812F0E940E08F12CE12C09
:100B6000009719F0FC01E080F180F3E081E28983D5
:100B7000DF1245C08A838F87888B111137C04DEEF5
:100B800050E0013011F443EE50E062E0CE010196F6
:100B90000E945503A7016BE0CE0101960E94C40399
:100BA00060E081E00E94AB0CCE0101960E94B80C7F
:100BB00080916A028F5F80936A023ACF48E551E0E4
:100BC00063E0CE0101960E9455036BCF48E551E0EA
:100BD00069E0CE0101960E9455037CCF49E551E0C2
:100BE0006EE0CE0101960E94550392CF43E651E09C
:100BF000113059F21430A1F64DE651E0C6CF888B82
:100C00001230D9F446E0BE016E5E7F4FC7010E94EC
:100C1000590442E051E0013011F447EF50E061E047
:100C2000CE0101960E945503AE014E5E5F4F6BE010
:100C3000CE0101960E945503B3CF133041F448E131
:100C400051E0013011F44DE051E061E09FCF47E702
:100C500051E01430D1F31111A3CF4EE251E0013035
:100C6000A1F743E251E0F1CF42E851E060E0CE016C
:100C700001960E94550383E00E940E080097F9F048
:100C8000FC0122812223D9F04081518163E0CE0111
:100C900001960E94C40346E851E067E0CE01019648
:100CA0000E94550384E00E940E08009781F0FC0129
:100CB0002281222361F0408151816CE06DCF49E5B2
:100CC00051E063E0CE0101960E945503E4CF48E570
:100CD00051E06CE0ADCF1F93CF93DF93CDB7DEB77C
:100CE00068970FB6F894DEBF0FBECDBF40E150E06D
:100CF00060E270E0CE0101960E94B316198A8091DD
:100D00006E024CE851E0823011F045E951E060E0BC
:100D1000CE0101960E94550360E080E00E94AB0C7A
:100D2000CE0101960E94B80C40E150E060E270E014
:100D3000CE0101960E94B316198A4FE951E060E096
:100D4000CE0101960E94550310916D0280916B02B5
:100D500090916C0247E0BE016E5E7F4F123029F524
:100D60000E945904AE014E5E5F4F62E0CE010196D3
:100D70000E945503812F0E949008AC016BE0CE01C8
:100D800001960E94550360E081E00E94AB0CCE0109
:100D900001960E94B80C68960FB6F894DEBF0FBE9D
:100DA000CDBFDF91CF911F9108950E946303DACFE9
:100DB00010926E0210926D0210926C0210926B02F1
:100DC00010926A02089580916E028130C9F048F055
:100DD000823009F446C0833009F480C010926E025C
:100DE000089581E00E948F0D882309F4AFC081E04F
:100DF00080936E0210926D020E94A10C0C94EB0382
:100E000082E00E948F0D882339F080916D02882343
:100E100019F1815080936D0283E00E948F0D882329
:100E200039F080916D028F5F8530C0F480936D0240
:100E300081E00E948F0D882309F380916D020E944A
:100E4000E70770936C0260936B0282E080936E02FE
:100E50000E94A10C0C946B0684E0DCCF10926D0212
:100E6000E7CF82E00E948F0D882371F080916D02A0
:100E70000E949C0820916B0230916C02820F931F9C
:100E800090936C0280936B0283E00E948F0D882305
:100E900071F080916D020E949C0820916B0230914C
:100EA0006C02281B390B30936C0220936B0281E09B
:100EB0000E948F0D882371F260916B0270916C0219
:100EC00080916D020E94F80780916D020E94E707F1
:100ED00090936C0280936B0283E0B8CF82E00E9413
:100EE0008F0D882371F080916D020E949C082091E3
:100EF0006B0230916C02820F931F90936C0280936F
:100F00006B0283E00E948F0D882371F080916D0247
:100F10000E949C0820916B0230916C02281B390BB7
:100F200030936C0220936B0281E00E948F0D882326
:100F300009F490CF60916B0270916C0280916D0208
:100F40000E94030810926E020E94A10C0C94B70438
:100F500081E090916E02911180E0089580936F027C
:100F6000A4E8B2E025E0829FC0011124880F991FF8
:100F7000880F991F30E020E0AC014C5A5F4F8A5A2D
:100F80009F4FFA01E20FF31F6591749111967C93C4
:100F90006E93FC01E20FF31F6591749113967C939D
:100FA0006E93129714962C5F3F4F2431310549F709
:100FB0000895E0E7F2E011821082128213823496E3
:100FC00082E0E438F807B9F780E00C94AE0785308A
:100FD00020F060E070E0CB01089594E0899FF0017B
:100FE0001124EC57FD4F60817181828193810895B6
:100FF000853040F494E0899FF0011124EC57FD4FB7
:10100000718360830895853040F494E0899FF001F6
:101010001124EC57FD4F738362830895853038F4B3
:1010200024E0829FC001112480599D4F089590E0D3
:1010300080E00895E0E7F2E0A4E8B2E022E031E0E9
:101040008281811102C0138209C0808191814D91FA
:101050005C9111978417950744F433833496149662
:1010600082E0E438F80761F7089512964D915C919B
:101070001397481759073CF72383F0CF853040F486
:1010800094E0899FF0011124E059FD4F8381089578
:1010900080E00895982F853088F484E0989FF001CF
:1010A0001124E059FD4F8381882359F0923020F0BC
:1010B000943031F4813021F483E0089580E0089584
:1010C00082E00895EF92FF920F931F93CF9300E772
:1010D00012E07801C0E0F7018381882329F08C2F8A
:1010E0000E944A088330A9F0CF5FF4E0EF0EF11CB4
:1010F000C53089F7C0E0F8018381882329F08C2F5F
:101100000E944A08823029F0CF5F0C5F1F4FC53024
:1011100091F78C2FCF911F910F91FF90EF90089531
:10112000853038F425E0829FC001112485559E4FFB
:10113000089586ED91E00895853048F4E82FF0E0B9
:10114000EE0FFF1FEF55FE4F80819181089581E0E2
:1011500090E008951092A00210929F0210929E02B9
:1011600010929D0210929C0210929B028091A1020B
:10117000833019F481E00C943D158091A1028230F6
:10118000D1F38091A102813011F483E0F4CF83E0A8
:101190008093A00280E0EFCF1092A10283E08093C1
:1011A000A00210929F0210929E0210929D02109235
:1011B0009C0210929B0210929A0210929902109235
:1011C00098020E945A1580E00C943D15843070F40A
:1011D0009091A102981751F08093A1021092980269
:1011E00010929A02109299020C94AA080895809184
:1011F00098028823D1F08091990290919A02892BCC
:1012000049F08091990290919A02019790939A02E5
:10121000809399028091990290919A02892B09F00A
:10122000A4C0109298020C94AA088091A102811186
:1012300006C00E943D1583E08093A002089580912E
:10124000A1028330B9F18091A1028230D9F190E0FE
:1012500080E022E044E150E069E170E0E0919B022F
:10126000F0919C02319649F0E0919B02F0919C0232
:101270003196F0939C02E0939B023091A0023111D1
:1012800029C080919D0290919E02019690939E02AA
:1012900080939D0280919D0290919E0286179707F0
:1012A00008F463C081E08093A00210929E02109225
:1012B0009D024BC084EF91E02AE04AE050E06FE0ED
:1012C00070E0CCCF8CED95E023E04FE050E064E19E
:1012D00070E0C4CF3091A0023130D9F580919D02E9
:1012E00090919E02019690939E0280939D02809120
:1012F0009D0290919E0284179507B8F180919F02FC
:101300008F5F80939F0280919F028217B8F41092A2
:10131000A00210929E0210929D028091A102833041
:1013200019F481E00C943D158091A1028230D1F333
:101330008091A1028130C9F483E0F4CF8091A102B1
:10134000813029F483E08093A00280E0EBCF82E03B
:10135000AACF2091A0022230C1F720919B023091A8
:101360009C022817390708F05ECF089581E080932A
:10137000980280EE9EE290939A028093990280E018
:101380000C943D1541E060E081E00E944A1241E08A
:1013900061E081E00E944A1241E062E081E00E9447
:1013A0004A1241E063E081E00E944A1240E060E0BE
:1013B00081E00E94BB1240E061E081E00E94BB122C
:1013C00040E062E081E00E94BB1240E063E081E027
:1013D0000E94BB121092A5021092A4021092A302C6
:1013E0001092A2020895843050F49091A5029817AB
:1013F00031F08093A5021092A4021092A3020895E6
:1014000085E08093A20241E063E081E00C94BB128E
:101410008091A3029091A40201969093A4028093DC
:10142000A3028091A202882371F08091A2028150D0
:101430008093A2028091A202811105C040E063E086
:1014400081E00E94BB128091A502823059F1833065
:1014500081F0813009F03DC040E060E081E00E9411
:10146000BB1240E061E081E00E94BB1241E062E01B
:1014700016C040E061E081E00E94BB1240E062E003
:1014800081E00E94BB128091A3029091A40269E1C5
:1014900070E00E945A1641E060FD40E060E081E0AB
:1014A0000C94BB1240E060E081E00E94BB1240E07F
:1014B00062E081E00E94BB128091A3029091A4029D
:1014C00063E570E00E945A1641E060FD40E061E093
:1014D000E6CF40E060E081E00E94BB1240E061E0C6
:1014E00081E00E94BB1240E0C2CF1092AD02109288
:1014F000AC021092AB021092AA021092A9021092B2
:10150000A8021092A7021092A602EEEBF2E011825E
:1015100010821382128215821482EEEAF2E01182A6
:10152000108213821282158214821782168211860B
:1015300010861386128615861486178616860C94D6
:10154000AC14009799F1E091AD02F0E0EE0FFF1FAF
:10155000E254FD4F918380832091AD022F5F209351
:10156000AD022091AD02233010F01092AD02209117
:10157000AC02233028F42091AC022F5F2093AC0200
:10158000E091AB02F0E0EE0FFF1FE255FD4F9183BB
:1015900080838091AB028F5F8093AB028091AB021E
:1015A000883010F01092AB021092A602089580913C
:1015B000A9029091AA0208950E943115811107C0D5
:1015C0009091A60281E0911103C080E0089581E02E
:1015D0000895CF93DF930E943115882381F081E035
:1015E0008093A6021092AA021092A9021092A80259
:1015F0001092A7021092AC02DF91CF9108950E9441
:101600001715882341F00E942315009711F00E94BE
:10161000A10A0E9420150E94DC0A8111E3CF80916B
:10162000AC02882309F49EC08091AC02813009F09D
:1016300072C02091BE023091BF022115310599F090
:1016400050E040E068E37CE98CE190E00E94821683
:10165000DA01C9014E97A109B1098D3D9105A10596
:10166000B10508F07FC03093AA022093A90221E0BF
:1016700030E040E050E0BA01F901EE0FFF1FE25503
:10168000FD4F80819181892B09F475C0D901AA0F82
:10169000BB1FA455BD4F8D919C911197892B09F4C7
:1016A0006AC0C081D1818D919C911197C817D907CB
:1016B00008F45BC080819181ED91FC918E1B9F0BA2
:1016C000480F591F611D711D2F5F3F4F2830310595
:1016D00099F6CB01BA0127E030E040E050E00E94EB
:1016E0008216CA01B90125E0660F771F881F991F6E
:1016F0002A95D1F728EE33E040E050E00E948216B0
:101700002115310581E048075105C0F53093A80245
:101710002093A70271CF8091AC02823029F42091EE
:10172000C0023091C10289CF4091BE025091BF02E8
:101730008091C0029091C1022091C2023091C302F7
:101740008417950728F4742F652FAC01872F962FE7
:101750008217930708F49C012417350708F06DCF12
:101760009A016BCF30E020E07ECF8D919C9101906B
:10177000F081E02DA3CF30E020E0C8CF2FEF3FEF86
:10178000C5CF1092A6020C9438150F931F93CF93D8
:10179000DF93C0916000D82FD07FDC2B8295807FB3
:1017A000C82B662311F0D160C1600E944A13892BB7
:1017B00041F480E20E946C138C01892B29F00E9475
:1017C000651301E010E026C08D2F84600E9487130E
:1017D0008DE08A95F1F700008D2F8B7F0E94871393
:1017E0008DE08A95F1F700008C2F84600E948713AA
:1017F0008DE08A95F1F700008C2F8B7F0E94871374
:101800008DE08A95F1F700000E94651385E88A95BE
:10181000F1F70000C801DF91CF911F910F9108955A
:10182000CF93C82F60E00E94C50BC150C23040F476
:10183000EFE9FFE03197F1F700C00000CF91089584
:10184000F5E8FA95F1F7F9CF61E00E94C50B25E8BC
:101850002A95F1F7000008951F93CF93DF93182F77
:101860000E944A13892B41F480E20E946C13EC0120
:10187000892B29F00E946513C1E0D0E016C0812FAA
:1018800084600E9487138DE08A95F1F70000812F14
:101890008B7F0E9487138DE08A95F1F700000E94EC
:1018A000651385E88A95F1F70000CE01DF91CF91AD
:1018B0001F91089585B3836085BB2FE788E391E08E
:1018C000215080409040E1F700C00000809160000E
:1018D00080630E942C0C8FE097E20197F1F700C023
:1018E00000008091600080630E942C0C8BE291E0EC
:1018F0000197F1F700C000008091600080630E94B2
:101900002C0C8BE291E00197F1F700C00000809170
:10191000600080620E942C0C8BE291E00197F1F74D
:1019200000C0000088E20E94100C8CE00E94100CA5
:1019300081E00E94100C86E00E94100C90E080E094
:10194000089581E00E94100CEFE9FFE03197F1F774
:1019500000C000000895823040F4603130F48111FD
:1019600080E4860F80680C94100C81E090E008956C
:10197000CF93DF93EC01892B49F481E090E0DF9174
:10198000CF9108950E94240C892BB9F78991811178
:10199000F9CF90E080E0F3CF41E064E083E00E9483
:1019A0004A1240E064E083E00C94BB1241E064E042
:1019B00083E00C94BB1240E064E083E00C94BB1223
:1019C000AF92BF92CF92DF92EF92FF920F931F934D
:1019D000CF93DF931F92CDB7DEB784B7806884BF03
:1019E00084BF80EDA82E82E0B82E9BECC92E92E039
:1019F000D92E26ECE22E22E0F22E12E001E009833D
:101A000042E0612F82E00E944A12AE014F5F5F4FB9
:101A1000612F82E00E94F712F50111925F01898126
:101A2000F60181936F01F70111927F011F5F17305B
:101A300031F71092C5021092C4020F90DF91CF913E
:101A40001F910F91FF90EF90DF90CF90BF90AF90DC
:101A500008958F929F92AF92BF92CF92DF92FF92A2
:101A60000F931F93CF93DF931F92CDB7DEB78BEC0D
:101A7000A82E82E0B82E00ED12E096ECC92E92E07E
:101A8000D92E22E0F22E30EE832E3EE2932EAE01CE
:101A90004F5F5F4F6F2D82E00E94F712F501919129
:101AA0005F012981F8019217C1F180818F5F8083E6
:101AB000882391F0F50131972083F801108291304D
:101AC00059F4211109C0F6019083F2E0FF1204C01D
:101AD0009092C5028092C402F3940F5F1F4FFFEFF4
:101AE000CF1ADF0A87E0F812D2CF8091C40290911A
:101AF000C502009729F001979093C5028093C40214
:101B00000F90DF91CF911F910F91FF90DF90CF90B9
:101B1000BF90AF909F908F9008951082DDCF853059
:101B200038F4E82FF0E0EA53FD4F808110820895E9
:101B300080E00895E6ECF2E08191811105C092E029
:101B4000EB3CF907C9F7089581E0089581E00E9410
:101B50002E1441E064E081E00E944A1240E064E01B
:101B600081E00C94BB120E94541441E064E081E0D7
:101B70000E94BB1240E064E081E00C94BB1266E07E
:101B800081E00C941412EF92FF920F931F93CF9366
:101B9000DF9300D0CDB7DEB7009709F47CC08C018D
:101BA0001A821982BE016F5F7F4F80E00E94291266
:101BB000892B89F429813A81AEE1B0E00E94A41614
:101BC0002FEF33E040E050E00E9482162A5BF801DC
:101BD0002483118A108ABE016F5F7F4F81E00E94CB
:101BE0002912892B99F429813A81A6E9B0E00E9453
:101BF000A4162FEF33E040E050E00E948216245DEF
:101C00003E4FF80136832583138A128ABE016F5F27
:101C10007F4F82E00E942912892BD1F429813A81D9
:101C2000A8ECB0E00E94A4162FEF33E040E050E0B3
:101C30000E9482162E5CF8012783822F90E0880F85
:101C4000991F63E070E00E946E166087158A148AFF
:101C5000BE016F5F7F4F83E00E9429127C01892BB8
:101C6000F1F429813A81ACE3B0E00E94A4162FEF91
:101C700033E040E050E00E948216F8012187178A85
:101C8000168AC7010F900F90DF91CF911F910F918E
:101C9000FF90EF900895EE24E394F12CF2CFF12C15
:101CA000E12CEFCF1092DD021092DE021092DF02E3
:101CB0001092E0021092DC021092DB021092DA0223
:101CC0001092D9021092D5021092D6021092D70229
:101CD0001092D8020E94C2090E94CC0C0C94A60D4E
:101CE000FC01892B39F09DE0A1EEB2E001900D924C
:101CF0009A95E1F708958F929F92AF92BF92CF92FB
:101D0000DF92EF92FF920E9477112091EC023091C6
:101D1000EB02C12CD12C7601019709F468C0C12CCB
:101D2000D12C7601222351F18091E1029091E202BF
:101D3000C12CD12C7601C394009759F0C12CD12C21
:101D400076018739910528F044E0C42ED12CE12C8E
:101D5000F12CAC01415051094732510510F46894FF
:101D6000C3F8AC01495751094E31510510F468943C
:101D7000C7F888970A9710F46894D0F8332369F06D
:101D80008091E3029FEF980F943510F46894C4F8A3
:101D90008555853010F46894D1F88091E40284323E
:101DA00010F06894C5F88150873010F46894C6F834
:101DB0008091E5029091E602823841E0940710F0AC
:101DC0006894D2F801978D35914010F46894D3F857
:101DD0008091E7029091E8028D38910510F06894A7
:101DE000D4F801978935910510F46894D5F831112C
:101DF00002C06894D6F8211102C06894D7F8809187
:101E0000ED02882311F06894C1F8C092DD02D092EF
:101E1000DE02E092DF02F092E002460157018FE914
:101E2000882283E29822AA24BB2483E090E08114D4
:101E30009104A104B10461F4D701C60180769C7DB0
:101E4000AA27BB27892B8A2B8B2BD1F182E090E02C
:101E50009093DC028093DB028091D5029091D602B0
:101E6000A091D702B091D80280959095A095B09599
:101E700088219921AA21BB21892B8A2B8B2B29F11F
:101E80001092DA021092D9028091D902811122C0F7
:101E90000E94D60C8092D5029092D602A092D702D0
:101EA000B092D8028091DB029091DC0282309105E1
:101EB00021F183309105C1F0019709F581E015C04A
:101EC0001092DC021092DB02C7CF81149104A104AE
:101ED000B104D1F60E94DB0C81149104A104B10479
:101EE000C9F61092D902D6CF83E00E94F3098091FF
:101EF000DA02882331F080E013C082E0F6CF80E080
:101F0000F4CF8091DB029091DC028230910511F1D7
:101F10008330910521F0019771F781E001C083E0E2
:101F20000E94E6082D2D2C298091EC02882339F09F
:101F30008091E1029091E202892B09F02160822FC9
:101F4000FF90EF90DF90CF90BF90AF909F908F90D9
:101F50000C94B30D82E0E4CF8091DB029091DC021F
:101F600008958091DD029091DE02089581E08093D2
:101F7000DA028093D9020C94DB0CCF93DF93E0EF6D
:101F8000F2E0DE2FCF2F81918032D9F3882309F43C
:101F900057C046E050E064EC71E08D2F9C2F0E940A
:101FA000C316892B31F48BEC91E0DF91CF910C9427
:101FB000301647E050E060ED71E08D2F9C2F0E94BD
:101FC000C316892B19F488ED91E0EFCF43E050E080
:101FD00064EF71E08D2F9C2F0E94C316892B19F39B
:101FE00047E050E068EF71E08D2F9C2F0E94C316F0
:101FF000892BC9F244E050E060E072E08D2F9C2F05
:102000000E94C316892B19F485E092E0CECF43E0FD
:1020100050E064E372E08D2F9C2F0E94C316892B41
:1020200061F468E372E08D2F9C2F0E94D116892BFA
:1020300009F0B9CF8EE392E0B8CF8FE492E0B5CF4C
:10204000DF91CF9108951092EF021092EE02E0EF2F
:10205000F2E089E2DF011D928A95E9F708951F9366
:10206000CF93DF931F92CDB7DEB711E00E944216E7
:10207000892B09F066C01982CE0101960E942316B1
:10208000892B09F05EC099818091EE029D3011F09C
:102090009A30A1F4882349F089E592E00E94301635
:1020A0001092EF021092EE02E1CFE091EF02F0E029
:1020B000E051FD4F10820E94BD0FF2CF8111D6CFAB
:1020C000E091EF02E83208F041C081E08E0F80938A
:1020D000EF02F0E0E051FD4F9083E82FF0E0E05197
:1020E000FD4F108264EC71E080EF92E00E94BA161E
:1020F000892B09F160ED71E080EF92E00E94BA1641
:10210000892BC9F064EF71E080EF92E00E94BA166B
:10211000892B89F068EF71E080EF92E00E94BA1697
:10212000892B49F060E072E080EF92E00E94BA16DD
:10213000892B09F09BCF0E94BD0F1092EF021092E5
:10214000EE020F90DF91CF911F9108951093EE0250
:1021500089E592E00E9430161092EF0287CF10922C
:102160002403109223031092220310922103109251
:102170001D0310921E0310921F0310922003109251
:102180001C0310921B0310921A03109219030C9453
:10219000520ECF93DF930E94AC0FEC01809123038A
:1021A000909124038230910509F46DC038F40097B2
:1021B00061F00197C9F082E090E06CC00597D8F714
:1021C0000E947B0ECD2BB9F30CC08091210390911E
:1021D000220301969093220380932103883C91056A
:1021E00050F7DF91CF91089580911B0390911C03CC
:1021F000019684369105B0F490931C0380931B03E1
:102200008091190390911A03009759F301979093C5
:102210001A0380931903892B21F780E0DF91CF9176
:102220000C943D1510921C0310921B0360911D032A
:1022300070911E0380911F03909120036F5F7F4F69
:102240008F4F9F4F60931D0370931E0380931F0356
:1022500090932003611571058105910589F22CE3A6
:1022600030E040E050E00E948216672B682B692B1B
:1022700039F68FE090E090931A038093190383E07E
:102280000E943D15BDCF0E947B0E83E090E0CD2BD8
:1022900009F4A7CF9093240380932303A2CF8091C6
:1022A00023039091240381309105D9F482E090E0DA
:1022B000909324038093230310921D0310921E0316
:1022C00010921F031092200310921C0310921B0304
:1022D00010921A031092190380E00E943D150C948D
:1022E0007B0E892B19F081E090E0E2CF0895809178
:1022F000230390912403089560911D0370911E03A0
:1023000080911F039091200308951092260310924C
:102310002503E7E2F3E01182108213821282158214
:10232000148217821682389685E0E730F80799F70D
:1023300008950F931F93CF93DF9300D0CDB7DEB7EF
:102340000091260310E01A821982BE016F5F7F4F51
:1023500080E00E94291289819A8123E0000F111FD9
:102360002A95E1F7F801E95DFC4F918380830091A4
:10237000260310E01A821982BE016F5F7F4F81E051
:102380000E94291289819A8133E0000F111F3A952A
:10239000E1F7F801E95DFC4F938382830091260306
:1023A00010E01A821982BE016F5F7F4F82E00E94A7
:1023B000291289819A8143E0000F111F4A95E1F7A4
:1023C000F801E95DFC4F958384830091260310E0BA
:1023D0001A821982BE016F5F7F4F83E00E9429122B
:1023E00089819A8153E0000F111F5A95E1F7F80196
:1023F000E95DFC4F978386838091260390E00196E8
:102400006CE370E00E946E16809326038091250392
:102410008C3318F48F5F809325030F900F90DF911A
:10242000CF911F910F910895823010F0833071F495
:102430009FEF960F973050F48295880F880F807C1D
:1024400087B9606866B990E080E0089581E090E027
:1024500008958830E0F461157105C9F097B1907E58
:10246000892B87B9369A80E197E2369B04C034996C
:1024700002C00197D1F7349A94B185B18927982782
:102480008927FB019183808390E080E0089581E0BB
:1024900090E00895843008F06BC0683008F068C0A0
:1024A000433008F065C021E030E001C0220F6A959A
:1024B000EAF7411125C020958230A1F08330C9F0A0
:1024C000813039F08AB382238ABB8BB328232BBB9C
:1024D00006C087B3822387BB88B3282328BB90E03C
:1024E00080E0089584B3822384BB85B3282325BB71
:1024F000F6CF81B3822381BB82B3282322BBEFCFE7
:102500004130B1F4823061F0833071F0813021F0DC
:102510008AB3282B2ABBE3CF87B3282B27BBDFCF77
:1025200084B3282B24BBDBCF81B3282B21BBD7CF8F
:10253000922F9095823081F08330A1F0813031F07C
:102540008AB398239ABB8BB3282BC1CF87B3982328
:1025500097BB88B3282BC2CF84B3982394BB85B391
:10256000282BC5CF81B3982391BB82B3282BC6CF2C
:1025700081E090E008958430B8F56830A8F54230E5
:1025800098F521E030E001C0220F6A95EAF741306A
:10259000C1F4823071F0833081F0813021F08BB34F
:1025A000282B2BBB03C088B3282B28BB90E080E0EE
:1025B000089585B3282B25BBF9CF82B3282B22BBE6
:1025C000F5CF2095823051F0833059F0813019F0E9
:1025D0008BB32823E6CF88B32823E7CF85B32823FE
:1025E000EACF82B32823EBCF81E090E00895FA018F
:1025F0008430E0F46830D0F43097C1F0823091F04C
:10260000833091F0813061F089B390E002C09695FB
:1026100087956A95E2F78170808390E080E0089565
:1026200086B3F3CF83B3F1CF80B3EFCF81E090E0F7
:1026300008959B01AC01211531054105510539F182
:1026400060E072E18AE790E00E9482162031310555
:1026500041055105E0F0BA01A90140515109610954
:10266000710976956795579547954F3F51056105D7
:10267000710509F060F485B3836085BB40B981B111
:102680008C7F81B984E086BF90E080E0089581E08E
:1026900090E0089584EA86BF90E080E006B607FCEB
:1026A0000EC00196883E23E09207C1F781E090E0DA
:1026B000089581E090E02031D9F780E0089521B1BC
:1026C000287F2830B1F780E0F2CF84E986BF85E823
:1026D0008A95F1F70000089587FD0EC0880F83B931
:1026E00084E886BF90E080E006B607FC08C001964B
:1026F000883E23E09207C1F781E090E0089521B180
:10270000287F81E090E0283109F480E0089583B9C2
:1027100084E886BF90E080E006B607FC08C001961A
:10272000883E23E09207C1F781E090E0089521B14F
:10273000287F81E090E0283209F480E008957894C1
:1027400090E080E00895F89490E080E008951F9272
:102750000F920FB60F9211242F933F934F935F93D5
:102760006F937F938F939F93AF93BF93EF93FF9359
:102770008091070590910805892B29F0E0910705C4
:10278000F09108050995FF91EF91BF91AF919F914D
:102790008F917F916F915F914F913F912F910F900A
:1027A0000FBE0F901F9018951F920F920FB60F92A9
:1027B00011242F933F934F935F936F937F938F9346
:1027C0009F93AF93BF93EF93FF93809109059091EF
:1027D0000A05892B29F0E0910905F0910A05099570
:1027E000FF91EF91BF91AF919F918F917F916F91E9
:1027F0005F914F913F912F910F900FBE0F901F90BF
:1028000018951F920F920FB60F9211242F933F939A
:102810004F935F936F937F938F939F93AF93BF93E8
:10282000EF93FF9380910B0590910C05892B29F074
:10283000E0910B05F0910C050995FF91EF91BF9187
:10284000AF919F918F917F916F915F914F913F9148
:102850002F910F900FBE0F901F901895CF9384303B
:1028600000F5C82F41E064E081E00E944A1241E097
:1028700065E081E00E944A1240E066E081E00E944B
:102880004A1241E067E081E00E944A1240E064E0C1
:1028900081E00E94BB12C065CDB990E080E0CF918D
:1028A000089581E090E0FBCF8FB980ED97E07799B4
:1028B00002C00197E1F78FB1089520911005211111
:1028C00008C0909316058093150581E0809310054C
:1028D00008952091150530911605AC01421B530B4C
:1028E00050930F0540930E05E0911405F0E0209100
:1028F0000E0530910F05EE0FFF1FE95EFA4F318391
:1029000020839093160580931505809114058F5FA1
:102910008093140580911405883010F010921405EE
:1029200081E080931305109211051092120508950D
:1029300013BE12BE8DE48CBF83B7886083BF83B79C
:10294000846083BF83B7816083BF89B7826089BF9A
:1029500008951092270508951FBC1EBC1DBC1CBC09
:1029600084E288BF8EB580648EBD8EB580688EBDD2
:102970008EB584608EBD89B7806289BF89B7846057
:1029800089BFE7E1F5E0118210821382128215827D
:102990001482178216821186108613861286158677
:1029A0001486178616861092160510921505109239
:1029B0001405109213051092120510921105109231
:1029C000100510920F0510920E05089508B602FE2C
:1029D0000EC084E088BF809111058F5F8093110540
:1029E00080911105823018F081E08093120580B348
:1029F00086FB882780F990910D05992381F090E05E
:102A000080930D0580911305811110C008B605FE55
:102A100008C086B597B520E228BF0C945D14982FA6
:102A2000EFCF992319F08CB59DB5F7CF08950E948B
:102A3000E6149091130581E0911101C080E00895A2
:102A4000109213050895CF93DF930E94A313C091B2
:102A50000E05D0910F050E949F13CE01DF91CF91FB
:102A600008959091120581E0911101C080E00895D0
:102A70001092120510921105089514BC813041F492
:102A800081E883BD8BE185BD89B7806889BF0895E2
:102A9000823021F481E683BD8CE1F5CF833011F4DF
:102AA00081E8F9CF89B78F7789BF88E085BD13BCEE
:102AB000979808958F9A15BC14BC85B5886085BD1C
:102AC00085B5806185BD80E00C943D151F920F9205
:102AD0000FB60F9211242F933F934F935F936F93F1
:102AE0007F938F939F93AF93BF93EF93FF938091C7
:102AF0002A0590912B05A0912C05B0912D050196EA
:102B0000A11DB11D80932A0590932B05A0932C0540
:102B1000B0932D0581E08093270580912805909141
:102B20002905892B29F0E0912805F09129050995BF
:102B3000FF91EF91BF91AF919F918F917F916F9195
:102B40005F914F913F912F910F900FBE0F901F906B
:102B500018951F920F920FB60F9211242F933F9347
:102B60004F935F936F937F938F939F93AF93BF9395
:102B7000EF93FF9386B597B50E945D14FF91EF9197
:102B8000BF91AF919F918F917F916F915F914F9185
:102B90003F912F910F900FBE0F901F9018951F928D
:102BA0000F920FB60F9211248F93809111058F5FB2
:102BB0008093110580911105823018F081E0809397
:102BC00012058F910F900FBE0F901F9018951F92B6
:102BD0000F920FB60F9211248F9382B3805882BB4D
:102BE0008F910F900FBE0F901F9018956115710572
:102BF00081059105D1F09B01AC0184E0220F331FC8
:102C0000441F551F8A95D1F760E072E18AE790E092
:102C10000E9482162150310930BD29B986E880BD55
:102C200088E18AB990E080E0089581E090E008951D
:102C300028E833E15D9903C021503109D9F78CB9F7
:102C400090E080E00895009741F05F9BFECF2CB1AB
:102C5000FC01208390E080E0089581E090E00895F9
:102C6000CF93DF93EC01892B29F481E090E007C03A
:102C70000E94181689918111FBCF90E080E0DF91CE
:102C8000CF9108958BB1082E000C990B80959095EB
:102C9000892F881F8827881F90E00895991B79E065
:102CA00004C0991F961708F0961B881F7A95C9F7DC
:102CB00080950895AA1BBB1B51E107C0AA1FBB1F2B
:102CC000A617B70710F0A61BB70B881F991F5A95B8
:102CD000A9F780959095BC01CD01089597FB072E2B
:102CE00016F4009407D077FD09D00E945A1607FC0D
:102CF00005D03EF4909581959F4F0895709561950C
:102D00007F4F0895A1E21A2EAA1BBB1BFD010DC027
:102D1000AA1FBB1FEE1FFF1FA217B307E407F5078B
:102D200020F0A21BB30BE40BF50B661F771F881F67
:102D3000991F1A9469F760957095809590959B01FD
:102D4000AC01BD01CF010895A29FB001B39FC001A6
:102D5000A39F700D811D1124911DB29F700D811DC7
:102D60001124911D0895DC0101C06D934150504024
:102D7000E0F70895FB01DC018D91019080190110AD
:102D8000D9F3990B0895FB01DC014150504030F01C
:102D90008D910190801919F40020B9F7881B990BC7
:102DA0000895FB0151915523A9F0BF01DC014D911C
:102DB00045174111E1F759F4CD010190002049F088
:102DC0004D9140154111C9F3FB014111EFCF81E055
:102DD00090E001970895AEE0B0E0E1EFF6E10C94E9
:102DE0009A190D891E8986E08C831A8309838FEFD7
:102DF0009FE79E838D83AE01475E5F4F6F89788D1D
:102E0000CE0101960E940E172F813885020F131FE5
:102E1000F80110822E96E4E00C94B619ABE0B0E015
:102E2000E4E1F7E10C948C197C013B018A01FC017F
:102E300017821682838181FFC8C1CE0101965C0191
:102E4000F7019381F30193FD859193FF81913F01F8
:102E5000882309F453C1853239F493FD859193FF9A
:102E600081913F01853229F4B70190E00E94FE185C
:102E7000E7CF912C212C312CFFE1F31538F08B3268
:102E800011F190F4803209F1833229F137FC3CC012
:102E900020ED280F2A3050F536FE20C08AE0989E9B
:102EA000200D1124922E06C08D3291F0803371F7DF
:102EB000689430F8F30193FD859193FF81913F0170
:102EC0008111DACF21C0689431F8689432F8F2CFDA
:102ED000689433F8EFCF689434F8ECCFEAE02E9E94
:102EE000200D1124222E689435F8E4CF8E3229F477
:102EF00036FC04C1689436F8DDCF8C3619F468943A
:102F000037F8D8CF8836B1F2982F9F7D95549330FB
:102F1000E0F08336A1F18337C1F1833509F063C056
:102F20002801F2E04F0E511CF801C080D180692DBC
:102F300070E036FC02C06FEF7FEFC6010E94E81818
:102F40004C01689437F882010AC00C5F1F4FFFE301
:102F5000F98388248394912C6501E89437F833FE33
:102F60002DC0522C8114910471F5552009F468CFBD
:102F7000B70180E290E00E94FE185A94F6CFF80163
:102F8000808189830E5F1F4FE4CF2801F2E04F0E4E
:102F9000511CF801C080D180692D70E036FC02C060
:102FA0006FEF7FEFC6010E94F3184C018201D5CF6D
:102FB000B70180E290E00E94FE182A9428141904B8
:102FC00009F0B0F7CECFF60137FC859137FE81913D
:102FD0006F01B70190E00E94FE1851105A94F1E081
:102FE0008F1A9108BFCF843619F0893609F077C05F
:102FF000F80137FE6BC060817181828193810C5F23
:103000001F4FF32DFF763F2E97FF09C090958095B7
:10301000709561957F4F8F4F9F4F689437F82AE0E6
:1030200030E0A5010E942E19C82ECA188C2C432C02
:1030300036FE0CC0E89440F8C91440F434FE05C0D4
:1030400032FC03C0F32DFE7E4F2E892C44FE95C02A
:10305000FE01EC0DF11D8081803309F087C0242D25
:10306000297E422E842D8870582E43FC95C040FE48
:103070008FC09C2C821418F42C0C922C981844FEAF
:1030800091C0B70180E390E00E94FE1842FE09C0A3
:1030900088E790E041FE02C088E590E0B7010E9419
:1030A000FE18C91408F48AC0CA94D12C9FEFC91A1B
:1030B000D90ACA0CDB1CF60182916F01B70190E0BE
:1030C0000E94FE18AC14BD04B1F74FCF608171812E
:1030D000072E000C880B990B0E5F1F4F92CFD32C3D
:1030E000E894D4F82AE030E0853739F1232D297FA0
:1030F000D22E8F3601F148F48835A9F0F701868188
:1031000097812B96E2E10C94A819803749F0883713
:10311000A9F7D4FE02C06894D2F820E130E00DC0D7
:103120006894D4F8F6CF34FE03C0822F8660D82E80
:1031300020E132E002C028E030E0F801D7FE0FC005
:1031400060817181828193810C5F1F4FA5010E9474
:103150002E19C82ECA183D2CE89437F867CF608125
:10316000718190E080E00E5F1F4FF0CF42FC02C003
:10317000839478CF8394839475CF842D867809F4D3
:1031800071CFF6CFB70180E290E00E94FE188394E1
:103190008214C0F3512C73CF522C5818821408F4A7
:1031A0006ECFF8CF842D867809F47BCF8BE241FE79
:1031B00080E247FC8DE2B70190E071CFB70180E378
:1031C00090E00E94FE189A946CCF8FEF9FEF99CFFA
:1031D000FC010590615070400110D8F780959095E2
:1031E0008E0F9F1F0895FC016150704001900110E7
:1031F000D8F7809590958E0F9F1F08950F931F937A
:10320000CF93DF93182F092FEB018B8181FD09C02C
:103210001FEF0FEF812F902FDF91CF911F910F9113
:10322000089582FF14C02E813F818C819D812817D3
:1032300039073CF4E881F981CF01019699838883AD
:1032400010838E819F8101969F838E83E3CFE885D3
:10325000F985812F0995892BA1F3DACFFA01AA27E5
:10326000283051F1203181F1E8946F936E7F6E5FC9
:103270007F4F8F4F9F4FAF4FB1E03ED0B4E03CD077
:10328000670F781F891F9A1FA11D680F791F8A1F5A
:10329000911DA11D6A0F711D811D911DA11D20D0C1
:1032A00009F468943F912AE0269F11243019305D7B
:1032B0003193DEF6CF010895462F4770405D41936C
:1032C000B3E00FD0C9F7F6CF462F4F70405D4A33B9
:1032D00018F0495D31FD4052419302D0A9F7EACF81
:1032E000B4E0A6959795879577956795BA95C9F7B0
:1032F00000976105710508959B01AC010A2E0694A3
:103300005795479537952795BA95C9F7620F731F5B
:10331000841F951FA01D08952F923F924F925F9298
:103320006F927F928F929F92AF92BF92CF92DF92D5
:10333000EF92FF920F931F93CF93DF93CDB7DEB73A
:10334000CA1BDB0B0FB6F894DEBF0FBECDBF0994CE
:103350002A88398848885F846E847D848C849B8425
:10336000AA84B984C884DF80EE80FD800C811B8133
:10337000AA81B981CE0FD11D0FB6F894DEBF0FBE62
:0A338000CDBFED010895F894FFCFD2
:10338A00083D3D3D2053595354454D2053454C4625
:10339A002D54455354203D3D3D0D0A00504154499A
:1033AA00454E54204D4F4E49544F52200053454CE0
:1033BA00462D544553542E2E2E20202020005041B5
:1033CA005449454E54204D4F4E49544F5220524570
:1033DA004144590D0A00214441542C25642C25648A
:1033EA002C25642E25642C25642C25642C30782504
:1033FA003034580D0A00456469743A20004C3A008A
:10340A00483A004852204C4F57202020004852206A
:10341A004849474820200054454D50204C4F5720DA
:10342A00200054454D5020484947482000524553F2
:10343A0050204C4F572020005245535020484947AE
:10344A004820004852204C4F572020202000485244
:10345A002048494748202020002A2A2A205354413C
:10346A004E44425920202A2A2A0054494D453A20DE
:10347A002020200048523A002D2D2D0020533A00DA
:10348A00543A0053504F32204C4F5720004250209C
:10349A004C4F5720202000425020484947482020BE
:1034AA00200052523A00202042503A0053657420BC
:1034BA004C6F773A0053657420486967683A003E52
:1034CA00000100010005000100050048520000004B
:1034DA0053704F320054656D700052520000004222
:1034EA0050000000535441545553004F4B0D0A00ED
:1034FA00564954414C533F004F4B202848522C20E8
:10350A0053704F322C2054656D702C2052657370A5
:10351A00290D0A0041434B0053494C454E4345008F
:10352A0048454C50004F4B3A205354415455532C64
:10353A0020564954414C533F2C2041434B2C205395
:10354A00494C454E43452C205345542C2048454C64
:10355A00500D0A005345540048524C4F57004F4BE8
:10356A00202F204552522052414E47450D0A004510
:10357A00525220434D440D0A00455252204C4F4EA0
:04358A00470D0A00DF
:00000001FF
