:100000000C942A000C94BE040C94EB040C94180578
:100010000C9447000C9447000C9457060C9447002E
:100020000C9447000C94A0060C9414060C94470002
:100030000C9447000C9447000C9447000C94470024
:100040000C9447000C9447000C9447000C94470014
:100050000C94470011241FBECFE5D8E0DEBFCDBF12
:1000600010E0A0E6B0E0EEEEFDE002C005900D92DB
:10007000A036B107D9F720E0A0E6B0E001C01D929C
:10008000A03BB207E1F70E9449000C94F5060C94DE
:10009000000041E067E082E00E94060440E067E083
:1000A00082E00E9478040E946F050E9482020E94F2
:1000B000ED030E94D9030E94E3000E94D90182E06F
:1000C0000E94FD0083E00E940A020E94E3038FEF7A
:1000D0000E94FA030E94B604C0E0D0E00E948005AE
:1000E0008115E1F30E94870521960E940E010E946E
:1000F0001702C233D10519F40E94CD01EFCFCC32E3
:1001000081E0D80759F70E94BA040E94E3000E94D8
:10011000D9010E94E80380E00E94FA0380E00E9477
:10012000FD0080E00E940A020E94E8030E94D503BD
:100130000E9487050E94B604C0E0D0E00E948005BE
:100140008115E1F30E94870541E067E082E00E94AB
:100150007804CE0162E370E00E94BF06049711F4B8
:100160000E94D8020E940E010E94170240E067E040
:1001700082E00E9478042196C83E83E0D807F1F619
:10018000DBCF109268001092670010926600109208
:1001900065001092640010926300809169008330C2
:1001A00019F481E00C94E705809169008230D1F365
:1001B00080916900813011F483E0F4CF83E0809373
:1001C000680080E0EFCF1092690083E080936800C0
:1001D0001092670010926600109265001092640001
:1001E0001092630010926200109261001092600001
:1001F0000E94080680E00C94E705843070F490912A
:100200006900981751F08093690010926000109275
:100210006200109261000C94C1000895809160000A
:100220008115D1F08091610090916200892B49F095
:100230008091610090916200019790936200809399
:1002400061008091610090916200892B09F0A4C047
:10025000109260000C94C10080916900811106C069
:100260000E94E70583E0809368000895809169000B
:100270008330B9F1809169008230D9F58CED95E039
:1002800023E04FE050E064E170E0E0916300F09122
:100290006400319649F0E0916300F091640031967A
:1002A000F0936400E093630030916800311129C03D
:1002B000809165009091660001969093660080930E
:1002C000650080916500909166008617970708F495
:1002D00063C081E080936800109266001092650010
:1002E0004BC084EF91E02AE04AE050E06FE070E01C
:1002F000CCCF80E090E022E044E150E069E170E0A2
:10030000C4CF309168003130D9F58091650090916B
:100310006600019690936600809365008091650069
:100320009091660084179507B8F1809167008F5F00
:1003300080936700809167008217B8F4109268007C
:10034000109266001092650080916900833019F464
:1003500081E00C94E705809169008230D1F38091AF
:1003600069008130C9F483E0F4CF80916900813065
:1003700029F483E08093680080E0EBCF82E0AACF8D
:10038000209168002230C1F7209163003091640011
:100390002817390708F05ECF089581E08093600048
:1003A00080EE9EE2909362008093610080E00C9466
:1003B000E70541E060E081E00E94060441E061E081
:1003C00081E00E94060441E062E081E00E940604B0
:1003D00041E063E081E00E94060440E060E081E0EB
:1003E0000E94780440E061E081E00E94780440E0EF
:1003F00062E081E00E94780440E063E081E00E94D6
:10040000780410926D0010926C0010926B001092A4
:100410006A000895843050F490916D00981731F07F
:1004200080936D0010926C0010926B000895809183
:100430006B0090916C00019690936C0080936B0020
:1004400080916A00811571F080916A0081508093DB
:100450006A0080916A00811105C040E063E081E09C
:100460000E94780480916D00823049F1833071F0F0
:100470008130E1F140E060E081E00E94780440E0FA
:1004800061E081E00E94780440E03AC040E061E031
:1004900081E00E94780440E062E081E00E947804FC
:1004A00080916B0090916C0069E170E00E94BF0642
:1004B00041E060FD40E060E081E00C94780440E0C1
:1004C00060E081E00E94780440E062E081E00E9408
:1004D000780480916B0090916C0063E570E00E945D
:1004E000BF0641E060FD40E061E0E6CF40E060E053
:1004F0000E94780440E061E081E00E94780441E0DD
:1005000062E0DACF109274001092730010927200C1
:10051000109271001092700010926F0010926E0095
:100520001092860010928500109288001092870029
:1005300010928A001092890080E090E0FC01EE0F9A
:10054000FF1FEB58FF4F11821082019688309105F2
:10055000A9F70C948A05009751F1E0917400F0E03E
:10056000EE0FFF1FEB57FF4F9183808320917400A4
:100570002F5F2093740020917400233010F01092AC
:100580007400E0917300F0E0EE0FFF1FEB58FF4F97
:1005900091838083809173008F5F8093730080913B
:1005A0007300883010F01092730010926E0008955E
:1005B000DF92EF92FF920F931F93CF93DF9300D0C0
:1005C00000D000D0CDB7DEB70E94D905811104C09C
:1005D000D0906E00D114C9F0109272001092710088
:1005E0001092700010926F0081E080936E000F9067
:1005F0000F900F900F900F900F90DF91CF911F9160
:100600000F91FF90EF90DF9008950E94B90581153A
:1006100069F00E94D305182F0E94D605082F282FB5
:10062000211B122F011324C00E94C0057E018FEFF1
:10063000E81AF80AE0E0F0E09F01DF01AA0FBB1F13
:10064000AB57BF4F0D911D91D7010D931D937D01A8
:1006500001151105A9F08091740090E0029663E005
:1006600070E00E94BF068E179F0761F498010AC0D0
:10067000812F87700E94C5050E94AB021F5FD2CFF9
:10068000DD24D3943196E330F105B9F62115310517
:1006900091F0D11409F467C040E050E068E37CE9D0
:1006A0008CE190E00E94D306C9014E978D3D9105E3
:1006B00010F020E030E0309372002093710040E0B1
:1006C00050E0BA01CA01FA014F5F5F4FDA01AA0F89
:1006D000BB1FAB58BF4F2D913D911297211531058E
:1006E000E9F1EE0FFF1FEB58FF4F208131812115FB
:1006F0003105A1F12D913D911297008111812017B3
:10070000310708F448C00D90BC91A02D20813181A3
:10071000FD01E21BF30B9F01620F731F811D911DF1
:100720004730510581F627E030E040E050E00E947C
:10073000D306B901CA0125E0660F771F881F991FEC
:100740002A95D1F72FEF3FEF883EB3E09B0730F4B7
:1007500028EE33E040E050E00E94D3063093700072
:1007600020936F0044CF49815A818B819C818417EB
:10077000950728F0342F252FAC01832F922F2D8140
:100780003E814217530708F49A012817390708F0E9
:1007900083CF9C0181CF0190F081E02D2D913D917F
:1007A000DF01A21BB30B9D01B7CF10926E000C941A
:1007B000E00541E064E083E00E94060440E064E07C
:1007C00083E00C94780441E064E083E00C947804C6
:1007D00040E064E083E00C94780481E00E944505E9
:1007E00041E064E081E00E94060440E064E081E0D2
:1007F0000C9478040E946A0541E064E081E00E9464
:10080000780440E064E081E00C947804843008F0DF
:100810006CC0683008F069C0433008F066C021E061
:1008200030E0F90101C0EE0F6A95EAF76E2F413012
:1008300028F560958230A1F08330C9F0813039F01D
:100840008AB386238ABB8BB386238BBB06C087B350
:10085000862387BB88B3862388BB80E090E0089519
:1008600084B3862384BB85B3862385BBF6CF81B34F
:10087000862381BB82B3862382BBEFCFB1F4823063
:1008800061F0833071F0813021F08AB38E2B8ABB06
:10089000E4CF87B38E2B87BBE0CF84B38E2B84BB92
:1008A000DCCF81B38E2B81BBD8CF9E2F9095823029
:1008B00081F08330A1F0813031F08AB389238ABB83
:1008C0008BB38E2BC2CF87B3892387BB88B38E2B84
:1008D000C3CF84B3892384BB85B38E2BC6CF81B3AA
:1008E000892381BB82B38E2BC7CF81E090E008952E
:1008F0008430C8F56830B8F54230A8F521E030E022
:10090000F90101C0EE0F6A95EAF76E2F4130C1F48C
:10091000823061F0833081F0813021F08BB38E2BF7
:100920008BBB07C088B38E2B88BB03C085B38E2BCF
:1009300085BB80E090E0089582B38E2B82BBF9CF17
:100940006095823051F0833059F0813019F08BB3CB
:100950008623E6CF88B38623E7CF85B38623E8CF07
:1009600082B38623EBCF81E090E00895789480E015
:1009700090E00895F89480E090E008951F920F921F
:100980000FB60F9211242F933F934F935F936F9362
:100990007F938F939F93AF93BF93EF93FF93809138
:1009A0008B0090918C00892B29F0E0918B00F091C5
:1009B0008C000995FF91EF91BF91AF919F918F911D
:1009C0007F916F915F914F913F912F910F900FBE4B
:1009D0000F901F9018951F920F920FB60F9211242F
:1009E0002F933F934F935F936F937F938F939F9337
:1009F000AF93BF93EF93FF9380918D0090918E0002
:100A0000892B29F0E0918D00F0918E000995FF91DE
:100A1000EF91BF91AF919F918F917F916F915F9176
:100A20004F913F912F910F900FBE0F901F901895EF
:100A30001F920F920FB60F9211242F933F934F9353
:100A40005F936F937F938F939F93AF93BF93EF9336
:100A5000FF9380918F0090919000892B29F0E09175
:100A60008F00F09190000995FF91EF91BF91AF91A8
:100A70009F918F917F916F915F914F913F912F91B6
:100A80000F900FBE0F901F901895CF93C82F81E045
:100A900090E0C430E8F441E064E081E00E940604A4
:100AA00041E065E081E00E94060440E066E081E00C
:100AB0000E94060441E067E081E00E94060440E0F5
:100AC00064E081E00E947804C065CDB980E090E0E8
:100AD000CF9108958FB9779BFECF8FB1089513BE44
:100AE00012BE8DE48CBF83B7886083BF83B78460F8
:100AF00083BF83B7816083BF89B7826089BF089550
:100B00009091A90081E0911101C080E008951092B8
:100B1000A90008951FBC1EBC8EB580688EBD8EB521
:100B200080648EBD8EB584608EBD89B7806289BFBA
:100B300089B7846089BF80E090E0FC01EE0FFF1F61
:100B4000E756FF4F11821082019688309105A9F770
:100B500010929800109297001092960010929500B3
:100B600010929400109293001092920010929100B3
:100B700008959091940081E0913009F080E008950B
:100B800010929400109295000895883048F4E82F50
:100B9000F0E0EE0FFF1FE756FF4F8081918108952F
:100BA00080E090E0089580919500089580919600EE
:100BB00008959091930081E0911101C080E0089523
:100BC000109293001092920010929100089595B5A2
:100BD0009B7F95BD95B59D7F95BD95B59E7F95BD38
:100BE000813049F481E883BD85B5826085BD85B5D6
:100BF000816085BD0895823029F481E683BD85B585
:100C00008460F7CF833011F481E8F8CF13BC0895E6
:100C10008F9A15BC14BC85B5886085BD85B580618B
:100C200085BD80E00C94E7051F920F920FB60F92DE
:100C300011242F933F934F935F936F937F938F93E1
:100C40009F93AF93BF93EF93FF938091AC009091EC
:100C5000AD00A091AE00B091AF000196A11DB11DF5
:100C60008093AC009093AD00A093AE00B093AF0022
:100C700081E08093A9008091AA009091AB00892B1C
:100C800029F0E091AA00F091AB000995FF91EF9156
:100C9000BF91AF919F918F917F916F915F914F9194
:100CA0003F912F910F900FBE0F901F9018951F929C
:100CB0001FB61F9211242F933F934F935F938F93EF
:100CC0009F93EF93FF9386B597B52091970030914E
:100CD0009800E0919600F0E0AC01421B530B9A01A2
:100CE000EE0FFF1FE756FF4F31832083909398004C
:100CF00080939700809196008F5F87708093960015
:100D0000809195008830D0F4809195008F5F80931A
:100D1000950081E0809394001092920010929100CF
:100D200010929300FF91EF919F918F915F914F915E
:100D30003F912F911F901FBE1F90189588E0E7CF1D
:100D40001F921FB61F9211248F939F938091910041
:100D500090919200019690939200809391008091DF
:100D60009100909192008230910518F081E080937B
:100D700093009F918F911F901FBE1F901895AA1BE3
:100D8000BB1B51E107C0AA1FBB1FA617B70710F076
:100D9000A61BB70B881F991F5A95A9F780959095A8
:100DA000BC01CD010895A1E21A2EAA1BBB1BFD01B7
:100DB0000DC0AA1FBB1FEE1FFF1FA217B307E4073A
:100DC000F50720F0A21BB30BE40BF50B661F771F92
:100DD000881F991F1A9469F7609570958095909572
:0E0DE0009B01AC01BD01CF010895F894FFCF37
:00000001FF
