:100000000C942A000C9474010C94A1010C94CE0160
:100010000C9447000C9447000C9447000C94470044
:100020000C9447000C9447000C9447000C94470034
:100030000C9447000C9447000C9447000C94470024
:100040000C9447000C9447000C9447000C94470014
:100050000C94470011241FBECFE5D8E0DEBFCDBF12
:1000600010E0A0E6B0E0E0E4F4E002C005900D92FC
:10007000A036B107D9F720E0A0E6B0E001C01D929C
:10008000A636B207E1F70E944D000C941E020C94B4
:10009000000066E080E00C94E70041E065E080E06D
:1000A0000E94750041E066E080E00E94750040E03B
:1000B00062E083E00E9475000E94FB0169E470E049
:1000C00080E00E94610161E080E00E94230180E005
:1000D0000E9449010E940D0165E080E00E94E70056
:1000E00088EE93E00E940302F7CF843008F06CC0E2
:1000F000683008F069C0433008F066C021E030E0A5
:10010000F90101C0EE0F6A95EAF76E2F413028F52C
:1001100060958230A1F08330C9F0813039F08AB324
:1001200086238ABB8BB386238BBB06C087B386230B
:1001300087BB88B3862388BB80E090E0089584B3B2
:10014000862384BB85B3862385BBF6CF81B3862304
:1001500081BB82B3862382BBEFCFB1F4823061F0E2
:10016000833071F0813021F08AB38E2B8ABBE4CFCB
:1001700087B38E2B87BBE0CF84B38E2B84BBDCCFC1
:1001800081B38E2B81BBD8CF9E2F9095823081F08A
:100190008330A1F0813031F08AB389238ABB8BB3DD
:1001A0008E2BC2CF87B3892387BB88B38E2BC3CF57
:1001B00084B3892384BB85B38E2BC6CF81B38923B7
:1001C00081BB82B38E2BC7CF81E090E0089584304D
:1001D00008F56830F8F421E030E0A90101C0440FCF
:1001E0006A95EAF7823071F0833081F0813031F026
:1001F0008BB384278BBB80E090E0089588B384277D
:1002000088BBF9CF85B3842785BBF5CF82B384271C
:1002100082BBF1CF81E090E00895789480E090E097
:100220000895833068F4813039F0823039F080E409
:100230008ABF80E090E0089580E8FACF80E2F8CFAE
:1002400081E090E00895833008F56430F8F481305F
:1002500059F0823081F095B79C7F962B95BF0E9414
:10026000110180E090E0089595B7937F660F660FC7
:10027000692B65BFF4CF623021F494B79F7B94BFA4
:10028000EECF633019F494B79064F9CF81E090E039
:100290000895CF93C82F81E090E0C33060F48C2F95
:1002A0000E9411018BB7C13041F0C23041F080642F
:1002B0008BBF80E090E0CF9108958068F9CF806295
:1002C000F7CF833070F46115710559F0E82FF0E035
:1002D000EE0FFF1FE05AFF4F7183608380E090E0D4
:1002E000089581E090E008951F920F920FB60F924B
:1002F00011242F933F934F935F936F937F938F932B
:100300009F93AF93BF93EF93FF9380916000909181
:100310006100892B29F0E0916000F091610009955E
:10032000FF91EF91BF91AF919F918F917F916F91CD
:100330005F914F913F912F910F900FBE0F901F90A3
:1003400018951F920F920FB60F9211242F933F937F
:100350004F935F936F937F938F939F93AF93BF93CD
:10036000EF93FF938091620090916300892B29F0B5
:10037000E0916200F09163000995FF91EF91BF91C8
:10038000AF919F918F917F916F915F914F913F912D
:100390002F910F900FBE0F901F9018951F920F92E4
:1003A0000FB60F9211242F933F934F935F936F9348
:1003B0007F938F939F93AF93BF93EF93FF9380911E
:1003C000640090916500892B29F0E0916400F09120
:1003D00065000995FF91EF91BF91AF919F918F912A
:1003E0007F916F915F914F913F912F910F900FBE31
:1003F0000F901F90189588E083BF8CE78CBF12BECA
:1004000080E090E00895AC0198B7926098BF93B7F0
:10041000936093BF20E030E02417350731F483B7B1
:10042000887F83BF80E090E0089508B601FEFDCF8D
:1004300098B7926098BF2F5F3F4FEECFF894FFCFF1
:00000001FF
