:100000000C942A000C9413040C9440040C946D047A
:100010000C9447000C9447000C9483050C94470003
:100020000C9447000C94D7050C9440050C944700A1
:100030000C9447000C9447000C9447000C94470024
:100040000C9447000C9447000C9447000C94470014
:100050000C94470011241FBECFE5D8E0DEBFCDBF12
:1000600010E0A0E6B0E0E4E4FCE002C005900D92F0
:10007000A036B107D9F720E0A0E6B0E001C01D929C
:10008000AF3AB207E1F70E9449000C9420060C94A5
:10009000000041E060E081E00E945F0341E061E038
:1000A00081E00E945F0341E062E081E00E945F0323
:1000B00041E063E081E00E945F0341E067E082E0AD
:1000C0000E945F0340E066E083E00E945F0340E03F
:1000D00067E082E00E94CF030E949A040E942602F9
:1000E0000E94300141E060E081E00E94CF0341E0E6
:1000F00061E081E00E94CF0341E062E081E00E9484
:10010000CF0382E00E944A010E940B04C0E0D0E0CD
:100110000E94AB048030E1F30E94B20421960E9459
:100120005B01C233D10519F40E941A02F1CFCC321F
:1001300081E0D80769F70E940F0440E060E081E0A9
:100140000E94CF0340E061E081E00E94CF0340E0E5
:1001500062E081E00E94CF030E94300180E00E94B3
:100160004A010E945B030E94B2040E940B04C0E09B
:10017000D0E00E94AB048030E1F30E94B20441E081
:1001800067E082E00E94CF03CE0165E070E00E944C
:10019000EA05029769F48091600040E0803021F028
:1001A00081508093600041E063E081E00E94CF03D2
:1001B000CE0162E370E00E94EA05049779F40E94A0
:1001C000EE04811119C00E9499020E948C028030B5
:1001D000F9F041E060E081E00E94CF030E945B0102
:1001E00040E067E082E00E94CF032196C83E83E0B2
:1001F000D80709F0BECFBBCF0E94F8048C010E9443
:100200009902C801892B09F382E080936000DDCF59
:100210000E948702892BE9F240E0DCCF109269004E
:1002200010926800109267001092660010926500AC
:100230001092640080916A00833019F481E00C947C
:10024000130580916A008230D1F380916A00813079
:1002500011F483E0F4CF83E08093690080E0EFCF76
:1002600010926A0083E080936900109268001092F7
:100270006700109266001092650010926400109260
:10028000630010926200109261000E94340580E0C9
:100290000C941305843070F490916A00981751F013
:1002A00080936A00109261001092630010926200C5
:1002B0000C940E010895809161008030D1F08091FE
:1002C000620090916300892B49F0809162009091C7
:1002D00063000197909363008093620080916200B5
:1002E00090916300892B09F0A4C0109261000C94D6
:1002F0000E0180916A00811106C00E94130583E0FF
:1003000080936900089580916A008330B9F18091EB
:100310006A008230D9F58CED95E023E04FE050E0A3
:1003200064E170E0E0916400F0916500319649F07D
:10033000E0916400F09165003196F0936500E093E0
:10034000640030916900311129C08091660090915C
:100350006700019690936700809366008091660025
:10036000909167008617970708F463C081E0809337
:10037000690010926700109266004BC084EF91E014
:100380002AE04AE050E06FE070E0CCCF80E090E0FF
:1003900022E044E150E069E170E0C4CF30916900AF
:1003A0003130D9F580916600909167000196909365
:1003B00067008093660080916600909167008417C3
:1003C0009507B8F1809168008F5F809368008091F5
:1003D00068008217B8F410926900109267001092BA
:1003E000660080916A00833019F481E00C94130553
:1003F00080916A008230D1F380916A008130C9F423
:1004000083E0F4CF80916A00813029F483E0809307
:10041000690080E0EBCF82E0AACF20916900223012
:10042000C1F720916400309165002817390708F062
:100430005ECF089581E08093610080EE9EE290930C
:1004400063008093620080E00C94130510927200A8
:10045000109271001092700010926F0010926E0056
:1004600010926D0010926C0010926B00109284003C
:1004700010928300109286001092850010928800DE
:100480001092870080E090E0FC01EE0FFF1FED5816
:10049000FF4F11821082019688309105A9F70C94C4
:1004A000B504009799F1E0917200F0E0EE0FFF1FA4
:1004B000ED57FF4F91838083209172002F5F20932F
:1004C000720020917200233010F01092720020917F
:1004D0007100233028F4209171002F5F2093710068
:1004E000E0917000F0E0EE0FFF1FED58FF4F918399
:1004F0008083809170008F5F809370008091700086
:10050000883010F01092700010926B000895809166
:100510006E0090916F0008950E940705811107C039
:1005200090916B0081E0911103C080E0089581E01B
:100530000895CF92DF92EF92FF920E9407058030DC
:1005400081F081E080936B0010926F0010926E003A
:1005500010926D0010926C00FF90EF90DF90CF90A2
:1005600008950E94EE04803041F00E94F804009744
:1005700011F00E9451020E94F5040E948C02811128
:10058000E3CF209183003091840040918500509109
:10059000860080918700909188006091710063309F
:1005A00018F420E030E02BC02030320741F1403019
:1005B0005407B9F30097A9F34217530728F0742F93
:1005C000652FA901272F362F2817390708F4C901ED
:1005D0008417950708F4CA019C0140E050E068E3E5
:1005E0007CE98CE190E00E94FE05C901DA014E979A
:1005F000A040B0408D3D9040A040B04090F6309378
:100600006F0020936E0040E050E06A017601FA012D
:100610004F5F5F4FDA01AA0FBB1FAD58BF4F2D913F
:100620003D91129720303207C9F1EE0FFF1FED58B0
:10063000FF4F208131812030320781F12D913D9192
:100640001297808191812817390768F18D919D91CA
:1006500020813181821B930BC80ED91EE11CF11C35
:1006600047305105A1F6B601C70127E030E040E070
:1006700050E00E94FE0557705860220F331F441F40
:10068000551FD8F7B901CA01883E23E0920780F4CC
:1006900028EE33E040E050E00E94FE0530936D000C
:1006A00020936C0059CF808191812D913D91D2CFC3
:1006B0002FEF3FEFF3CF10926B000C940E058430B8
:1006C00008F06AC0683008F067C0433008F064C0C2
:1006D00021E001C0220F6A95EAF7622F413018F538
:1006E0006095823091F08330B9F0813039F08AB36F
:1006F00086238ABB8BB386238BBB1FC087B386231D
:1007000087BB88B3862388BB18C084B3862384BB89
:1007100085B3862385BB11C081B3862381BB82B399
:10072000862382BB0AC0C1F4823071F0833081F02D
:10073000813031F08AB3822B8ABB80E090E008954B
:1007400087B3822B87BBF9CF84B3822B84BBF5CFD1
:1007500081B3822B81BBF1CF922F9095823081F0B3
:100760008330A1F0813031F08AB389238ABB8BB307
:10077000822BC2CF87B3892387BB88B3822BC3CF99
:1007800084B3892384BB85B3822BC4CF81B38923EF
:1007900081BB82B3822BC5CF81E090E00895843085
:1007A000B8F56830A8F5423098F521E001C0220F75
:1007B0006A95EAF7622F4130C1F4823071F08330DC
:1007C00081F0813031F08BB3822B8BBB80E090E0E5
:1007D000089588B3822B88BBF9CF85B3822B85BB64
:1007E000F5CF82B3822B82BBF1CF6095823051F07E
:1007F000833059F0813019F08BB38623E6CF88B36C
:100800008623E9CF85B38623EACF82B38623EBCF55
:1008100081E090E00895789480E090E00895F89465
:1008200080E090E008951F920F920FB60F9211246E
:100830002F933F934F935F936F937F938F939F93E8
:10084000AF93BF93EF93FF938091890090918A00BB
:10085000892B29F0E0918900F0918A000995FF9198
:10086000EF91BF91AF919F918F917F916F915F9128
:100870004F913F912F910F900FBE0F901F901895A1
:100880001F920F920FB60F9211242F933F934F9305
:100890005F936F937F938F939F93AF93BF93EF93E8
:1008A000FF9380918B0090918C00892B29F0E0912F
:1008B0008B00F0918C000995FF91EF91BF91AF9162
:1008C0009F918F917F916F915F914F913F912F9168
:1008D0000F900FBE0F901F9018951F920F920FB69A
:1008E0000F9211242F933F934F935F936F937F93B6
:1008F0008F939F93AF93BF93EF93FF9380918D005E
:1009000090918E00892B29F0E0918D00F0918E005E
:100910000995FF91EF91BF91AF919F918F917F9139
:100920006F915F914F913F912F910F900FBE0F905C
:100930001F90189513BE12BE8DE48CBF83B78860DC
:1009400083BF83B7846083BF83B7816083BF89B768
:10095000826089BF08959091A80081E0911101C043
:1009600080E008951092A80008951FBC1EBC1DBC15
:100970001CBC88B7806288BF88B7846088BF8EB58A
:1009800080688EBD8EB580648EBD8EB584608EBD50
:1009900089B7806289BF89B7846089BF80E090E0B1
:1009A000FC01EE0FFF1FE856FF4F118210820196E7
:1009B00088309105A9F71092970010929600109236
:1009C0009500109294001092930010929200109251
:1009D00091001092900010928F00089590919400D1
:1009E00081E0911101C080E0089510929400089573
:1009F000CF93DF930E940F0480918F00909190001D
:100A0000EC010E940B04CE01DF91CF9108959091EB
:100A1000930081E0911101C080E00895109293004D
:100A200010929200089595B59B7F95BD95B59D7FD9
:100A300095BD95B59E7F95BD813049F481E883BD14
:100A400085B5826085BD85B5816085BD089582309C
:100A500029F481E683BD85B58460F7CF833011F436
:100A600081E8F8CF13BC08958F9A15BC14BC85B5E6
:100A7000886085BD85B5806185BD80E00C941305D7
:100A80001F920F920FB60F9211242F933F934F9303
:100A90005F936F937F938F939F93AF93BF93EF93E6
:100AA000FF938091AB009091AC00A091AD00B0910C
:100AB000AE000196A11DB11D8093AB009093AC00D8
:100AC000A093AD00B093AE0081E08093A800809128
:100AD000A9009091AA00892B29F0E091A900F0913A
:100AE000AA000995FF91EF91BF91AF919F918F91CE
:100AF0007F916F915F914F913F912F910F900FBE1A
:100B00000F901F9018951F921FB61F9211242F93BC
:100B10003F934F935F938F939F93EF93FF9386B58C
:100B200097B520919100211113C090939700809365
:100B3000960081E080939100FF91EF919F918F91BA
:100B40005F914F913F912F911F901FBE1F9018955D
:100B50002091960030919700AC01421B530B5093AB
:100B6000900040938F00E0919500F0E020918F007D
:100B700030919000EE0FFF1FE856FF4F3183208326
:100B80009093970080939600809195008F5F80935B
:100B9000950080919500883010F01092950081E0CA
:100BA000809394001092920010929300C5CF8F937F
:100BB0008FB78F93809192008F5F80939200809186
:100BC0009200823018F081E0809393008F918FBF64
:100BD0008F911895AA1BBB1B51E107C0AA1FBB1F11
:100BE000A617B70710F0A61BB70B881F991F5A95B9
:100BF000A9F780959095BC01CD010895A1E21A2E28
:100C0000AA1BBB1BFD010DC0AA1FBB1FEE1FFF1FB0
:100C1000A217B307E407F50720F0A21BB30BE40B00
:100C2000F50B661F771F881F991F1A9469F7609547
:100C30007095809590959B01AC01BD01CF01089501
:040C4000F894FFCF56
:00000001FF
