:100000000C942A000C94D0000C94FD000C942A014E
:100010000C9447000C9447000C949A010C944700F0
:100020000C9447000C94E3010C9457010C94470086
:100030000C9447000C9447000C9447000C94470024
:100040000C9447000C9447000C9447000C94470014
:100050000C94470011241FBECFE5D8E0DEBFCDBF12
:1000600010E0A0E6B0E0E2E7F4E002C005900D92F7
:10007000A038B107D9F720E0A0E8B0E001C01D9298
:10008000A53AB207E1F70E948F000C9437020C9456
:10009000000010BC87E689B988E08AB986E880BD8F
:1000A00008955D9BFECF8CB90895CF93DF93EC014B
:1000B0008881811103C0DF91CF91089521960E941C
:1000C0005100F6CFCF93DF93CDB7DEB72A970FB6A7
:1000D000F894DEBF0FBECDBF4AE0BE016F5F7F4F19
:1000E0000E940202CE0101960E9455002A960FB688
:1000F000F894DEBF0FBECDBFDF91CF91089580E4AD
:1001000087B987E886B9089597B18770907F892B62
:1001100087B9369A3699FECF84B195B1089500D04B
:1001200000D0CDB7DEB70E9449000E947F00B89A88
:1001300011E088B3812788BB80E690E00E945500DB
:100140001B821C828B810E94840089839A8389E7A9
:1001500090E00E9455008B819C810E9462008DE797
:1001600090E00E94550089819A810E94620086E792
:1001700090E00E9455008B819C8101968B839C832B
:10018000049701F786E790E00E9455009FEF29E66B
:1001900088E1915020408040E1F700C00000C9CFC5
:1001A0001F920F920FB60F9211242F933F934F93EC
:1001B0005F936F937F938F939F93AF93BF93EF93CF
:1001C000FF938091800090918100892B29F0E0912C
:1001D0008000F09181000995FF91EF91BF91AF915F
:1001E0009F918F917F916F915F914F913F912F914F
:1001F0000F900FBE0F901F9018951F920F920FB681
:100200000F9211242F933F934F935F936F937F939C
:100210008F939F93AF93BF93EF93FF93809182004F
:1002200090918300892B29F0E0918200F091830066
:100230000995FF91EF91BF91AF919F918F917F9120
:100240006F915F914F913F912F910F900FBE0F9043
:100250001F9018951F920F920FB60F9211242F9393
:100260003F934F935F936F937F938F939F93AF933E
:10027000BF93EF93FF938091840090918500892B29
:1002800029F0E0918400F09185000995FF91EF91AC
:10029000BF91AF919F918F917F916F915F914F919E
:1002A0003F912F910F900FBE0F901F9018951F92A6
:1002B0000F920FB60F9211242F933F934F935F939A
:1002C0006F937F938F939F93AF93BF93EF93FF931E
:1002D0008091A1009091A200A091A300B091A400F0
:1002E0000196A11DB11D8093A1009093A200A0933F
:1002F000A300B093A40081E080939E0080919F00B2
:100300009091A000892B29F0E0919F00F091A0002E
:100310000995FF91EF91BF91AF919F918F917F913F
:100320006F915F914F913F912F910F900FBE0F9062
:100330001F9018951F921FB61F9211242F933F9361
:100340004F935F938F939F93EF93FF9386B597B5EA
:1003500020918C0030918D00E0918B00F0E0AC0199
:10036000421B530B9A01EE0FFF1FE257FF4F3183E1
:10037000208390938D0080938C0080918B008F5F01
:10038000877080938B0080918A008830D0F48091B0
:100390008A008F5F80938A0081E0809389001092A9
:1003A00087001092860010928800FF91EF919F9134
:1003B0008F915F914F913F912F911F901FBE1F9082
:1003C000189588E0E7CF1F921FB61F9211248F93D4
:1003D0009F9380918600909187000196909387006B
:1003E00080938600809186009091870082309105ED
:1003F00018F081E0809388009F918F911F901FBE1D
:100400001F901895BB274A3031F4992322F4BDE29E
:10041000909581959F4F0C940E02BB27FB015527A9
:10042000AA27880F991FAA1FA41710F0A41B839551
:100430005051B9F7A05DAA3308F0A95DA1930097C8
:1004400079F7B111B1931192CB010C942702DC0121
:10045000FC01672F71917723E1F7329704C07C91FB
:100460006D9370836291AE17BF07C8F30895F89437
:02047000FFCFBC
:100472002D2D2D2050617469656E7420566974614A
:100482006C73202D2D2D0D0A00436820003A2000A8
:00000001FF
