:100000000C942A000C949B010C94C8010C94F501EB
:100010000C9447000C9447000C9465020C94470024
:100020000C9447000C94AE020C9422020C944700EE
:100030000C9447000C9447000C9447000C94470024
:100040000C9447000C9447000C9447000C94470014
:100050000C94470011241FBECFE5D8E0DEBFCDBF12
:1000600010E0A0E6B0E0E2E5FCE002C005900D92F1
:10007000AC3CB107D9F722E0ACECB0E001C01D9276
:10008000A33DB207E1F70E948F000C9427060C9461
:10009000000010BC87E689B988E18AB986E880BD8E
:1000A00008955D9BFECF8CB90895CF93DF93EC014B
:1000B0008881811103C0DF91CF91089521960E941C
:1000C0005100F6CFCF93DF93CDB7DEB72A970FB6A7
:1000D000F894DEBF0FBECDBF4AE0BE016F5F7F4F19
:1000E0000E94F502CE0101960E9455002A960FB695
:1000F000F894DEBF0FBECDBFDF91CF91089580E4AD
:1001000087B987E886B9089597B18770907F892B62
:1001100087B9369A3699FECF84B195B10895CDB797
:10012000DEB7E6970FB6F894DEBF0FBECDBF0E94D4
:1001300049000E947F000E94FF00B89AF12CCE0176
:1001400001968BAB9CAB88B321E0822788BB80E60D
:1001500090E00E94550000E010E0802F0E94840093
:100160008DAB9EAB89E790E00E945500C8010E94CC
:1001700062008DE790E00E9455008DA99EA90E9423
:1001800062008BEB90E00E9455000F5F1F4F043020
:10019000110519F78BEB90E00E945500F39484E170
:1001A000F81203C00E941301F12C9FEF29E688E1A9
:1001B000915020408040E1F700C000005F9BC3CF1A
:1001C0008CB18F7D843509F0BECF80E890E00E942D
:1001D00055000E945B01182F00E0011305C084EA5E
:1001E00090E00E945500AFCF6BA97CA9802F0E94A0
:1001F0005E018BA99CA90E9455000F5FEECF109263
:10020000CD001092CC00EEECF0E010821182128250
:1002100013821482158216821782389682E0EE3A93
:10022000F80799F70895CF93C091CD0080E00E9420
:10023000840028E0C29FF0011124E253FF4F808325
:100240009183C091CD0081E00E94840028E0C29F8C
:10025000F0011124E253FF4F82839383C091CD00BC
:1002600082E00E94840028E0C29FF0011124E25342
:10027000FF4F84839583C091CD0083E00E9484006A
:1002800028E0C29FF0011124E253FF4F8683978339
:100290008091CD0090E001966CE370E00E94E10255
:1002A0008093CD008091CC008C3318F48F5F8093C5
:1002B000CC00CF9108958091CC0008959B0190913E
:1002C000CC009C33B0F19091CD00890F9927991FF4
:1002D0006CE370E00E94E10243E0880F991F4A95A9
:1002E000E1F7FC01E253FF4F8C529F4FDC01119666
:1002F0008C918F9386818F9385818F9384818F9347
:1003000083818F9382818F9381818F9380818F935B
:100310008EEB90E09F938F933F932F930E941A034D
:100320008DB79EB70C960FB6F8949EBF0FBE8DBFCB
:10033000089590E0CACF1F920F920FB60F9211242A
:100340002F933F934F935F936F937F938F939F93DD
:10035000AF93BF93EF93FF938091AE029091AF0262
:10036000892B29F0E091AE02F091AF020995FF913F
:10037000EF91BF91AF919F918F917F916F915F911D
:100380004F913F912F910F900FBE0F901F90189596
:100390001F920F920FB60F9211242F933F934F93FA
:1003A0005F936F937F938F939F93AF93BF93EF93DD
:1003B000FF938091B0029091B102892B29F0E091D6
:1003C000B002F091B1020995FF91EF91BF91AF9109
:1003D0009F918F917F916F915F914F913F912F915D
:1003E0000F900FBE0F901F9018951F920F920FB68F
:1003F0000F9211242F933F934F935F936F937F93AB
:100400008F939F93AF93BF93EF93FF938091B2022B
:100410009091B302892B29F0E091B202F091B302DE
:100420000995FF91EF91BF91AF919F918F917F912E
:100430006F915F914F913F912F910F900FBE0F9051
:100440001F9018951F920F920FB60F9211242F93A1
:100450003F934F935F936F937F938F939F93AF934C
:10046000BF93EF93FF938091CF029091D002A09120
:10047000D102B091D2020196A11DB11D8093CF028D
:100480009093D002A093D102B093D20281E08093E6
:10049000CC028091CD029091CE02892B29F0E0917F
:1004A000CD02F091CE020995FF91EF91BF91AF91EE
:1004B0009F918F917F916F915F914F913F912F917C
:1004C0000F900FBE0F901F9018951F921FB61F928E
:1004D00011242F933F934F935F938F939F93EF93A9
:1004E000FF9386B597B52091BA023091BB02E09197
:1004F000B902F0E0AC01421B530B9A01EE0FFF1F53
:10050000E454FD4F318320839093BB028093BA0261
:100510008091B9028F5F87708093B9028091B80291
:100520008830D0F48091B8028F5F8093B80281E068
:100530008093B7021092B5021092B4021092B602E4
:10054000FF91EF919F918F915F914F913F912F91EB
:100550001F901FBE1F90189588E0E7CF1F921FB60F
:100560001F9211248F939F938091B4029091B502B2
:1005700001969093B5028093B4028091B402909159
:10058000B5028230910518F081E08093B6029F9108
:100590008F911F901FBE1F901895AA1BBB1B51E186
:1005A00007C0AA1FBB1FA617B70710F0A61BB70BE3
:1005B000881F991F5A95A9F780959095BC01CD0188
:1005C000089597FB072E16F4009407D077FD09D005
:1005D0000E94CD0207FC05D03EF4909581959F4F77
:1005E0000895709561957F4F0895BB274A3031F487
:1005F000992322F4BDE2909581959F4F0C940103BD
:10060000BB27FB015527AA27880F991FAA1FA417EC
:1006100010F0A41B83955051B9F7A05DAA3308F0E0
:10062000A95DA193009779F7B111B1931192CB0114
:100630000C943905AEE0B0E0E0E2F3E00C94000683
:1006400086E08C832B893C8929833A838FEF9FE74F
:100650008D839E83AE01495E5F4F6D897E89CE0199
:1006600001960E943E03EF81F8852B893C89E20FB9
:10067000F31F10822E96E2E00C941C06ACE0B0E072
:10068000E4E4F3E00C94F3055C016B017A01FC01F6
:1006900016821782838181FFD3C12AE0522EF50191
:1006A0002381F60123FD859123FF81916F0181153F
:1006B00009F42CC1853239F423FD959123FF9191E2
:1006C0006F01953229F4B50190E00E944905E7CF0A
:1006D00030E0712C00E010E0103210F59B32C9F0D0
:1006E00050F49032B9F09332C9F09E3261F516FDA4
:1006F0000DC1106405C09D3279F0903399F41160FA
:10070000F60123FD959123FF91916F019111E4CFA3
:1007100023C012601460F4CF1860F2CF1061F0CFE4
:1007200017FD1AC080ED890F8A30F8F616FF05C054
:10073000759C800D1124782EE3CF059D800D11242A
:10074000082F1062DDCF9C3611F41068D9CF9C348D
:1007500009F440C09836A1F2892F8F7D85548330EB
:10076000D8F1933609F45FC0933709F46AC0933522
:1007700009F476C0943619F0993609F0A2C0F70151
:1007800017FF98C061917191819191917F011F76BE
:1007900097FF03C00E94E80510682AE030E04E0190
:1007A0004FEF841A940AA4010E948A05682E6818E3
:1007B00016FFD2C0812F8E7F671408F0CCC014FFC3
:1007C0001DC112FD11C11E7E972C812F867809F460
:1007D000CEC00FC131E094CF311509F1F8E0EF0E32
:1007E000F11C8FE3898391E0692E712C4E018FEF0C
:1007F000881A980A1F7713FD04C06016710408F464
:100800003FC06114710409F042C0011509F447CFDB
:10081000B50180E290E00E9449050150F6CF44E026
:10082000E40EF11CDECFF70180818983F2E0EF0E48
:10083000F11C81E0682E712C4E014FEF841A940A4E
:10084000D9CFF701819091907F01672D70E016FD5F
:1008500002C06FEF7FEFC4010E942E053C01CACF9A
:10086000F701819091907F01672D70E016FD02C025
:100870006FEF7FEFC4010E9423053C011068BBCFDE
:10088000B50180E290E00E9449050150B6CFF40125
:1008900017FD859117FF81914F01B50190E00E94EE
:1008A000490581E0011101C080E0081BF1E06F1AE9
:1008B0007108A7CF61917191872F880F880B982FAE
:1008C00065CF9537C9F41F7E1C872AE030E0FC8590
:1008D000F7FF3BC0F70161917191819191917F0187
:1008E0004E014FEF841A940AA4010E948A05682ED3
:1008F00068181C851F775CCF812F897F8C87903784
:1009000099F058F49835B9F09F36E1F0F5018681F9
:1009100097812C96EFE00C940F069837B9F714FDE9
:1009200006C020E130E0D3CF9C8590619C87EC85A8
:10093000E460EC87F6CF14FF02C016601C8720E14C
:1009400032E0C5CF28E030E0C2CFF701619171916C
:1009500080E090E0C4CF182F962C14FF36CFFE0114
:10096000E60DF11D8081803309F041C0197E13FD31
:100970000EC010FF4FC0762C901618F4700E791828
:10098000902E802F8919091508F480E0980E901692
:1009900008F042C0091914FF41C0B50180E390E09E
:1009A0000E94490512FF09C088E590E011FD02C0D0
:1009B00088E790E0B5010E9449056714D0F14E0127
:1009C0008FEF881A980A6A94FE013296E60DF11D9F
:1009D0003F01F30182913F01B50190E00E9449057A
:1009E00068147904B1F711CF972C182FB8CF12FDE6
:1009F00002C09394BCCF93949394B9CF972C182FA3
:100A0000E4CEB50180E290E00E944905839480160F
:100A1000C0F3B7CF892CFBCF00E0BDCF812F867804
:100A200061F280E211FD8BE217FD8DE2B50190E0ED
:100A3000C2CFB50180E390E00E9449057A94BDCF12
:100A40008FEF9FEF66CFFC01059061507040011061
:100A5000D8F7809590958E0F9F1F0895FC016150E7
:100A6000704001900110D8F7809590958E0F9F1FD0
:100A70000895DC01FC01672F71917723E1F732972C
:100A800004C07C916D9370836291AE17BF07C8F369
:100A90000895A3E0B0E0EFE4F5E00C94FF05182F13
:100AA00099836A837B83DB0113968C9181FD09C056
:100AB0001FEFBFEFB983812F99812396E3E00C9458
:100AC0001B0682FF1BC0EA81FB812681378184815E
:100AD00095812817390754F40190F081E02DCF015A
:100AE0000196AA81BB818D939D931083EA81FB813E
:100AF00086819781019686839783DDCFAA81BB810A
:100B00001896ED91FD911A97BD01812F0995892BBA
:100B100069F3CECFFA01AA27283051F1203181F1B3
:100B2000E8946F936E7F6E5F7F4F8F4F9F4FAF4FF5
:100B3000B1E03ED0B4E03CD0670F781F891F9A1F08
:100B4000A11D680F791F8A1F911DA11D6A0F711DBC
:100B5000811D911DA11D20D009F468943F912AE0C8
:100B6000269F11243019305D3193DEF6CF010895B0
:100B7000462F4770405D4193B3E00FD0C9F7F6CFE1
:100B8000462F4F70405D4A3318F0495D31FD4052A9
:100B9000419302D0A9F7EACFB4E0A695979587953F
:100BA00077956795BA95C9F700976105710508951E
:100BB0009B01AC010A2E06945795479537952795CA
:100BC000BA95C9F7620F731F841F951FA01D089562
:100BD00090958095709561957F4F8F4F9F4F0895A9
:100BE0002F923F924F925F926F927F928F929F923D
:100BF000AF92BF92CF92DF92EF92FF920F931F932B
:100C0000CF93DF93CDB7DEB7CA1BDB0B0FB6F894DB
:100C1000DEBF0FBECDBF09942A88398848885F841B
:100C20006E847D848C849B84AA84B984C884DF808C
:100C3000EE80FD800C811B81AA81B981CE0FD11D70
:100C40000FB6F894DEBF0FBECDBFED010895F89446
:020C5000FFCFD4
:100C52002D2D2D2050617469656E74205669746162
:100C62006C73202D2D2D0D0A00436820003A2000C0
:100C72000D0A2D2D2D2053656E64696E6720547206
:100C8200656E6473204353562044617461202D2D98
:100C92002D0D0A002D2D2D20456E64206F662054E7
:100CA20072656E6473202D2D2D0D0A0D0A002575B7
:0C0CB2002C25752C25752C25750D0A00CD
:00000001FF
