:100000000C942A000C94F3030C9420040C944D04DB
:100010000C9447000C9447000C9462050C94470024
:100020000C9447000C94AB050C941F050C944700EE
:100030000C9447000C9447000C9447000C94470024
:100040000C9447000C9447000C9447000C94470014
:100050000C94470011241FBECFE5D8E0DEBFCDBF12
:1000600010E0A0E6B0E0E4E0FCE002C005900D92F4
:10007000A036B107D9F720E0A0E6B0E001C01D929C
:10008000AC3AB207E1F70E9449000C9400060C94C8
:10009000000041E060E081E00E943F0341E061E058
:1000A00081E00E943F0341E062E081E00E943F0363
:1000B00041E063E081E00E943F0341E067E082E0CD
:1000C0000E943F0340E067E082E00E94AF030E948D
:1000D0007A040E94ED010E94F70041E060E081E0B7
:1000E0000E94AF0341E061E081E00E94AF0341E084
:1000F00062E081E00E94AF0382E00E9411010E9451
:10010000EB03C0E0D0E00E948B048030E1F30E945A
:10011000920421960E942201C233D10519F40E9453
:10012000E101F1CFCC3281E0D80769F70E94EF03FB
:1001300040E060E081E00E94AF0340E061E081E0E8
:100140000E94AF0340E062E081E00E94AF030E94A2
:10015000F70080E00E9411010E943B030E9492047C
:100160000E94EB03C0E0D0E00E948B048030E1F3FA
:100170000E94920441E067E082E00E94AF03CE015A
:1001800062E370E00E94CA05049711F40E944302E2
:100190000E94220140E067E082E00E94AF032196C6
:1001A000C83E83E0D80701F7DDCF109268001092B7
:1001B0006700109266001092650010926400109221
:1001C000630080916900833019F481E00C94F2049B
:1001D000809169008230D1F380916900813011F4FF
:1001E00083E0F4CF83E08093680080E0EFCF10924B
:1001F000690083E0809368001092670010926600A7
:1002000010926500109264001092630010926200D8
:1002100010926100109260000E94130580E00C941F
:10022000F204843070F490916900981751F0809333
:1002300069001092600010926200109261000C94AC
:10024000D5000895809160008030D1F080916100E8
:1002500090916200892B49F0809161009091620039
:10026000019790936200809361008091610090916A
:100270006200892B09F0A4C0109260000C94D50094
:1002800080916900811106C00E94F20483E080938E
:1002900068000895809169008330B9F18091690008
:1002A0008230D9F58CED95E023E04FE050E064E139
:1002B00070E0E0916300F0916400319649F0E091C4
:1002C0006300F09164003196F0936400E093630062
:1002D00030916800311129C08091650090916600CD
:1002E00001969093660080936500809165009091DF
:1002F00066008617970708F463C081E08093680062
:1003000010926600109265004BC084EF91E02AE0E5
:100310004AE050E06FE070E0CCCF80E090E022E077
:1003200044E150E069E170E0C4CF309168003130C1
:10033000D9F58091650090916600019690936600D2
:100340008093650080916500909166008417950701
:10035000B8F1809167008F5F80936700809167009C
:100360008217B8F41092680010926600109265002F
:1003700080916900833019F481E00C94F20480913B
:1003800069008230D1F3809169008130C9F483E043
:10039000F4CF80916900813029F483E08093680074
:1003A00080E0EBCF82E0AACF209168002230C1F735
:1003B00020916300309164002817390708F05ECF60
:1003C000089581E08093600080EE9EE29093620049
:1003D0008093610080E00C94F204109270001092FF
:1003E0006F0010926E0010926D0010926C001092CF
:1003F0006B0010926A00109282001092810010929D
:10040000840010928300109286001092850080E094
:1004100090E0FC01EE0FFF1FEF58FF4F118210829A
:10042000019688309105A9F70C949504009751F135
:10043000E0917000F0E0EE0FFF1FEF57FF4F918348
:100440008083209170002F5F2093700020917000B6
:10045000233010F010927000E0916F00F0E0EE0F8A
:10046000FF1FEF58FF4F9183808380916F008F5F54
:1004700080936F0080916F00883010F010926F00B1
:1004800010926A000895CF92DF92EF92FF920F933D
:100490001F93CF93DF9300D000D000D0CDB7DEB74D
:1004A0000E94E404811104C000916A000030D1F080
:1004B00010926E0010926D0010926C0010926B0002
:1004C00081E080936A000F900F900F900F900F9033
:1004D0000F90DF91CF911F910F91FF90EF90DF90E0
:1004E000CF9008950E94C404803061F00E94DE0421
:1004F000182F0E94E104F82E811B182FF11224C03E
:100500000E94CB046E018FEFC81AD80AE0E0F0E039
:100510009F01DF01AA0FBB1FAF57BF4FED90FD90AA
:10052000D601ED92FD926D01E114FE04A9F08091D7
:10053000700090E0029663E070E00E94CA058E179A
:100540009F0759F4970109C0812F87700E94D0043A
:100550000E9416021F5FD2CF01E03196E330F10511
:10056000C1F62030320791F0003009F464C040E059
:1005700050E068E37CE98CE190E00E94DE05C9016F
:100580004E978D3D904010F020E030E030936E00AB
:1005900020936D0040E050E06A017601FA014F5F60
:1005A0005F4FDA01AA0FBB1FAF58BF4F2D913D918E
:1005B000129720303207D1F1EE0FFF1FEF58FF4F97
:1005C000208131812030320789F12D913D911297A0
:1005D000808191812817390708F445C08D919D913C
:1005E00020813181821B930BC80ED91EE11CF11CA6
:1005F0004730510599F6B601C70127E030E040E0E9
:1006000050E00E94DE0557705860220F331F441FD0
:10061000551FD8F7B901CA01883E23E0920740F57B
:1006200028EE33E040E050E00E94DE0530936C009D
:1006300020936B0048CF49815A818B819C8184171C
:10064000950728F0342F252FAC01832F922F2D8171
:100650003E814217530708F49A012817390708F01A
:1006600086CF9C0184CF808191812D913D91BACF1D
:100670002FEF3FEFDBCF10926A000C94EB04843035
:1006800008F06AC0683008F067C0433008F064C002
:1006900021E001C0220F6A95EAF7622F413018F578
:1006A0006095823091F08330B9F0813039F08AB3AF
:1006B00086238ABB8BB386238BBB1FC087B386235D
:1006C00087BB88B3862388BB18C084B3862384BBCA
:1006D00085B3862385BB11C081B3862381BB82B3DA
:1006E000862382BB0AC0C1F4823071F0833081F06E
:1006F000813031F08AB3822B8ABB80E090E008958C
:1007000087B3822B87BBF9CF84B3822B84BBF5CF11
:1007100081B3822B81BBF1CF922F9095823081F0F3
:100720008330A1F0813031F08AB389238ABB8BB347
:10073000822BC2CF87B3892387BB88B3822BC3CFD9
:1007400084B3892384BB85B3822BC4CF81B389232F
:1007500081BB82B3822BC5CF81E090E008958430C5
:10076000B8F56830A8F5423098F521E001C0220FB5
:100770006A95EAF7622F4130C1F4823071F083301C
:1007800081F0813031F08BB3822B8BBB80E090E025
:10079000089588B3822B88BBF9CF85B3822B85BBA4
:1007A000F5CF82B3822B82BBF1CF6095823051F0BE
:1007B000833059F0813019F08BB38623E6CF88B3AC
:1007C0008623E9CF85B38623EACF82B38623EBCF96
:1007D00081E090E00895789480E090E00895F894A6
:1007E00080E090E008951F920F920FB60F921124AF
:1007F0002F933F934F935F936F937F938F939F9329
:10080000AF93BF93EF93FF938091870090918800FF
:10081000892B29F0E0918700F09188000995FF91DC
:10082000EF91BF91AF919F918F917F916F915F9168
:100830004F913F912F910F900FBE0F901F901895E1
:100840001F920F920FB60F9211242F933F934F9345
:100850005F936F937F938F939F93AF93BF93EF9328
:10086000FF938091890090918A00892B29F0E09173
:100870008900F0918A000995FF91EF91BF91AF91A6
:100880009F918F917F916F915F914F913F912F91A8
:100890000F900FBE0F901F9018951F920F920FB6DA
:1008A0000F9211242F933F934F935F936F937F93F6
:1008B0008F939F93AF93BF93EF93FF9380918B00A0
:1008C00090918C00892B29F0E0918B00F0918C00A5
:1008D0000995FF91EF91BF91AF919F918F917F917A
:1008E0006F915F914F913F912F910F900FBE0F909D
:1008F0001F90189513BE12BE8DE48CBF83B788601D
:1009000083BF83B7846083BF83B7816083BF89B7A8
:10091000826089BF08959091A50081E0911101C086
:1009200080E008951092A50008951FBC1EBC8EB5EE
:1009300080688EBD8EB580648EBD8EB584608EBDA0
:1009400089B7806289BF89B7846089BF80E090E001
:10095000FC01EE0FFF1FEB56FF4F11821082019634
:1009600088309105A9F7109294001092930010928C
:100970009200109291001092900010928F001092AD
:100980008E0010928D0008959091900081E091303A
:1009900009F080E00895109290001092910008955F
:1009A000883048F4E82FF0E0EE0FFF1FEB56FF4FC2
:1009B00080819181089580E090E008958091910078
:1009C000089580919200089590918F0081E0911197
:1009D00001C080E0089510928F0010928E00109256
:1009E0008D00089595B59B7F95BD95B59D7F95BD6F
:1009F00095B59E7F95BD813049F481E883BD85B56D
:100A0000826085BD85B5816085BD0895823029F4F9
:100A100081E683BD85B58460F7CF833011F481E82A
:100A2000F8CF13BC08958F9A15BC14BC85B58860A7
:100A300085BD85B5806185BD80E00C94F2041F9270
:100A40000F920FB60F9211242F933F934F935F9302
:100A50006F937F938F939F93AF93BF93EF93FF9386
:100A60008091A8009091A900A091AA00B091AB003C
:100A70000196A11DB11D8093A8009093A900A09399
:100A8000AA00B093AB0081E08093A5008091A600FE
:100A90009091A700892B29F0E091A600F091A70082
:100AA0000995FF91EF91BF91AF919F918F917F91A8
:100AB0006F915F914F913F912F910F900FBE0F90CB
:100AC0001F9018951F921FB61F9211242F933F93CA
:100AD0004F935F938F939F93EF93FF9386B597B553
:100AE0002091930030919400E0919200F0E0AC01ED
:100AF000421B530B9A01EE0FFF1FEB56FF4F318342
:100B000020839093940080939300809192008F5F54
:100B1000877080939200809191008830D0F480910A
:100B200091008F5F8093910081E0809390001092FC
:100B30008E0010928D0010928F00FF91EF919F9187
:100B40008F915F914F913F912F911F901FBE1F90EA
:100B5000189588E0E7CF1F921FB61F9211248F933C
:100B60009F9380918D0090918E00019690938E00BE
:100B700080938D0080918D0090918E008230910540
:100B800018F081E080938F009F918F911F901FBE7E
:100B90001F901895AA1BBB1B51E107C0AA1FBB1FC2
:100BA000A617B70710F0A61BB70B881F991F5A95F9
:100BB000A9F780959095BC01CD010895A1E21A2E68
:100BC000AA1BBB1BFD010DC0AA1FBB1FEE1FFF1FF1
:100BD000A217B307E407F50720F0A21BB30BE40B41
:100BE000F50B661F771F881F991F1A9469F7609588
:100BF0007095809590959B01AC01BD01CF01089542
:040C0000F894FFCF96
:00000001FF
