:100000000C942A000C94D5040C9402050C942F0532
:100010000C9447000C9447000C946F060C94470016
:100020000C9447000C94C3060C942C060C944700C7
:100030000C9447000C9447000C9447000C94470024
:100040000C9447000C9447000C9447000C94470014
:100050000C94470011241FBECFE5D8E0DEBFCDBF12
:1000600010E0A0E6B0E0ECE1FEE002C005900D92E9
:10007000A036B107D9F720E0A0E6B0E001C01D929C
:10008000A33BB207E1F70E9449000C940C070C94C3
:10009000000041E067E082E00E94210440E066E069
:1000A00083E00E94210440E067E082E00E94910426
:1000B0000E9486050E94BB020E9408040E94F4036D
:1000C0000E941C010E94120282E00E94360183E01D
:1000D0000E9443020E94FE038FEF0E9415040E94BB
:1000E000CD04C0E0D0E00E9497058030E1F30E948B
:1000F0009E0521960E9447010E945002C233D105FD
:1001000019F40E940602EFCFCC3281E0D80759F7EC
:100110000E94D1040E941C010E9412020E9403044A
:1001200080E00E94150480E00E94360180E00E9479
:1001300043020E9403040E94F0030E949E050E9455
:10014000CD04C0E0D0E00E9497058030E1F30E942A
:100150009E0541E067E082E00E949104CE0165E0E7
:1001600070E00E94D606029769F48091600040E03A
:10017000803021F081508093600041E063E081E0B5
:100180000E949104CE0162E370E00E94D6060497BB
:1001900079F40E94DA0581111BC00E942E030E948F
:1001A0002103803009F141E060E081E00E94910488
:1001B0000E9447010E94500240E067E082E00E94F6
:1001C00091042196C83E83E0D80709F0BCCFB9CF8F
:1001D0000E94E4058C010E942E03C801892BF9F2CC
:1001E00082E080936000DBCF0E941C03892BD9F250
:1001F00040E0DACF10926900109268001092670018
:1002000010926600109265001092640080916A005E
:10021000833019F481E00C94FF0580916A008230EC
:10022000D1F380916A00813011F483E0F4CF83E050
:100230008093690080E0EFCF10926A0083E08093A2
:100240006900109268001092670010926600109288
:100250006500109264001092630010926200109288
:1002600061000E94200680E00C94FF05843070F449
:1002700090916A00981751F080936A001092610083
:1002800010926300109262000C94FA00089580911D
:1002900061008030D1F08091620090916300892BE1
:1002A00049F0809162009091630001979093630000
:1002B000809362008091620090916300892B09F025
:1002C000A4C0109261000C94FA0080916A00811120
:1002D00006C00E94FF0583E0809369000895809125
:1002E0006A008330B9F180916A008230D9F58CEDD3
:1002F00095E023E04FE050E064E170E0E0916400BD
:10030000F0916500319649F0E0916400F09165004C
:100310003196F0936500E0936400309169003111EB
:1003200029C08091660090916700019690936700C4
:10033000809366008091660090916700861797070A
:1003400008F463C081E08093690010926700109206
:1003500066004BC084EF91E02AE04AE050E06FE095
:1003600070E0CCCF80E090E022E044E150E069E131
:1003700070E0C4CF309169003130D9F580916600CA
:10038000909167000196909367008093660080913A
:1003900066009091670084179507B8F18091680016
:1003A0008F5F80936800809168008217B8F4109284
:1003B0006900109267001092660080916A00833095
:1003C00019F481E00C94FF0580916A008230D1F32A
:1003D00080916A008130C9F483E0F4CF80916A0093
:1003E000813029F483E08093690080E0EBCF82E0E4
:1003F000AACF209169002230C1F72091640030918A
:1004000065002817390708F05ECF089581E08093D2
:10041000610080EE9EE2909363008093620080E032
:100420000C94FF0541E060E081E00E94210441E07E
:1004300061E081E00E94210441E062E081E00E94ED
:10044000210441E063E081E00E94210440E060E09B
:1004500081E00E94910440E061E081E00E9491040B
:1004600040E062E081E00E94910440E063E081E0CE
:100470000E94910410926E0010926D0010926C0018
:1004800010926B000895843050F490916E0098178C
:1004900031F080936E0010926D0010926C00089500
:1004A00080916C0090916D00019690936D00809307
:1004B0006C0080916B00803071F080916B008150F6
:1004C00080936B0080916B00811105C040E063E078
:1004D00081E00E94910480916E00823049F1833066
:1004E00071F08130E1F140E060E081E00E94910430
:1004F00040E061E081E00E94910440E03AC040E0C9
:1005000061E081E00E94910440E062E081E00E94AD
:10051000910480916C0090916D0069E170E00E94FF
:10052000D60641E060FD40E060E081E00C9491047B
:1005300040E060E081E00E94910440E062E081E000
:100540000E94910480916C0090916D0063E570E0D1
:100550000E94D60641E060FD40E061E0E6CF40E069
:1005600060E00E94910440E061E081E00E9491041B
:1005700041E062E0DACF109276001092750010929E
:100580007400109273001092720010927100109219
:10059000700010926F0010928800109287001092E5
:1005A0008A001092890010928C0010928B0080E0DB
:1005B00090E0FC01EE0FFF1FE958FF4F11821082FF
:1005C000019688309105A9F70C94A105009799F13F
:1005D000E0917600F0E0EE0FFF1FE957FF4F9183A7
:1005E0008083209176002F5F209376002091760003
:1005F000233010F01092760020917500233028F4FB
:10060000209175002F5F20937500E0917400F0E059
:10061000EE0FFF1FE958FF4F918380838091740094
:100620008F5F8093740080917400883010F0109276
:10063000740010926F000895809172009091730081
:1006400008950E94F305811107C090916F0081E029
:10065000911103C080E0089581E00895CF92DF9268
:10066000EF92FF920E94F305803081F081E0809349
:100670006F0010927300109272001092710010922D
:100680007000FF90EF90DF90CF9008950E94DA0500
:10069000803041F00E94E405009711F00E94E602CC
:1006A0000E94E1050E9421038111E3CF2091870080
:1006B000309188004091890050918A0080918B0090
:1006C00090918C0060917500633018F420E030E068
:1006D0002BC02030320741F140305407B9F3009766
:1006E000A9F34217530728F0742F652FA901272F6C
:1006F000362F2817390708F4C9018417950708F41D
:10070000CA019C0140E050E068E37CE98CE190E0A4
:100710000E94EA06C901DA014E97A040B0408D3D23
:100720009040A040B04090F6309373002093720048
:1007300040E050E06A017601FA014F5F5F4FDA0155
:10074000AA0FBB1FA958BF4F2D913D911297203082
:100750003207C9F1EE0FFF1FE958FF4F20813181A9
:100760002030320781F12D913D9112978081918146
:100770002817390768F18D919D9120813181821B65
:10078000930BC80ED91EE11CF11C47305105A1F690
:10079000B601C70127E030E040E050E00E94EA06E1
:1007A00057705860220F331F441F551FD8F7B901E7
:1007B000CA01883E23E0920780F428EE33E040E04F
:1007C00050E00E94EA06309371002093700059CFE8
:1007D000808191812D913D91D2CF2FEF3FEFF3CFCB
:1007E00010926F000C94FA0541E064E083E00E94EF
:1007F000210440E064E083E00C94910441E064E073
:1008000083E00C94910440E064E083E00C94910454
:1008100081E00E945C0541E064E081E00E942104E7
:1008200040E064E081E00C9491040E94810541E085
:1008300064E081E00E94910440E064E081E00C9477
:100840009104843008F06AC0683008F067C0433013
:1008500008F064C021E001C0220F6A95EAF7622F18
:10086000413018F56095823091F08330B9F08130D5
:1008700039F08AB386238ABB8BB386238BBB1FC018
:1008800087B3862387BB88B3862388BB18C084B30D
:10089000862384BB85B3862385BB11C081B38623A1
:1008A00081BB82B3862382BB0AC0C1F4823071F05F
:1008B000833081F0813031F08AB3822B8ABB80E0B3
:1008C00090E0089587B3822B87BBF9CF84B3822B46
:1008D00084BBF5CF81B3822B81BBF1CF922F909552
:1008E000823081F08330A1F0813031F08AB38923E6
:1008F0008ABB8BB3822BC2CF87B3892387BB88B3D4
:10090000822BC3CF84B3892384BB85B3822BC4CF0E
:1009100081B3892381BB82B3822BC5CF81E090E074
:1009200008958430B8F56830A8F5423098F521E094
:1009300001C0220F6A95EAF7622F4130C1F482307C
:1009400071F0833081F0813031F08BB3822B8BBB1F
:1009500080E090E0089588B3822B88BBF9CF85B3FF
:10096000822B85BBF5CF82B3822B82BBF1CF609502
:10097000823051F0833059F0813019F08BB38623E7
:10098000E6CF88B38623E9CF85B38623EACF82B347
:100990008623EBCF81E090E00895789480E090E0AA
:1009A0000895F89480E090E008951F920F920FB69A
:1009B0000F9211242F933F934F935F936F937F93E5
:1009C0008F939F93AF93BF93EF93FF9380918D008D
:1009D00090918E00892B29F0E0918D00F0918E008E
:1009E0000995FF91EF91BF91AF919F918F917F9169
:1009F0006F915F914F913F912F910F900FBE0F908C
:100A00001F9018951F920F920FB60F9211242F93DB
:100A10003F934F935F936F937F938F939F93AF9386
:100A2000BF93EF93FF9380918F0090919000892B5B
:100A300029F0E0918F00F09190000995FF91EF91DE
:100A4000BF91AF919F918F917F916F915F914F91E6
:100A50003F912F910F900FBE0F901F9018951F92EE
:100A60000F920FB60F9211242F933F934F935F93E2
:100A70006F937F938F939F93AF93BF93EF93FF9366
:100A80008091910090919200892B29F0E091910042
:100A9000F09192000995FF91EF91BF91AF919F91D5
:100AA0008F917F916F915F914F913F912F910F9017
:100AB0000FBE0F901F901895CF93C82F81E090E044
:100AC000C430E8F441E064E081E00E94210441E0A8
:100AD00065E081E00E94210440E066E081E00E9440
:100AE000210441E067E081E00E94210440E064E0ED
:100AF00081E00E949104C065CDB980E090E0CF9183
:100B000008958FB9779BFECF8FB1089513BE12BEA3
:100B10008DE48CBF83B7886083BF83B7846083BF55
:100B200083B7816083BF89B7826089BF0895909140
:100B3000AC0081E0911101C080E008951092AC00FA
:100B400008951FBC1EBC1DBC1CBC88B7806288BF3A
:100B500088B7846088BF8EB580688EBD8EB580648E
:100B60008EBD8EB584608EBD89B7806289BF89B71E
:100B7000846089BF80E090E0FC01EE0FFF1FE45627
:100B8000FF4F11821082019688309105A9F71092CB
:100B90009B0010929A001092990010929800109267
:100BA0009700109296001092950010929400109267
:100BB000930008959091980081E0911101C080E028
:100BC0000895109298000895CF93DF930E94D10466
:100BD0008091930090919400EC010E94CD04CE018D
:100BE000DF91CF9108959091970081E0911101C01C
:100BF00080E008951092970010929600089595B5A0
:100C00009B7F95BD95B59D7F95BD95B59E7F95BD07
:100C1000813049F481E883BD85B5826085BD85B5A5
:100C2000816085BD0895823029F481E683BD85B554
:100C30008460F7CF833011F481E8F8CF13BC0895B6
:100C40008F9A15BC14BC85B5886085BD85B580615B
:100C500085BD80E00C94FF051F920F920FB60F9296
:100C600011242F933F934F935F936F937F938F93B1
:100C70009F93AF93BF93EF93FF938091AF009091B9
:100C8000B000A091B100B091B2000196A11DB11DBC
:100C90008093AF009093B000A093B100B093B200E6
:100CA00081E08093AC008091AD009091AE00892BE3
:100CB00029F0E091AD00F091AE000995FF91EF9120
:100CC000BF91AF919F918F917F916F915F914F9164
:100CD0003F912F910F900FBE0F901F9018951F926C
:100CE0001FB61F9211242F933F934F935F938F93BF
:100CF0009F93EF93FF9386B597B5209195002111AF
:100D000013C090939B0080939A0081E0809395009C
:100D1000FF91EF919F918F915F914F913F912F9113
:100D20001F901FBE1F90189520919A0030919B0034
:100D3000AC01421B530B5093940040939300E091FD
:100D40009900F0E02091930030919400EE0FFF1F86
:100D5000E456FF4F3183208390939B0080939A0049
:100D6000809199008F5F80939900809199008830DD
:100D700010F01092990081E08093980010929600F4
:100D800010929700C5CF8F938FB78F938091960065
:100D90008F5F8093960080919600823018F081E0FA
:100DA000809397008F918FBF8F911895AA1BBB1BC3
:100DB00051E107C0AA1FBB1FA617B70710F0A61B5B
:100DC000B70B881F991F5A95A9F780959095BC017C
:100DD000CD010895A1E21A2EAA1BBB1BFD010DC077
:100DE000AA1FBB1FEE1FFF1FA217B307E407F507DB
:100DF00020F0A21BB30BE40BF50B661F771F881FB7
:100E0000991F1A9469F760957095809590959B014C
:0C0E1000AC01BD01CF010895F894FFCFA4
:00000001FF
